{
  "address": "0x1cBfFb9eB0ff00A6bCe552586af919Aac8A408B3",
  "abi": [
    {
      "inputs": [],
      "name": "currentTimestamp",
      "outputs": [
        {
          "internalType": "uint256",
          "name": "",
          "type": "uint256"
        }
      ],
      "stateMutability": "view",
      "type": "function"
    },
    {
      "inputs": [
        {
          "internalType": "address",
          "name": "user",
          "type": "address"
        }
      ],
      "name": "getCount",
      "outputs": [
        {
          "internalType": "int256",
          "name": "",
          "type": "int256"
        }
      ],
      "stateMutability": "view",
      "type": "function"
    },
    {
      "inputs": [],
      "name": "hello",
      "outputs": [
        {
          "internalType": "string",
          "name": "",
          "type": "string"
        }
      ],
      "stateMutability": "view",
      "type": "function"
    },
    {
      "inputs": [],
      "name": "incrementCounter",
      "outputs": [],
      "stateMutability": "nonpayable",
      "type": "function"
    }
  ],
  "transactionHash": "0xe612ebf347819891b30a8d0866faf3d6d2d84b7fbf4038351ff04842e58a723f",
  "args": [],
  "numDeployments": 1,
  "solcInputHash": "cf287b5cddee5d877f8cb61a70cc25cb",
  "bytecode": "0x60806040526040518060400160405280600381526020017f68656a0000000000000000000000000000000000000000000000000000000000815250600090816200004a9190620002d9565b503480156200005857600080fd5b50620003c0565b600081519050919050565b7f4e487b7100000000000000000000000000000000000000000000000000000000600052604160045260246000fd5b7f4e487b7100000000000000000000000000000000000000000000000000000000600052602260045260246000fd5b60006002820490506001821680620000e157607f821691505b602082108103620000f757620000f662000099565b5b50919050565b60008190508160005260206000209050919050565b60006020601f8301049050919050565b600082821b905092915050565b600060088302620001617fffffffffffffffffffffffffffffffffffffffffffffffffffffffffffffffff8262000122565b6200016d868362000122565b95508019841693508086168417925050509392505050565b6000819050919050565b6000819050919050565b6000620001ba620001b4620001ae8462000185565b6200018f565b62000185565b9050919050565b6000819050919050565b620001d68362000199565b620001ee620001e582620001c1565b8484546200012f565b825550505050565b600090565b62000205620001f6565b62000212818484620001cb565b505050565b5b818110156200023a576200022e600082620001fb565b60018101905062000218565b5050565b601f82111562000289576200025381620000fd565b6200025e8462000112565b810160208510156200026e578190505b620002866200027d8562000112565b83018262000217565b50505b505050565b600082821c905092915050565b6000620002ae600019846008026200028e565b1980831691505092915050565b6000620002c983836200029b565b9150826002028217905092915050565b620002e4826200005f565b67ffffffffffffffff8111156200030057620002ff6200006a565b5b6200030c8254620000c8565b620003198282856200023e565b600060209050601f8311600181146200035157600084156200033c578287015190505b620003488582620002bb565b865550620003b8565b601f1984166200036186620000fd565b60005b828110156200038b5784890151825560018201915060208501945060208101905062000364565b86831015620003ab5784890151620003a7601f8916826200029b565b8355505b6001600288020188555050505b505050505050565b6104b180620003d06000396000f3fe608060405234801561001057600080fd5b506004361061004c5760003560e01c806319ff1d21146100515780631e2ff94f1461006f5780634f0cd27b1461008d5780635b34b966146100bd575b600080fd5b6100596100c7565b604051610066919061028e565b60405180910390f35b610077610155565b60405161008491906102c9565b60405180910390f35b6100a760048036038101906100a29190610347565b61015d565b6040516100b4919061038d565b60405180910390f35b6100c56101a6565b005b600080546100d4906103d7565b80601f0160208091040260200160405190810160405280929190818152602001828054610100906103d7565b801561014d5780601f106101225761010080835404028352916020019161014d565b820191906000526020600020905b81548152906001019060200180831161013057829003601f168201915b505050505081565b600042905090565b6000600160008373ffffffffffffffffffffffffffffffffffffffff1673ffffffffffffffffffffffffffffffffffffffff168152602001908152602001600020549050919050565b60018060003373ffffffffffffffffffffffffffffffffffffffff1673ffffffffffffffffffffffffffffffffffffffff16815260200190815260200160002060008282546101f59190610437565b92505081905550565b600081519050919050565b600082825260208201905092915050565b60005b8381101561023857808201518184015260208101905061021d565b60008484015250505050565b6000601f19601f8301169050919050565b6000610260826101fe565b61026a8185610209565b935061027a81856020860161021a565b61028381610244565b840191505092915050565b600060208201905081810360008301526102a88184610255565b905092915050565b6000819050919050565b6102c3816102b0565b82525050565b60006020820190506102de60008301846102ba565b92915050565b600080fd5b600073ffffffffffffffffffffffffffffffffffffffff82169050919050565b6000610314826102e9565b9050919050565b61032481610309565b811461032f57600080fd5b50565b6000813590506103418161031b565b92915050565b60006020828403121561035d5761035c6102e4565b5b600061036b84828501610332565b91505092915050565b6000819050919050565b61038781610374565b82525050565b60006020820190506103a2600083018461037e565b92915050565b7f4e487b7100000000000000000000000000000000000000000000000000000000600052602260045260246000fd5b600060028204905060018216806103ef57607f821691505b602082108103610402576104016103a8565b5b50919050565b7f4e487b7100000000000000000000000000000000000000000000000000000000600052601160045260246000fd5b600061044282610374565b915061044d83610374565b92508282019050828112156000831216838212600084121516171561047557610474610408565b5b9291505056fea26469706673582212206acf4537d0bacc14c96f686491ab8092b88b370b47406bae57a27fcbed299aff64736f6c63430008120033",
  "devdoc": {
    "kind": "dev",
    "methods": {},
    "version": 1
  },
  "userdoc": {
    "kind": "user",
    "methods": {},
    "version": 1
  },
  "storageLayout": {
    "storage": [
      {
        "astId": 4,
        "contract": "contracts/Counter.sol:Counter",
        "label": "hello",
        "offset": 0,
        "slot": "0",
        "type": "t_string_storage"
      },
      {
        "astId": 8,
        "contract": "contracts/Counter.sol:Counter",
        "label": "count",
        "offset": 0,
        "slot": "1",
        "type": "t_mapping(t_address,t_int256)"
      }
    ],
    "types": {
      "t_address": {
        "encoding": "inplace",
        "label": "address",
        "numberOfBytes": "20"
      },
      "t_int256": {
        "encoding": "inplace",
        "label": "int256",
        "numberOfBytes": "32"
      },
      "t_mapping(t_address,t_int256)": {
        "encoding": "mapping",
        "key": "t_address",
        "label": "mapping(address => int256)",
        "numberOfBytes": "32",
        "value": "t_int256"
      },
      "t_string_storage": {
        "encoding": "bytes",
        "label": "string",
        "numberOfBytes": "32"
      }
    }
  }
}