{
  "address": "0xDD5E2e8aC4408D133167DbBA80a3BED6990182BC",
  "abi": [
    {
      "inputs": [
        {
          "internalType": "address",
          "name": "_guardian",
          "type": "address"
        },
        {
          "internalType": "address",
          "name": "entryPoint_",
          "type": "address"
        }
      ],
      "stateMutability": "nonpayable",
      "type": "constructor"
    },
    {
      "inputs": [],
      "name": "AccountLocked",
      "type": "error"
    },
    {
      "inputs": [],
      "name": "ExceedsMaxLockTime",
      "type": "error"
    },
    {
      "inputs": [],
      "name": "InvalidInput",
      "type": "error"
    },
    {
      "inputs": [],
      "name": "NotAuthorized",
      "type": "error"
    },
    {
      "inputs": [],
      "name": "OwnershipCycle",
      "type": "error"
    },
    {
      "inputs": [],
      "name": "UntrustedImplementation",
      "type": "error"
    },
    {
      "anonymous": false,
      "inputs": [
        {
          "indexed": false,
          "internalType": "address",
          "name": "previousAdmin",
          "type": "address"
        },
        {
          "indexed": false,
          "internalType": "address",
          "name": "newAdmin",
          "type": "address"
        }
      ],
      "name": "AdminChanged",
      "type": "event"
    },
    {
      "anonymous": false,
      "inputs": [
        {
          "indexed": true,
          "internalType": "address",
          "name": "beacon",
          "type": "address"
        }
      ],
      "name": "BeaconUpgraded",
      "type": "event"
    },
    {
      "anonymous": false,
      "inputs": [
        {
          "indexed": false,
          "internalType": "uint256",
          "name": "lockedUntil",
          "type": "uint256"
        }
      ],
      "name": "LockUpdated",
      "type": "event"
    },
    {
      "anonymous": false,
      "inputs": [
        {
          "indexed": false,
          "internalType": "address",
          "name": "owner",
          "type": "address"
        },
        {
          "indexed": false,
          "internalType": "bytes4",
          "name": "selector",
          "type": "bytes4"
        },
        {
          "indexed": false,
          "internalType": "address",
          "name": "implementation",
          "type": "address"
        }
      ],
      "name": "OverrideUpdated",
      "type": "event"
    },
    {
      "anonymous": false,
      "inputs": [
        {
          "indexed": false,
          "internalType": "address",
          "name": "owner",
          "type": "address"
        },
        {
          "indexed": false,
          "internalType": "address",
          "name": "caller",
          "type": "address"
        },
        {
          "indexed": false,
          "internalType": "bool",
          "name": "hasPermission",
          "type": "bool"
        }
      ],
      "name": "PermissionUpdated",
      "type": "event"
    },
    {
      "anonymous": false,
      "inputs": [
        {
          "indexed": true,
          "internalType": "address",
          "name": "target",
          "type": "address"
        },
        {
          "indexed": true,
          "internalType": "uint256",
          "name": "value",
          "type": "uint256"
        },
        {
          "indexed": false,
          "internalType": "bytes",
          "name": "data",
          "type": "bytes"
        }
      ],
      "name": "TransactionExecuted",
      "type": "event"
    },
    {
      "anonymous": false,
      "inputs": [
        {
          "indexed": true,
          "internalType": "address",
          "name": "implementation",
          "type": "address"
        }
      ],
      "name": "Upgraded",
      "type": "event"
    },
    {
      "stateMutability": "payable",
      "type": "fallback"
    },
    {
      "inputs": [],
      "name": "entryPoint",
      "outputs": [
        {
          "internalType": "contract IEntryPoint",
          "name": "",
          "type": "address"
        }
      ],
      "stateMutability": "view",
      "type": "function"
    },
    {
      "inputs": [
        {
          "internalType": "address",
          "name": "to",
          "type": "address"
        },
        {
          "internalType": "uint256",
          "name": "value",
          "type": "uint256"
        },
        {
          "internalType": "bytes",
          "name": "data",
          "type": "bytes"
        }
      ],
      "name": "executeCall",
      "outputs": [
        {
          "internalType": "bytes",
          "name": "",
          "type": "bytes"
        }
      ],
      "stateMutability": "payable",
      "type": "function"
    },
    {
      "inputs": [
        {
          "internalType": "address",
          "name": "target",
          "type": "address"
        },
        {
          "internalType": "uint256",
          "name": "value",
          "type": "uint256"
        },
        {
          "internalType": "bytes",
          "name": "payload",
          "type": "bytes"
        }
      ],
      "name": "executeFromEntryPoint",
      "outputs": [],
      "stateMutability": "nonpayable",
      "type": "function"
    },
    {
      "inputs": [],
      "name": "getNonce",
      "outputs": [
        {
          "internalType": "uint256",
          "name": "",
          "type": "uint256"
        }
      ],
      "stateMutability": "view",
      "type": "function"
    },
    {
      "inputs": [],
      "name": "guardian",
      "outputs": [
        {
          "internalType": "address",
          "name": "",
          "type": "address"
        }
      ],
      "stateMutability": "view",
      "type": "function"
    },
    {
      "inputs": [
        {
          "internalType": "address",
          "name": "caller",
          "type": "address"
        }
      ],
      "name": "isAuthorized",
      "outputs": [
        {
          "internalType": "bool",
          "name": "",
          "type": "bool"
        }
      ],
      "stateMutability": "view",
      "type": "function"
    },
    {
      "inputs": [],
      "name": "isLocked",
      "outputs": [
        {
          "internalType": "bool",
          "name": "",
          "type": "bool"
        }
      ],
      "stateMutability": "view",
      "type": "function"
    },
    {
      "inputs": [
        {
          "internalType": "bytes32",
          "name": "hash",
          "type": "bytes32"
        },
        {
          "internalType": "bytes",
          "name": "signature",
          "type": "bytes"
        }
      ],
      "name": "isValidSignature",
      "outputs": [
        {
          "internalType": "bytes4",
          "name": "magicValue",
          "type": "bytes4"
        }
      ],
      "stateMutability": "view",
      "type": "function"
    },
    {
      "inputs": [
        {
          "internalType": "uint256",
          "name": "_lockedUntil",
          "type": "uint256"
        }
      ],
      "name": "lock",
      "outputs": [],
      "stateMutability": "nonpayable",
      "type": "function"
    },
    {
      "inputs": [],
      "name": "lockedUntil",
      "outputs": [
        {
          "internalType": "uint256",
          "name": "",
          "type": "uint256"
        }
      ],
      "stateMutability": "view",
      "type": "function"
    },
    {
      "inputs": [],
      "name": "nonce",
      "outputs": [
        {
          "internalType": "uint256",
          "name": "",
          "type": "uint256"
        }
      ],
      "stateMutability": "view",
      "type": "function"
    },
    {
      "inputs": [
        {
          "internalType": "address",
          "name": "",
          "type": "address"
        },
        {
          "internalType": "address",
          "name": "",
          "type": "address"
        },
        {
          "internalType": "uint256[]",
          "name": "",
          "type": "uint256[]"
        },
        {
          "internalType": "uint256[]",
          "name": "",
          "type": "uint256[]"
        },
        {
          "internalType": "bytes",
          "name": "",
          "type": "bytes"
        }
      ],
      "name": "onERC1155BatchReceived",
      "outputs": [
        {
          "internalType": "bytes4",
          "name": "",
          "type": "bytes4"
        }
      ],
      "stateMutability": "view",
      "type": "function"
    },
    {
      "inputs": [
        {
          "internalType": "address",
          "name": "",
          "type": "address"
        },
        {
          "internalType": "address",
          "name": "",
          "type": "address"
        },
        {
          "internalType": "uint256",
          "name": "",
          "type": "uint256"
        },
        {
          "internalType": "uint256",
          "name": "",
          "type": "uint256"
        },
        {
          "internalType": "bytes",
          "name": "",
          "type": "bytes"
        }
      ],
      "name": "onERC1155Received",
      "outputs": [
        {
          "internalType": "bytes4",
          "name": "",
          "type": "bytes4"
        }
      ],
      "stateMutability": "view",
      "type": "function"
    },
    {
      "inputs": [
        {
          "internalType": "address",
          "name": "",
          "type": "address"
        },
        {
          "internalType": "address",
          "name": "",
          "type": "address"
        },
        {
          "internalType": "uint256",
          "name": "receivedTokenId",
          "type": "uint256"
        },
        {
          "internalType": "bytes",
          "name": "",
          "type": "bytes"
        }
      ],
      "name": "onERC721Received",
      "outputs": [
        {
          "internalType": "bytes4",
          "name": "",
          "type": "bytes4"
        }
      ],
      "stateMutability": "view",
      "type": "function"
    },
    {
      "inputs": [
        {
          "internalType": "address",
          "name": "",
          "type": "address"
        },
        {
          "internalType": "bytes4",
          "name": "",
          "type": "bytes4"
        }
      ],
      "name": "overrides",
      "outputs": [
        {
          "internalType": "address",
          "name": "",
          "type": "address"
        }
      ],
      "stateMutability": "view",
      "type": "function"
    },
    {
      "inputs": [],
      "name": "owner",
      "outputs": [
        {
          "internalType": "address",
          "name": "",
          "type": "address"
        }
      ],
      "stateMutability": "view",
      "type": "function"
    },
    {
      "inputs": [
        {
          "internalType": "address",
          "name": "",
          "type": "address"
        },
        {
          "internalType": "address",
          "name": "",
          "type": "address"
        }
      ],
      "name": "permissions",
      "outputs": [
        {
          "internalType": "bool",
          "name": "",
          "type": "bool"
        }
      ],
      "stateMutability": "view",
      "type": "function"
    },
    {
      "inputs": [],
      "name": "proxiableUUID",
      "outputs": [
        {
          "internalType": "bytes32",
          "name": "",
          "type": "bytes32"
        }
      ],
      "stateMutability": "view",
      "type": "function"
    },
    {
      "inputs": [
        {
          "internalType": "bytes4[]",
          "name": "selectors",
          "type": "bytes4[]"
        },
        {
          "internalType": "address[]",
          "name": "implementations",
          "type": "address[]"
        }
      ],
      "name": "setOverrides",
      "outputs": [],
      "stateMutability": "nonpayable",
      "type": "function"
    },
    {
      "inputs": [
        {
          "internalType": "address[]",
          "name": "callers",
          "type": "address[]"
        },
        {
          "internalType": "bool[]",
          "name": "_permissions",
          "type": "bool[]"
        }
      ],
      "name": "setPermissions",
      "outputs": [],
      "stateMutability": "nonpayable",
      "type": "function"
    },
    {
      "inputs": [
        {
          "internalType": "bytes4",
          "name": "interfaceId",
          "type": "bytes4"
        }
      ],
      "name": "supportsInterface",
      "outputs": [
        {
          "internalType": "bool",
          "name": "",
          "type": "bool"
        }
      ],
      "stateMutability": "view",
      "type": "function"
    },
    {
      "inputs": [],
      "name": "token",
      "outputs": [
        {
          "internalType": "uint256",
          "name": "chainId",
          "type": "uint256"
        },
        {
          "internalType": "address",
          "name": "tokenContract",
          "type": "address"
        },
        {
          "internalType": "uint256",
          "name": "tokenId",
          "type": "uint256"
        }
      ],
      "stateMutability": "view",
      "type": "function"
    },
    {
      "inputs": [
        {
          "internalType": "address",
          "name": "newImplementation",
          "type": "address"
        }
      ],
      "name": "upgradeTo",
      "outputs": [],
      "stateMutability": "nonpayable",
      "type": "function"
    },
    {
      "inputs": [
        {
          "internalType": "address",
          "name": "newImplementation",
          "type": "address"
        },
        {
          "internalType": "bytes",
          "name": "data",
          "type": "bytes"
        }
      ],
      "name": "upgradeToAndCall",
      "outputs": [],
      "stateMutability": "payable",
      "type": "function"
    },
    {
      "inputs": [
        {
          "components": [
            {
              "internalType": "address",
              "name": "sender",
              "type": "address"
            },
            {
              "internalType": "uint256",
              "name": "nonce",
              "type": "uint256"
            },
            {
              "internalType": "bytes",
              "name": "initCode",
              "type": "bytes"
            },
            {
              "internalType": "bytes",
              "name": "callData",
              "type": "bytes"
            },
            {
              "internalType": "uint256",
              "name": "callGasLimit",
              "type": "uint256"
            },
            {
              "internalType": "uint256",
              "name": "verificationGasLimit",
              "type": "uint256"
            },
            {
              "internalType": "uint256",
              "name": "preVerificationGas",
              "type": "uint256"
            },
            {
              "internalType": "uint256",
              "name": "maxFeePerGas",
              "type": "uint256"
            },
            {
              "internalType": "uint256",
              "name": "maxPriorityFeePerGas",
              "type": "uint256"
            },
            {
              "internalType": "bytes",
              "name": "paymasterAndData",
              "type": "bytes"
            },
            {
              "internalType": "bytes",
              "name": "signature",
              "type": "bytes"
            }
          ],
          "internalType": "struct UserOperation",
          "name": "userOp",
          "type": "tuple"
        },
        {
          "internalType": "bytes32",
          "name": "userOpHash",
          "type": "bytes32"
        },
        {
          "internalType": "uint256",
          "name": "missingAccountFunds",
          "type": "uint256"
        }
      ],
      "name": "validateUserOp",
      "outputs": [
        {
          "internalType": "uint256",
          "name": "validationData",
          "type": "uint256"
        }
      ],
      "stateMutability": "nonpayable",
      "type": "function"
    },
    {
      "stateMutability": "payable",
      "type": "receive"
    }
  ],
  "transactionHash": "0x71f21fd89a51a241f83872a6c6bbf2f1319ef7c8c46116b2a0ed2fc660648697",
  "args": [
    "0xe6AD63F18fb1E85B2F3cBEf848C6a0b8d09144a5",
    "0x5FF137D4b0FDCD49DcA30c7CF57E578a026d2789"
  ],
  "numDeployments": 2,
  "solcInputHash": "f70961aa2205e5141e4dcdd03ebc0c83",
  "bytecode": "0x60e06040523073ffffffffffffffffffffffffffffffffffffffff1660809073ffffffffffffffffffffffffffffffffffffffff168152503480156200004457600080fd5b50604051620047013803806200470183398181016040528101906200006a9190620001e4565b600073ffffffffffffffffffffffffffffffffffffffff168273ffffffffffffffffffffffffffffffffffffffff161480620000d25750600073ffffffffffffffffffffffffffffffffffffffff168173ffffffffffffffffffffffffffffffffffffffff16145b156200010a576040517fb4fa3fb300000000000000000000000000000000000000000000000000000000815260040160405180910390fd5b8073ffffffffffffffffffffffffffffffffffffffff1660a08173ffffffffffffffffffffffffffffffffffffffff16815250508173ffffffffffffffffffffffffffffffffffffffff1660c08173ffffffffffffffffffffffffffffffffffffffff168152505050506200022b565b600080fd5b600073ffffffffffffffffffffffffffffffffffffffff82169050919050565b6000620001ac826200017f565b9050919050565b620001be816200019f565b8114620001ca57600080fd5b50565b600081519050620001de81620001b3565b92915050565b60008060408385031215620001fe57620001fd6200017a565b5b60006200020e85828601620001cd565b92505060206200022185828601620001cd565b9150509250929050565b60805160a05160c051614459620002a860003960008181610e3601528181611af1015261215201526000818161104f015281816115ef015281816116930152818161191d01528181611d650152611db8015260008181610c7b01528181610d0901528181610e5a01528181610ee80152610f9801526144596000f3fe60806040526004361061016a5760003560e01c80638da5cb5b116100d1578063ce0617ec1161008a578063ee9c605411610064578063ee9c605414610562578063f23a6e611461059f578063fc0c546a146105dc578063fe9fbb801461060957610179565b8063ce0617ec146104e3578063d087d2881461050e578063dd4670641461053957610179565b80638da5cb5b146103ca5780639e5d4c49146103f5578063a4e2d63414610425578063affed0e014610450578063b0d691fe1461047b578063bc197c81146104a657610179565b80633a871cdd116101235780633a871cdd146102c9578063452a9320146103065780634f1ef2861461033157806352d1902d1461034d57806373a68f7a146103785780637a8f7356146103a157610179565b806301ffc9a714610183578063039721b1146101c0578063150b7a02146101e95780631626ba7e146102265780631f9838b5146102635780633659cfe6146102a057610179565b3661017957610177610646565b005b610181610646565b005b34801561018f57600080fd5b506101aa60048036038101906101a59190612b05565b610773565b6040516101b79190612b4d565b60405180910390f35b3480156101cc57600080fd5b506101e760048036038101906101e29190612c23565b6108cc565b005b3480156101f557600080fd5b50610210600480360381019061020b9190612e79565b610b5a565b60405161021d9190612f0b565b60405180910390f35b34801561023257600080fd5b5061024d60048036038101906102489190612f5c565b610c08565b60405161025a9190612f0b565b60405180910390f35b34801561026f57600080fd5b5061028a60048036038101906102859190612fb8565b610c4a565b6040516102979190612b4d565b60405180910390f35b3480156102ac57600080fd5b506102c760048036038101906102c29190612ff8565b610c79565b005b3480156102d557600080fd5b506102f060048036038101906102eb919061304a565b610e01565b6040516102fd91906130c8565b60405180910390f35b34801561031257600080fd5b5061031b610e34565b60405161032891906130f2565b60405180910390f35b61034b6004803603810190610346919061310d565b610e58565b005b34801561035957600080fd5b50610362610f94565b60405161036f9190613178565b60405180910390f35b34801561038457600080fd5b5061039f600480360381019061039a91906131e9565b61104d565b005b3480156103ad57600080fd5b506103c860048036038101906103c391906132b3565b61117f565b005b3480156103d657600080fd5b506103df611446565b6040516103ec91906130f2565b60405180910390f35b61040f600480360381019061040a91906131e9565b6114f0565b60405161041c91906133bc565b60405180910390f35b34801561043157600080fd5b5061043a6115df565b6040516104479190612b4d565b60405180910390f35b34801561045c57600080fd5b506104656115eb565b60405161047291906130c8565b60405180910390f35b34801561048757600080fd5b5061049061168f565b60405161049d919061343d565b60405180910390f35b3480156104b257600080fd5b506104cd60048036038101906104c8919061351b565b6116b7565b6040516104da9190612f0b565b60405180910390f35b3480156104ef57600080fd5b506104f86116d4565b60405161050591906130c8565b60405180910390f35b34801561051a57600080fd5b506105236116da565b60405161053091906130c8565b60405180910390f35b34801561054557600080fd5b50610560600480360381019061055b91906135ea565b611765565b005b34801561056e57600080fd5b5061058960048036038101906105849190613617565b6118a2565b60405161059691906130f2565b60405180910390f35b3480156105ab57600080fd5b506105c660048036038101906105c19190613657565b6118e4565b6040516105d39190612f0b565b60405180910390f35b3480156105e857600080fd5b506105f1611901565b604051610600939291906136ee565b60405180910390f35b34801561061557600080fd5b50610630600480360381019061062b9190612ff8565b611919565b60405161063d9190612b4d565b60405180910390f35b600060016000610654611446565b73ffffffffffffffffffffffffffffffffffffffff1673ffffffffffffffffffffffffffffffffffffffff168152602001908152602001600020600080357fffffffff00000000000000000000000000000000000000000000000000000000167bffffffffffffffffffffffffffffffffffffffffffffffffffffffff19167bffffffffffffffffffffffffffffffffffffffffffffffffffffffff1916815260200190815260200160002060009054906101000a900473ffffffffffffffffffffffffffffffffffffffff169050600073ffffffffffffffffffffffffffffffffffffffff168173ffffffffffffffffffffffffffffffffffffffff16146107705760006107668234600036611baa565b9050805160208201f35b50565b6000807f01ffc9a7000000000000000000000000000000000000000000000000000000007bffffffffffffffffffffffffffffffffffffffffffffffffffffffff1916837bffffffffffffffffffffffffffffffffffffffffffffffffffffffff1916148061083f57507f4e2312e0000000000000000000000000000000000000000000000000000000007bffffffffffffffffffffffffffffffffffffffffffffffffffffffff1916837bffffffffffffffffffffffffffffffffffffffffffffffffffffffff1916145b806108a757507f400a0398000000000000000000000000000000000000000000000000000000007bffffffffffffffffffffffffffffffffffffffffffffffffffffffff1916837bffffffffffffffffffffffffffffffffffffffffffffffffffffffff1916145b905080156108b95760019150506108c7565b6108c1611c37565b60009150505b919050565b6108d46115df565b1561090b576040517f6315bfbb00000000000000000000000000000000000000000000000000000000815260040160405180910390fd5b6000610915611446565b90508073ffffffffffffffffffffffffffffffffffffffff163373ffffffffffffffffffffffffffffffffffffffff161461097c576040517fea8e4eb500000000000000000000000000000000000000000000000000000000815260040160405180910390fd5b60008585905090508084849050146109c0576040517fb4fa3fb300000000000000000000000000000000000000000000000000000000815260040160405180910390fd5b60005b81811015610b49578484828181106109de576109dd613725565b5b90506020020160208101906109f39190613780565b600260008573ffffffffffffffffffffffffffffffffffffffff1673ffffffffffffffffffffffffffffffffffffffff1681526020019081526020016000206000898985818110610a4757610a46613725565b5b9050602002016020810190610a5c9190612ff8565b73ffffffffffffffffffffffffffffffffffffffff1673ffffffffffffffffffffffffffffffffffffffff16815260200190815260200160002060006101000a81548160ff0219169083151502179055507f394777a58092892d136a90c4bb7e4350c72ac50fba6a0208128677f36527dcf583888884818110610ae257610ae1613725565b5b9050602002016020810190610af79190612ff8565b878785818110610b0a57610b09613725565b5b9050602002016020810190610b1f9190613780565b604051610b2e939291906137ad565b60405180910390a18080610b4190613813565b9150506109c3565b50610b52611d63565b505050505050565b6000610b64611c37565b6000806000610b71611e45565b9250925092504683148015610bb157503373ffffffffffffffffffffffffffffffffffffffff168273ffffffffffffffffffffffffffffffffffffffff16145b8015610bbc57508581145b15610bf3576040517fb79e3f3f00000000000000000000000000000000000000000000000000000000815260040160405180910390fd5b63150b7a0260e01b9350505050949350505050565b6000610c12611c37565b6000610c26610c1f611446565b8585611ec5565b90508015610c3e57631626ba7e60e01b915050610c44565b60009150505b92915050565b60026020528160005260406000206020528060005260406000206000915091509054906101000a900460ff1681565b7f000000000000000000000000000000000000000000000000000000000000000073ffffffffffffffffffffffffffffffffffffffff163073ffffffffffffffffffffffffffffffffffffffff1603610d07576040517f08c379a0000000000000000000000000000000000000000000000000000000008152600401610cfe906138de565b60405180910390fd5b7f000000000000000000000000000000000000000000000000000000000000000073ffffffffffffffffffffffffffffffffffffffff16610d4661208b565b73ffffffffffffffffffffffffffffffffffffffff1614610d9c576040517f08c379a0000000000000000000000000000000000000000000000000000000008152600401610d9390613970565b60405180910390fd5b610da5816120e2565b610dfe81600067ffffffffffffffff811115610dc457610dc3612d4e565b5b6040519080825280601f01601f191660200182016040528015610df65781602001600182028036833780820191505090505b506000612227565b50565b6000610e0b612395565b610e15848461240c565b9050610e248460200135612509565b610e2d8261250c565b9392505050565b7f000000000000000000000000000000000000000000000000000000000000000081565b7f000000000000000000000000000000000000000000000000000000000000000073ffffffffffffffffffffffffffffffffffffffff163073ffffffffffffffffffffffffffffffffffffffff1603610ee6576040517f08c379a0000000000000000000000000000000000000000000000000000000008152600401610edd906138de565b60405180910390fd5b7f000000000000000000000000000000000000000000000000000000000000000073ffffffffffffffffffffffffffffffffffffffff16610f2561208b565b73ffffffffffffffffffffffffffffffffffffffff1614610f7b576040517f08c379a0000000000000000000000000000000000000000000000000000000008152600401610f7290613970565b60405180910390fd5b610f84826120e2565b610f9082826001612227565b5050565b60007f000000000000000000000000000000000000000000000000000000000000000073ffffffffffffffffffffffffffffffffffffffff163073ffffffffffffffffffffffffffffffffffffffff1614611024576040517f08c379a000000000000000000000000000000000000000000000000000000000815260040161101b90613a02565b60405180910390fd5b7f360894a13ba1a3210667c828492db98dca3e2076cc3735a920a3ca505d382bbc60001b905090565b7f000000000000000000000000000000000000000000000000000000000000000073ffffffffffffffffffffffffffffffffffffffff163373ffffffffffffffffffffffffffffffffffffffff16146110db576040517f08c379a00000000000000000000000000000000000000000000000000000000081526004016110d290613a94565b60405180910390fd5b60006040518060600160405280602a81526020016143d3602a913990506000808673ffffffffffffffffffffffffffffffffffffffff16868686604051611123929190613ae4565b60006040518083038185875af1925050503d8060008114611160576040519150601f19603f3d011682016040523d82523d6000602084013e611165565b606091505b50915091506111758282856125a8565b5050505050505050565b6111876115df565b156111be576040517f6315bfbb00000000000000000000000000000000000000000000000000000000815260040160405180910390fd5b60006111c8611446565b90508073ffffffffffffffffffffffffffffffffffffffff163373ffffffffffffffffffffffffffffffffffffffff161461122f576040517fea8e4eb500000000000000000000000000000000000000000000000000000000815260040160405180910390fd5b6000858590509050808484905014611273576040517fb4fa3fb300000000000000000000000000000000000000000000000000000000815260040160405180910390fd5b60005b818110156114355784848281811061129157611290613725565b5b90506020020160208101906112a69190612ff8565b600160008573ffffffffffffffffffffffffffffffffffffffff1673ffffffffffffffffffffffffffffffffffffffff16815260200190815260200160002060008989858181106112fa576112f9613725565b5b905060200201602081019061130f9190612b05565b7bffffffffffffffffffffffffffffffffffffffffffffffffffffffff19167bffffffffffffffffffffffffffffffffffffffffffffffffffffffff1916815260200190815260200160002060006101000a81548173ffffffffffffffffffffffffffffffffffffffff021916908373ffffffffffffffffffffffffffffffffffffffff1602179055507f2c722487e90aca38ec1b074c3403210bd2bfb769b4da7f12f7bf0b9e37517c18838888848181106113ce576113cd613725565b5b90506020020160208101906113e39190612b05565b8787858181106113f6576113f5613725565b5b905060200201602081019061140b9190612ff8565b60405161141a93929190613afd565b60405180910390a1808061142d90613813565b915050611276565b5061143e611d63565b505050505050565b600080600080611454611e45565b92509250925046831461146d57600093505050506114ed565b8173ffffffffffffffffffffffffffffffffffffffff16636352211e826040518263ffffffff1660e01b81526004016114a691906130c8565b602060405180830381865afa1580156114c3573d6000803e3d6000fd5b505050506040513d601f19601f820116820180604052508101906114e79190613b49565b93505050505b90565b60606114fb33611919565b611531576040517fea8e4eb500000000000000000000000000000000000000000000000000000000815260040160405180910390fd5b6115396115df565b15611570576040517f6315bfbb00000000000000000000000000000000000000000000000000000000815260040160405180910390fd5b838573ffffffffffffffffffffffffffffffffffffffff167f47d99ad340f52da66535aff7e10da1ceb85a32bcbd9fa1c42314d194545e14d285856040516115b9929190613ba3565b60405180910390a36115c9611d63565b6115d585858585611baa565b9050949350505050565b60004260005411905090565b60007f000000000000000000000000000000000000000000000000000000000000000073ffffffffffffffffffffffffffffffffffffffff166335567e1a3060006040518363ffffffff1660e01b8152600401611649929190613c26565b602060405180830381865afa158015611666573d6000803e3d6000fd5b505050506040513d601f19601f8201168201806040525081019061168a9190613c64565b905090565b60007f0000000000000000000000000000000000000000000000000000000000000000905090565b60006116c1611c37565b63bc197c8160e01b905095945050505050565b60005481565b60006116e461168f565b73ffffffffffffffffffffffffffffffffffffffff166335567e1a3060006040518363ffffffff1660e01b815260040161171f929190613c26565b602060405180830381865afa15801561173c573d6000803e3d6000fd5b505050506040513d601f19601f820116820180604052508101906117609190613c64565b905090565b61176d611446565b73ffffffffffffffffffffffffffffffffffffffff163373ffffffffffffffffffffffffffffffffffffffff16146117d1576040517fea8e4eb500000000000000000000000000000000000000000000000000000000815260040160405180910390fd5b6117d96115df565b15611810576040517f6315bfbb00000000000000000000000000000000000000000000000000000000815260040160405180910390fd5b6301e13380426118209190613c91565b811115611859576040517f0c0a7be800000000000000000000000000000000000000000000000000000000815260040160405180910390fd5b806000819055507fa7b24c66dd3269a292a60b3facdbb8f3e7557d1e19e64d99e0d6ee7250be63ad8160405161188f91906130c8565b60405180910390a161189f611d63565b50565b60016020528160005260406000206020528060005260406000206000915091509054906101000a900473ffffffffffffffffffffffffffffffffffffffff1681565b60006118ee611c37565b63f23a6e6160e01b905095945050505050565b600080600061190e611e45565b925092509250909192565b60007f000000000000000000000000000000000000000000000000000000000000000073ffffffffffffffffffffffffffffffffffffffff168273ffffffffffffffffffffffffffffffffffffffff16036119775760019050611ba5565b6000806000611984611e45565b92509250925060008273ffffffffffffffffffffffffffffffffffffffff16636352211e836040518263ffffffff1660e01b81526004016119c591906130c8565b602060405180830381865afa1580156119e2573d6000803e3d6000fd5b505050506040513d601f19601f82011682018060405250810190611a069190613b49565b90508073ffffffffffffffffffffffffffffffffffffffff168673ffffffffffffffffffffffffffffffffffffffff1603611a48576001945050505050611ba5565b600260008273ffffffffffffffffffffffffffffffffffffffff1673ffffffffffffffffffffffffffffffffffffffff16815260200190815260200160002060008773ffffffffffffffffffffffffffffffffffffffff1673ffffffffffffffffffffffffffffffffffffffff16815260200190815260200160002060009054906101000a900460ff1615611ae4576001945050505050611ba5565b468414158015611b8a57507f000000000000000000000000000000000000000000000000000000000000000073ffffffffffffffffffffffffffffffffffffffff1663672657ca876040518263ffffffff1660e01b8152600401611b4891906130f2565b602060405180830381865afa158015611b65573d6000803e3d6000fd5b505050506040513d601f19601f82011682018060405250810190611b899190613cfc565b5b15611b9c576001945050505050611ba5565b60009450505050505b919050565b606060008573ffffffffffffffffffffffffffffffffffffffff16858585604051611bd6929190613ae4565b60006040518083038185875af1925050503d8060008114611c13576040519150601f19603f3d011682016040523d82523d6000602084013e611c18565b606091505b50809350819250505080611c2e57815160208301fd5b50949350505050565b600060016000611c45611446565b73ffffffffffffffffffffffffffffffffffffffff1673ffffffffffffffffffffffffffffffffffffffff168152602001908152602001600020600080357fffffffff00000000000000000000000000000000000000000000000000000000167bffffffffffffffffffffffffffffffffffffffffffffffffffffffff19167bffffffffffffffffffffffffffffffffffffffffffffffffffffffff1916815260200190815260200160002060009054906101000a900473ffffffffffffffffffffffffffffffffffffffff169050600073ffffffffffffffffffffffffffffffffffffffff168173ffffffffffffffffffffffffffffffffffffffff1614611d60576000611d56826000366125ca565b9050805160208201f35b50565b7f000000000000000000000000000000000000000000000000000000000000000073ffffffffffffffffffffffffffffffffffffffff163373ffffffffffffffffffffffffffffffffffffffff1614611e43577f000000000000000000000000000000000000000000000000000000000000000073ffffffffffffffffffffffffffffffffffffffff16630bd28e3b60006040518263ffffffff1660e01b8152600401611e109190613d29565b600060405180830381600087803b158015611e2a57600080fd5b505af1158015611e3e573d6000803e3d6000fd5b505050505b565b600080600080606067ffffffffffffffff811115611e6657611e65612d4e565b5b6040519080825280601f01601f191660200182016040528015611e985781602001600182028036833780820191505090505b50905060ad604d60208301303c80806020019051810190611eb99190613d82565b93509350935050909192565b6000806000611ed48585612653565b9150915060006004811115611eec57611eeb613dd5565b5b816004811115611eff57611efe613dd5565b5b148015611f3757508573ffffffffffffffffffffffffffffffffffffffff168273ffffffffffffffffffffffffffffffffffffffff16145b15611f4757600192505050612084565b6000808773ffffffffffffffffffffffffffffffffffffffff16631626ba7e60e01b8888604051602401611f7c929190613e04565b604051602081830303815290604052907bffffffffffffffffffffffffffffffffffffffffffffffffffffffff19166020820180517bffffffffffffffffffffffffffffffffffffffffffffffffffffffff8381831617835250505050604051611fe69190613e65565b600060405180830381855afa9150503d8060008114612021576040519150601f19603f3d011682016040523d82523d6000602084013e612026565b606091505b5091509150818015612039575060208151145b801561207d5750631626ba7e60e01b7bffffffffffffffffffffffffffffffffffffffffffffffffffffffff19168180602001905181019061207b9190613e91565b145b9450505050505b9392505050565b60006120b97f360894a13ba1a3210667c828492db98dca3e2076cc3735a920a3ca505d382bbc60001b6126a4565b60000160009054906101000a900473ffffffffffffffffffffffffffffffffffffffff16905090565b6120ea611446565b73ffffffffffffffffffffffffffffffffffffffff163373ffffffffffffffffffffffffffffffffffffffff161461214e576040517fea8e4eb500000000000000000000000000000000000000000000000000000000815260040160405180910390fd5b60007f000000000000000000000000000000000000000000000000000000000000000073ffffffffffffffffffffffffffffffffffffffff16631506fd4d836040518263ffffffff1660e01b81526004016121a991906130f2565b602060405180830381865afa1580156121c6573d6000803e3d6000fd5b505050506040513d601f19601f820116820180604052508101906121ea9190613cfc565b905080612223576040517fb57d5a5e00000000000000000000000000000000000000000000000000000000815260040160405180910390fd5b5050565b6122537f4910fdfa16fed3260ed0e7147f7cc6da11a60208b5b9406d12a635614ffd914360001b6126ae565b60000160009054906101000a900460ff161561227757612272836126b8565b612390565b8273ffffffffffffffffffffffffffffffffffffffff166352d1902d6040518163ffffffff1660e01b8152600401602060405180830381865afa9250505080156122df57506040513d601f19601f820116820180604052508101906122dc9190613e91565b60015b61231e576040517f08c379a000000000000000000000000000000000000000000000000000000000815260040161231590613f30565b60405180910390fd5b7f360894a13ba1a3210667c828492db98dca3e2076cc3735a920a3ca505d382bbc60001b8114612383576040517f08c379a000000000000000000000000000000000000000000000000000000000815260040161237a90613fc2565b60405180910390fd5b5061238f838383612771565b5b505050565b61239d61168f565b73ffffffffffffffffffffffffffffffffffffffff163373ffffffffffffffffffffffffffffffffffffffff161461240a576040517f08c379a00000000000000000000000000000000000000000000000000000000081526004016124019061402e565b60405180910390fd5b565b600080631626ba7e60e01b7bffffffffffffffffffffffffffffffffffffffffffffffffffffffff19163073ffffffffffffffffffffffffffffffffffffffff16631626ba7e61245b8661279d565b8780610140019061246c919061405d565b6040518463ffffffff1660e01b815260040161248a939291906140c0565b602060405180830381865afa1580156124a7573d6000803e3d6000fd5b505050506040513d601f19601f820116820180604052508101906124cb9190614107565b7bffffffffffffffffffffffffffffffffffffffffffffffffffffffff191614905080156124fd576000915050612503565b60019150505b92915050565b50565b600081146125a55760003373ffffffffffffffffffffffffffffffffffffffff16827fffffffffffffffffffffffffffffffffffffffffffffffffffffffffffffffff9060405161255c9061415a565b600060405180830381858888f193505050503d806000811461259a576040519150601f19603f3d011682016040523d82523d6000602084013e61259f565b606091505b50509050505b50565b606083156125b8578290506125c3565b6125c283836127cd565b5b9392505050565b606060008473ffffffffffffffffffffffffffffffffffffffff1684846040516125f5929190613ae4565b600060405180830381855afa9150503d8060008114612630576040519150601f19603f3d011682016040523d82523d6000602084013e612635565b606091505b5080935081925050508061264b57815160208301fd5b509392505050565b60008060418351036126945760008060006020860151925060408601519150606086015160001a90506126888782858561281d565b9450945050505061269d565b60006002915091505b9250929050565b6000819050919050565b6000819050919050565b6126c1816128ff565b612700576040517f08c379a00000000000000000000000000000000000000000000000000000000081526004016126f7906141e1565b60405180910390fd5b8061272d7f360894a13ba1a3210667c828492db98dca3e2076cc3735a920a3ca505d382bbc60001b6126a4565b60000160006101000a81548173ffffffffffffffffffffffffffffffffffffffff021916908373ffffffffffffffffffffffffffffffffffffffff16021790555050565b61277a83612922565b6000825111806127875750805b15612798576127968383612971565b505b505050565b6000816040516020016127b09190614279565b604051602081830303815290604052805190602001209050919050565b6000825111156127e05781518083602001fd5b806040517f08c379a000000000000000000000000000000000000000000000000000000000815260040161281491906142e3565b60405180910390fd5b6000807f7fffffffffffffffffffffffffffffff5d576e7357a4501ddfe92f46681b20a08360001c11156128585760006003915091506128f6565b60006001878787876040516000815260200160405260405161287d9493929190614321565b6020604051602081039080840390855afa15801561289f573d6000803e3d6000fd5b505050602060405103519050600073ffffffffffffffffffffffffffffffffffffffff168173ffffffffffffffffffffffffffffffffffffffff16036128ed576000600192509250506128f6565b80600092509250505b94509492505050565b6000808273ffffffffffffffffffffffffffffffffffffffff163b119050919050565b61292b816126b8565b8073ffffffffffffffffffffffffffffffffffffffff167fbc7cd75a20ee27fd9adebab32041f755214dbc6bffa90cc0225b39da2e5c2d3b60405160405180910390a250565b606061299683836040518060600160405280602781526020016143fd6027913961299e565b905092915050565b60606000808573ffffffffffffffffffffffffffffffffffffffff16856040516129c89190613e65565b600060405180830381855af49150503d8060008114612a03576040519150601f19603f3d011682016040523d82523d6000602084013e612a08565b606091505b5091509150612a1986838387612a24565b925050509392505050565b60608315612a86576000835103612a7e57612a3e856128ff565b612a7d576040517f08c379a0000000000000000000000000000000000000000000000000000000008152600401612a74906143b2565b60405180910390fd5b5b829050612a91565b612a9083836127cd565b5b949350505050565b6000604051905090565b600080fd5b600080fd5b60007fffffffff0000000000000000000000000000000000000000000000000000000082169050919050565b612ae281612aad565b8114612aed57600080fd5b50565b600081359050612aff81612ad9565b92915050565b600060208284031215612b1b57612b1a612aa3565b5b6000612b2984828501612af0565b91505092915050565b60008115159050919050565b612b4781612b32565b82525050565b6000602082019050612b626000830184612b3e565b92915050565b600080fd5b600080fd5b600080fd5b60008083601f840112612b8d57612b8c612b68565b5b8235905067ffffffffffffffff811115612baa57612ba9612b6d565b5b602083019150836020820283011115612bc657612bc5612b72565b5b9250929050565b60008083601f840112612be357612be2612b68565b5b8235905067ffffffffffffffff811115612c0057612bff612b6d565b5b602083019150836020820283011115612c1c57612c1b612b72565b5b9250929050565b60008060008060408587031215612c3d57612c3c612aa3565b5b600085013567ffffffffffffffff811115612c5b57612c5a612aa8565b5b612c6787828801612b77565b9450945050602085013567ffffffffffffffff811115612c8a57612c89612aa8565b5b612c9687828801612bcd565b925092505092959194509250565b600073ffffffffffffffffffffffffffffffffffffffff82169050919050565b6000612ccf82612ca4565b9050919050565b612cdf81612cc4565b8114612cea57600080fd5b50565b600081359050612cfc81612cd6565b92915050565b6000819050919050565b612d1581612d02565b8114612d2057600080fd5b50565b600081359050612d3281612d0c565b92915050565b600080fd5b6000601f19601f8301169050919050565b7f4e487b7100000000000000000000000000000000000000000000000000000000600052604160045260246000fd5b612d8682612d3d565b810181811067ffffffffffffffff82111715612da557612da4612d4e565b5b80604052505050565b6000612db8612a99565b9050612dc48282612d7d565b919050565b600067ffffffffffffffff821115612de457612de3612d4e565b5b612ded82612d3d565b9050602081019050919050565b82818337600083830152505050565b6000612e1c612e1784612dc9565b612dae565b905082815260208101848484011115612e3857612e37612d38565b5b612e43848285612dfa565b509392505050565b600082601f830112612e6057612e5f612b68565b5b8135612e70848260208601612e09565b91505092915050565b60008060008060808587031215612e9357612e92612aa3565b5b6000612ea187828801612ced565b9450506020612eb287828801612ced565b9350506040612ec387828801612d23565b925050606085013567ffffffffffffffff811115612ee457612ee3612aa8565b5b612ef087828801612e4b565b91505092959194509250565b612f0581612aad565b82525050565b6000602082019050612f206000830184612efc565b92915050565b6000819050919050565b612f3981612f26565b8114612f4457600080fd5b50565b600081359050612f5681612f30565b92915050565b60008060408385031215612f7357612f72612aa3565b5b6000612f8185828601612f47565b925050602083013567ffffffffffffffff811115612fa257612fa1612aa8565b5b612fae85828601612e4b565b9150509250929050565b60008060408385031215612fcf57612fce612aa3565b5b6000612fdd85828601612ced565b9250506020612fee85828601612ced565b9150509250929050565b60006020828403121561300e5761300d612aa3565b5b600061301c84828501612ced565b91505092915050565b600080fd5b6000610160828403121561304157613040613025565b5b81905092915050565b60008060006060848603121561306357613062612aa3565b5b600084013567ffffffffffffffff81111561308157613080612aa8565b5b61308d8682870161302a565b935050602061309e86828701612f47565b92505060406130af86828701612d23565b9150509250925092565b6130c281612d02565b82525050565b60006020820190506130dd60008301846130b9565b92915050565b6130ec81612cc4565b82525050565b600060208201905061310760008301846130e3565b92915050565b6000806040838503121561312457613123612aa3565b5b600061313285828601612ced565b925050602083013567ffffffffffffffff81111561315357613152612aa8565b5b61315f85828601612e4b565b9150509250929050565b61317281612f26565b82525050565b600060208201905061318d6000830184613169565b92915050565b60008083601f8401126131a9576131a8612b68565b5b8235905067ffffffffffffffff8111156131c6576131c5612b6d565b5b6020830191508360018202830111156131e2576131e1612b72565b5b9250929050565b6000806000806060858703121561320357613202612aa3565b5b600061321187828801612ced565b945050602061322287828801612d23565b935050604085013567ffffffffffffffff81111561324357613242612aa8565b5b61324f87828801613193565b925092505092959194509250565b60008083601f84011261327357613272612b68565b5b8235905067ffffffffffffffff8111156132905761328f612b6d565b5b6020830191508360208202830111156132ac576132ab612b72565b5b9250929050565b600080600080604085870312156132cd576132cc612aa3565b5b600085013567ffffffffffffffff8111156132eb576132ea612aa8565b5b6132f78782880161325d565b9450945050602085013567ffffffffffffffff81111561331a57613319612aa8565b5b61332687828801612b77565b925092505092959194509250565b600081519050919050565b600082825260208201905092915050565b60005b8381101561336e578082015181840152602081019050613353565b8381111561337d576000848401525b50505050565b600061338e82613334565b613398818561333f565b93506133a8818560208601613350565b6133b181612d3d565b840191505092915050565b600060208201905081810360008301526133d68184613383565b905092915050565b6000819050919050565b60006134036133fe6133f984612ca4565b6133de565b612ca4565b9050919050565b6000613415826133e8565b9050919050565b60006134278261340a565b9050919050565b6134378161341c565b82525050565b6000602082019050613452600083018461342e565b92915050565b600067ffffffffffffffff82111561347357613472612d4e565b5b602082029050602081019050919050565b600061349761349284613458565b612dae565b905080838252602082019050602084028301858111156134ba576134b9612b72565b5b835b818110156134e357806134cf8882612d23565b8452602084019350506020810190506134bc565b5050509392505050565b600082601f83011261350257613501612b68565b5b8135613512848260208601613484565b91505092915050565b600080600080600060a0868803121561353757613536612aa3565b5b600061354588828901612ced565b955050602061355688828901612ced565b945050604086013567ffffffffffffffff81111561357757613576612aa8565b5b613583888289016134ed565b935050606086013567ffffffffffffffff8111156135a4576135a3612aa8565b5b6135b0888289016134ed565b925050608086013567ffffffffffffffff8111156135d1576135d0612aa8565b5b6135dd88828901612e4b565b9150509295509295909350565b600060208284031215613600576135ff612aa3565b5b600061360e84828501612d23565b91505092915050565b6000806040838503121561362e5761362d612aa3565b5b600061363c85828601612ced565b925050602061364d85828601612af0565b9150509250929050565b600080600080600060a0868803121561367357613672612aa3565b5b600061368188828901612ced565b955050602061369288828901612ced565b94505060406136a388828901612d23565b93505060606136b488828901612d23565b925050608086013567ffffffffffffffff8111156136d5576136d4612aa8565b5b6136e188828901612e4b565b9150509295509295909350565b600060608201905061370360008301866130b9565b61371060208301856130e3565b61371d60408301846130b9565b949350505050565b7f4e487b7100000000000000000000000000000000000000000000000000000000600052603260045260246000fd5b61375d81612b32565b811461376857600080fd5b50565b60008135905061377a81613754565b92915050565b60006020828403121561379657613795612aa3565b5b60006137a48482850161376b565b91505092915050565b60006060820190506137c260008301866130e3565b6137cf60208301856130e3565b6137dc6040830184612b3e565b949350505050565b7f4e487b7100000000000000000000000000000000000000000000000000000000600052601160045260246000fd5b600061381e82612d02565b91507fffffffffffffffffffffffffffffffffffffffffffffffffffffffffffffffff82036138505761384f6137e4565b5b600182019050919050565b600082825260208201905092915050565b7f46756e6374696f6e206d7573742062652063616c6c6564207468726f7567682060008201527f64656c656761746563616c6c0000000000000000000000000000000000000000602082015250565b60006138c8602c8361385b565b91506138d38261386c565b604082019050919050565b600060208201905081810360008301526138f7816138bb565b9050919050565b7f46756e6374696f6e206d7573742062652063616c6c6564207468726f7567682060008201527f6163746976652070726f78790000000000000000000000000000000000000000602082015250565b600061395a602c8361385b565b9150613965826138fe565b604082019050919050565b600060208201905081810360008301526139898161394d565b9050919050565b7f555550535570677261646561626c653a206d757374206e6f742062652063616c60008201527f6c6564207468726f7567682064656c656761746563616c6c0000000000000000602082015250565b60006139ec60388361385b565b91506139f782613990565b604082019050919050565b60006020820190508181036000830152613a1b816139df565b9050919050565b7f536d61727457616c6c65743a204f6e6c7920656e747279506f696e742063616e60008201527f2063616c6c2074686973206d6574686f64000000000000000000000000000000602082015250565b6000613a7e60318361385b565b9150613a8982613a22565b604082019050919050565b60006020820190508181036000830152613aad81613a71565b9050919050565b600081905092915050565b6000613acb8385613ab4565b9350613ad8838584612dfa565b82840190509392505050565b6000613af1828486613abf565b91508190509392505050565b6000606082019050613b1260008301866130e3565b613b1f6020830185612efc565b613b2c60408301846130e3565b949350505050565b600081519050613b4381612cd6565b92915050565b600060208284031215613b5f57613b5e612aa3565b5b6000613b6d84828501613b34565b91505092915050565b6000613b82838561333f565b9350613b8f838584612dfa565b613b9883612d3d565b840190509392505050565b60006020820190508181036000830152613bbe818486613b76565b90509392505050565b6000819050919050565b600077ffffffffffffffffffffffffffffffffffffffffffffffff82169050919050565b6000613c10613c0b613c0684613bc7565b6133de565b613bd1565b9050919050565b613c2081613bf5565b82525050565b6000604082019050613c3b60008301856130e3565b613c486020830184613c17565b9392505050565b600081519050613c5e81612d0c565b92915050565b600060208284031215613c7a57613c79612aa3565b5b6000613c8884828501613c4f565b91505092915050565b6000613c9c82612d02565b9150613ca783612d02565b9250827fffffffffffffffffffffffffffffffffffffffffffffffffffffffffffffffff03821115613cdc57613cdb6137e4565b5b828201905092915050565b600081519050613cf681613754565b92915050565b600060208284031215613d1257613d11612aa3565b5b6000613d2084828501613ce7565b91505092915050565b6000602082019050613d3e6000830184613c17565b92915050565b6000613d4f82612ca4565b9050919050565b613d5f81613d44565b8114613d6a57600080fd5b50565b600081519050613d7c81613d56565b92915050565b600080600060608486031215613d9b57613d9a612aa3565b5b6000613da986828701613c4f565b9350506020613dba86828701613d6d565b9250506040613dcb86828701613c4f565b9150509250925092565b7f4e487b7100000000000000000000000000000000000000000000000000000000600052602160045260246000fd5b6000604082019050613e196000830185613169565b8181036020830152613e2b8184613383565b90509392505050565b6000613e3f82613334565b613e498185613ab4565b9350613e59818560208601613350565b80840191505092915050565b6000613e718284613e34565b915081905092915050565b600081519050613e8b81612f30565b92915050565b600060208284031215613ea757613ea6612aa3565b5b6000613eb584828501613e7c565b91505092915050565b7f45524331393637557067726164653a206e657720696d706c656d656e7461746960008201527f6f6e206973206e6f742055555053000000000000000000000000000000000000602082015250565b6000613f1a602e8361385b565b9150613f2582613ebe565b604082019050919050565b60006020820190508181036000830152613f4981613f0d565b9050919050565b7f45524331393637557067726164653a20756e737570706f727465642070726f7860008201527f6961626c65555549440000000000000000000000000000000000000000000000602082015250565b6000613fac60298361385b565b9150613fb782613f50565b604082019050919050565b60006020820190508181036000830152613fdb81613f9f565b9050919050565b7f6163636f756e743a206e6f742066726f6d20456e747279506f696e7400000000600082015250565b6000614018601c8361385b565b915061402382613fe2565b602082019050919050565b600060208201905081810360008301526140478161400b565b9050919050565b600080fd5b600080fd5b600080fd5b6000808335600160200384360303811261407a5761407961404e565b5b80840192508235915067ffffffffffffffff82111561409c5761409b614053565b5b6020830192506001820236038313156140b8576140b7614058565b5b509250929050565b60006040820190506140d56000830186613169565b81810360208301526140e8818486613b76565b9050949350505050565b60008151905061410181612ad9565b92915050565b60006020828403121561411d5761411c612aa3565b5b600061412b848285016140f2565b91505092915050565b50565b6000614144600083613ab4565b915061414f82614134565b600082019050919050565b600061416582614137565b9150819050919050565b7f455243313936373a206e657720696d706c656d656e746174696f6e206973206e60008201527f6f74206120636f6e747261637400000000000000000000000000000000000000602082015250565b60006141cb602d8361385b565b91506141d68261416f565b604082019050919050565b600060208201905081810360008301526141fa816141be565b9050919050565b600081905092915050565b7f19457468657265756d205369676e6564204d6573736167653a0a333200000000600082015250565b6000614242601c83614201565b915061424d8261420c565b601c82019050919050565b6000819050919050565b61427361426e82612f26565b614258565b82525050565b600061428482614235565b91506142908284614262565b60208201915081905092915050565b600081519050919050565b60006142b58261429f565b6142bf818561385b565b93506142cf818560208601613350565b6142d881612d3d565b840191505092915050565b600060208201905081810360008301526142fd81846142aa565b905092915050565b600060ff82169050919050565b61431b81614305565b82525050565b60006080820190506143366000830187613169565b6143436020830186614312565b6143506040830185613169565b61435d6060830184613169565b95945050505050565b7f416464726573733a2063616c6c20746f206e6f6e2d636f6e7472616374000000600082015250565b600061439c601d8361385b565b91506143a782614366565b602082019050919050565b600060208201905081810360008301526143cb8161438f565b905091905056fe536d61727457616c6c65743a2063616c6c20726576657274656420776974686f7574206d657373616765416464726573733a206c6f772d6c6576656c2064656c65676174652063616c6c206661696c6564a2646970667358221220878ea27c4881df6ee3c4412f70d846b6b558b4f1d7ad8ff730625b94eca0f13264736f6c634300080d0033",
  "devdoc": {
    "kind": "dev",
    "methods": {
      "entryPoint()": {
        "details": "Return the ERC-4337 entry point address"
      },
      "executeCall(address,uint256,bytes)": {
        "details": "executes a low-level call against an account if the caller is authorized to make calls"
      },
      "isAuthorized(address)": {
        "details": "Returns the authorization status for a given caller"
      },
      "isLocked()": {
        "details": "returns the current lock status of the account as a boolean"
      },
      "isValidSignature(bytes32,bytes)": {
        "details": "EIP-1271 signature validation. By default, only the owner of the account is permissioned to sign. This function can be overriden."
      },
      "lock(uint256)": {
        "details": "locks the account until a certain timestamp"
      },
      "nonce()": {
        "details": "Returns the current account nonce"
      },
      "onERC1155BatchReceived(address,address,uint256[],uint256[],bytes)": {
        "details": "Allows ERC-1155 token batches to be received. This function can be overriden."
      },
      "onERC1155Received(address,address,uint256,uint256,bytes)": {
        "details": "Allows ERC-1155 tokens to be received. This function can be overriden."
      },
      "onERC721Received(address,address,uint256,bytes)": {
        "details": "Allows ERC-721 tokens to be received so long as they do not cause an ownership cycle. This function can be overriden."
      },
      "owner()": {
        "details": "Returns the owner of the ERC-721 token which owns this account. By default, the owner of the token has full permissions on the account."
      },
      "proxiableUUID()": {
        "details": "Implementation of the ERC1822 {proxiableUUID} function. This returns the storage slot used by the implementation. It is used to validate the implementation's compatibility when performing an upgrade. IMPORTANT: A proxy pointing at a proxiable contract should not be considered proxiable itself, because this risks bricking a proxy that upgrades to it, by delegating to itself until out of gas. Thus it is critical that this function revert if invoked through a proxy. This is guaranteed by the `notDelegated` modifier."
      },
      "setOverrides(bytes4[],address[])": {
        "details": "sets the implementation address for a given function call"
      },
      "setPermissions(address[],bool[])": {
        "details": "grants a given caller execution permissions"
      },
      "supportsInterface(bytes4)": {
        "details": "Returns true if a given interfaceId is supported by this account. This method can be extended by an override."
      },
      "token()": {
        "details": "Returns the EIP-155 chain ID, token contract address, and token ID for the token that owns this account."
      },
      "upgradeTo(address)": {
        "details": "Upgrade the implementation of the proxy to `newImplementation`. Calls {_authorizeUpgrade}. Emits an {Upgraded} event."
      },
      "upgradeToAndCall(address,bytes)": {
        "details": "Upgrade the implementation of the proxy to `newImplementation`, and subsequently execute the function call encoded in `data`. Calls {_authorizeUpgrade}. Emits an {Upgraded} event."
      }
    },
    "stateVariables": {
      "_entryPoint": {
        "details": "ERC-4337 entry point address"
      },
      "guardian": {
        "details": "AccountGuardian contract address"
      },
      "lockedUntil": {
        "details": "timestamp at which this account will be unlocked"
      },
      "overrides": {
        "details": "mapping from owner => selector => implementation"
      },
      "permissions": {
        "details": "mapping from owner => caller => has permissions"
      }
    },
    "title": "A smart contract account owned by a single ERC721 token",
    "version": 1
  },
  "userdoc": {
    "kind": "user",
    "methods": {
      "getNonce()": {
        "notice": "Return the account nonce. This method returns the next sequential nonce. For a nonce of a specific key, use `entrypoint.getNonce(account, key)`"
      },
      "validateUserOp((address,uint256,bytes,bytes,uint256,uint256,uint256,uint256,uint256,bytes,bytes),bytes32,uint256)": {
        "notice": "Validate user's signature and nonce. subclass doesn't need to override this method. Instead, it should override the specific internal validation methods."
      }
    },
    "version": 1
  },
  "storageLayout": {
    "storage": [
      {
        "astId": 7095,
        "contract": "contracts/account/Account.sol:Account",
        "label": "lockedUntil",
        "offset": 0,
        "slot": "0",
        "type": "t_uint256"
      },
      {
        "astId": 7102,
        "contract": "contracts/account/Account.sol:Account",
        "label": "overrides",
        "offset": 0,
        "slot": "1",
        "type": "t_mapping(t_address,t_mapping(t_bytes4,t_address))"
      },
      {
        "astId": 7109,
        "contract": "contracts/account/Account.sol:Account",
        "label": "permissions",
        "offset": 0,
        "slot": "2",
        "type": "t_mapping(t_address,t_mapping(t_address,t_bool))"
      }
    ],
    "types": {
      "t_address": {
        "encoding": "inplace",
        "label": "address",
        "numberOfBytes": "20"
      },
      "t_bool": {
        "encoding": "inplace",
        "label": "bool",
        "numberOfBytes": "1"
      },
      "t_bytes4": {
        "encoding": "inplace",
        "label": "bytes4",
        "numberOfBytes": "4"
      },
      "t_mapping(t_address,t_bool)": {
        "encoding": "mapping",
        "key": "t_address",
        "label": "mapping(address => bool)",
        "numberOfBytes": "32",
        "value": "t_bool"
      },
      "t_mapping(t_address,t_mapping(t_address,t_bool))": {
        "encoding": "mapping",
        "key": "t_address",
        "label": "mapping(address => mapping(address => bool))",
        "numberOfBytes": "32",
        "value": "t_mapping(t_address,t_bool)"
      },
      "t_mapping(t_address,t_mapping(t_bytes4,t_address))": {
        "encoding": "mapping",
        "key": "t_address",
        "label": "mapping(address => mapping(bytes4 => address))",
        "numberOfBytes": "32",
        "value": "t_mapping(t_bytes4,t_address)"
      },
      "t_mapping(t_bytes4,t_address)": {
        "encoding": "mapping",
        "key": "t_bytes4",
        "label": "mapping(bytes4 => address)",
        "numberOfBytes": "32",
        "value": "t_address"
      },
      "t_uint256": {
        "encoding": "inplace",
        "label": "uint256",
        "numberOfBytes": "32"
      }
    }
  }
}