{
  "address": "0xb924aBd35C357a5f1E15BE9f8Ec0e6F1A6D6165f",
  "abi": [
    {
      "inputs": [],
      "stateMutability": "nonpayable",
      "type": "constructor"
    },
    {
      "anonymous": false,
      "inputs": [
        {
          "indexed": true,
          "internalType": "address",
          "name": "owner",
          "type": "address"
        },
        {
          "indexed": true,
          "internalType": "address",
          "name": "spender",
          "type": "address"
        },
        {
          "indexed": false,
          "internalType": "uint256",
          "name": "value",
          "type": "uint256"
        }
      ],
      "name": "Approval",
      "type": "event"
    },
    {
      "anonymous": false,
      "inputs": [
        {
          "indexed": true,
          "internalType": "address",
          "name": "facilitatorAddress",
          "type": "address"
        },
        {
          "indexed": true,
          "internalType": "bytes32",
          "name": "label",
          "type": "bytes32"
        },
        {
          "indexed": false,
          "internalType": "uint256",
          "name": "bucketCapacity",
          "type": "uint256"
        }
      ],
      "name": "FacilitatorAdded",
      "type": "event"
    },
    {
      "anonymous": false,
      "inputs": [
        {
          "indexed": true,
          "internalType": "address",
          "name": "facilitatorAddress",
          "type": "address"
        },
        {
          "indexed": false,
          "internalType": "uint256",
          "name": "oldCapacity",
          "type": "uint256"
        },
        {
          "indexed": false,
          "internalType": "uint256",
          "name": "newCapacity",
          "type": "uint256"
        }
      ],
      "name": "FacilitatorBucketCapacityUpdated",
      "type": "event"
    },
    {
      "anonymous": false,
      "inputs": [
        {
          "indexed": true,
          "internalType": "address",
          "name": "facilitatorAddress",
          "type": "address"
        },
        {
          "indexed": false,
          "internalType": "uint256",
          "name": "oldLevel",
          "type": "uint256"
        },
        {
          "indexed": false,
          "internalType": "uint256",
          "name": "newLevel",
          "type": "uint256"
        }
      ],
      "name": "FacilitatorBucketLevelUpdated",
      "type": "event"
    },
    {
      "anonymous": false,
      "inputs": [
        {
          "indexed": true,
          "internalType": "address",
          "name": "facilitatorAddress",
          "type": "address"
        }
      ],
      "name": "FacilitatorRemoved",
      "type": "event"
    },
    {
      "anonymous": false,
      "inputs": [
        {
          "indexed": true,
          "internalType": "address",
          "name": "previousOwner",
          "type": "address"
        },
        {
          "indexed": true,
          "internalType": "address",
          "name": "newOwner",
          "type": "address"
        }
      ],
      "name": "OwnershipTransferred",
      "type": "event"
    },
    {
      "anonymous": false,
      "inputs": [
        {
          "indexed": true,
          "internalType": "address",
          "name": "from",
          "type": "address"
        },
        {
          "indexed": true,
          "internalType": "address",
          "name": "to",
          "type": "address"
        },
        {
          "indexed": false,
          "internalType": "uint256",
          "name": "value",
          "type": "uint256"
        }
      ],
      "name": "Transfer",
      "type": "event"
    },
    {
      "inputs": [],
      "name": "DOMAIN_SEPARATOR",
      "outputs": [
        {
          "internalType": "bytes32",
          "name": "",
          "type": "bytes32"
        }
      ],
      "stateMutability": "view",
      "type": "function"
    },
    {
      "inputs": [],
      "name": "PERMIT_TYPEHASH",
      "outputs": [
        {
          "internalType": "bytes32",
          "name": "",
          "type": "bytes32"
        }
      ],
      "stateMutability": "view",
      "type": "function"
    },
    {
      "inputs": [
        {
          "internalType": "address",
          "name": "facilitatorAddress",
          "type": "address"
        },
        {
          "internalType": "string",
          "name": "facilitatorLabel",
          "type": "string"
        },
        {
          "internalType": "uint128",
          "name": "bucketCapacity",
          "type": "uint128"
        }
      ],
      "name": "addFacilitator",
      "outputs": [],
      "stateMutability": "nonpayable",
      "type": "function"
    },
    {
      "inputs": [
        {
          "internalType": "address",
          "name": "",
          "type": "address"
        },
        {
          "internalType": "address",
          "name": "",
          "type": "address"
        }
      ],
      "name": "allowance",
      "outputs": [
        {
          "internalType": "uint256",
          "name": "",
          "type": "uint256"
        }
      ],
      "stateMutability": "view",
      "type": "function"
    },
    {
      "inputs": [
        {
          "internalType": "address",
          "name": "spender",
          "type": "address"
        },
        {
          "internalType": "uint256",
          "name": "amount",
          "type": "uint256"
        }
      ],
      "name": "approve",
      "outputs": [
        {
          "internalType": "bool",
          "name": "",
          "type": "bool"
        }
      ],
      "stateMutability": "nonpayable",
      "type": "function"
    },
    {
      "inputs": [
        {
          "internalType": "address",
          "name": "",
          "type": "address"
        }
      ],
      "name": "balanceOf",
      "outputs": [
        {
          "internalType": "uint256",
          "name": "",
          "type": "uint256"
        }
      ],
      "stateMutability": "view",
      "type": "function"
    },
    {
      "inputs": [
        {
          "internalType": "uint256",
          "name": "amount",
          "type": "uint256"
        }
      ],
      "name": "burn",
      "outputs": [],
      "stateMutability": "nonpayable",
      "type": "function"
    },
    {
      "inputs": [],
      "name": "decimals",
      "outputs": [
        {
          "internalType": "uint8",
          "name": "",
          "type": "uint8"
        }
      ],
      "stateMutability": "view",
      "type": "function"
    },
    {
      "inputs": [
        {
          "internalType": "address",
          "name": "facilitator",
          "type": "address"
        }
      ],
      "name": "getFacilitator",
      "outputs": [
        {
          "components": [
            {
              "internalType": "uint128",
              "name": "bucketCapacity",
              "type": "uint128"
            },
            {
              "internalType": "uint128",
              "name": "bucketLevel",
              "type": "uint128"
            },
            {
              "internalType": "string",
              "name": "label",
              "type": "string"
            }
          ],
          "internalType": "struct IGhoToken.Facilitator",
          "name": "",
          "type": "tuple"
        }
      ],
      "stateMutability": "view",
      "type": "function"
    },
    {
      "inputs": [
        {
          "internalType": "address",
          "name": "facilitator",
          "type": "address"
        }
      ],
      "name": "getFacilitatorBucket",
      "outputs": [
        {
          "internalType": "uint256",
          "name": "",
          "type": "uint256"
        },
        {
          "internalType": "uint256",
          "name": "",
          "type": "uint256"
        }
      ],
      "stateMutability": "view",
      "type": "function"
    },
    {
      "inputs": [],
      "name": "getFacilitatorsList",
      "outputs": [
        {
          "internalType": "address[]",
          "name": "",
          "type": "address[]"
        }
      ],
      "stateMutability": "view",
      "type": "function"
    },
    {
      "inputs": [
        {
          "internalType": "address",
          "name": "account",
          "type": "address"
        },
        {
          "internalType": "uint256",
          "name": "amount",
          "type": "uint256"
        }
      ],
      "name": "mint",
      "outputs": [],
      "stateMutability": "nonpayable",
      "type": "function"
    },
    {
      "inputs": [],
      "name": "name",
      "outputs": [
        {
          "internalType": "string",
          "name": "",
          "type": "string"
        }
      ],
      "stateMutability": "view",
      "type": "function"
    },
    {
      "inputs": [
        {
          "internalType": "address",
          "name": "",
          "type": "address"
        }
      ],
      "name": "nonces",
      "outputs": [
        {
          "internalType": "uint256",
          "name": "",
          "type": "uint256"
        }
      ],
      "stateMutability": "view",
      "type": "function"
    },
    {
      "inputs": [],
      "name": "owner",
      "outputs": [
        {
          "internalType": "address",
          "name": "",
          "type": "address"
        }
      ],
      "stateMutability": "view",
      "type": "function"
    },
    {
      "inputs": [
        {
          "internalType": "address",
          "name": "owner",
          "type": "address"
        },
        {
          "internalType": "address",
          "name": "spender",
          "type": "address"
        },
        {
          "internalType": "uint256",
          "name": "value",
          "type": "uint256"
        },
        {
          "internalType": "uint256",
          "name": "deadline",
          "type": "uint256"
        },
        {
          "internalType": "uint8",
          "name": "v",
          "type": "uint8"
        },
        {
          "internalType": "bytes32",
          "name": "r",
          "type": "bytes32"
        },
        {
          "internalType": "bytes32",
          "name": "s",
          "type": "bytes32"
        }
      ],
      "name": "permit",
      "outputs": [],
      "stateMutability": "nonpayable",
      "type": "function"
    },
    {
      "inputs": [
        {
          "internalType": "address",
          "name": "facilitatorAddress",
          "type": "address"
        }
      ],
      "name": "removeFacilitator",
      "outputs": [],
      "stateMutability": "nonpayable",
      "type": "function"
    },
    {
      "inputs": [],
      "name": "renounceOwnership",
      "outputs": [],
      "stateMutability": "nonpayable",
      "type": "function"
    },
    {
      "inputs": [
        {
          "internalType": "address",
          "name": "facilitator",
          "type": "address"
        },
        {
          "internalType": "uint128",
          "name": "newCapacity",
          "type": "uint128"
        }
      ],
      "name": "setFacilitatorBucketCapacity",
      "outputs": [],
      "stateMutability": "nonpayable",
      "type": "function"
    },
    {
      "inputs": [],
      "name": "symbol",
      "outputs": [
        {
          "internalType": "string",
          "name": "",
          "type": "string"
        }
      ],
      "stateMutability": "view",
      "type": "function"
    },
    {
      "inputs": [],
      "name": "totalSupply",
      "outputs": [
        {
          "internalType": "uint256",
          "name": "",
          "type": "uint256"
        }
      ],
      "stateMutability": "view",
      "type": "function"
    },
    {
      "inputs": [
        {
          "internalType": "address",
          "name": "to",
          "type": "address"
        },
        {
          "internalType": "uint256",
          "name": "amount",
          "type": "uint256"
        }
      ],
      "name": "transfer",
      "outputs": [
        {
          "internalType": "bool",
          "name": "",
          "type": "bool"
        }
      ],
      "stateMutability": "nonpayable",
      "type": "function"
    },
    {
      "inputs": [
        {
          "internalType": "address",
          "name": "from",
          "type": "address"
        },
        {
          "internalType": "address",
          "name": "to",
          "type": "address"
        },
        {
          "internalType": "uint256",
          "name": "amount",
          "type": "uint256"
        }
      ],
      "name": "transferFrom",
      "outputs": [
        {
          "internalType": "bool",
          "name": "",
          "type": "bool"
        }
      ],
      "stateMutability": "nonpayable",
      "type": "function"
    },
    {
      "inputs": [
        {
          "internalType": "address",
          "name": "newOwner",
          "type": "address"
        }
      ],
      "name": "transferOwnership",
      "outputs": [],
      "stateMutability": "nonpayable",
      "type": "function"
    }
  ],
  "transactionHash": "0x0a77781859ef0b44a4b09c8080ab0a9d1fca1a2befddc5d95567d6157a8aba2a",
  "args": [],
  "numDeployments": 2,
  "solcInputHash": "f70961aa2205e5141e4dcdd03ebc0c83",
  "bytecode": "0x60e06040523480156200001157600080fd5b506040518060400160405280600981526020017f47686f20546f6b656e00000000000000000000000000000000000000000000008152506040518060400160405280600381526020017f47484f0000000000000000000000000000000000000000000000000000000000815250601282600090805190602001906200009892919062000357565b508160019080519060200190620000b192919062000357565b508060ff1660808160ff16815250504660a08181525050620000d86200012560201b60201c565b60c0818152505050505062000102620000f6620001b560201b60201c565b620001bd60201b60201c565b6200011f336a52b7d2dcc80cd2e40000006200028360201b60201c565b620006b0565b60007f8b73c3c69bb8fe3d512ecc4cf759cc79239f7b179b0ffacaa9a75d522b39400f600060405162000159919062000516565b60405180910390207fc89efdaa54c0f20c7adf612882df0950f5a951637e0307cdcb4c672f298b8bc646306040516020016200019a959493929190620005aa565b60405160208183030381529060405280519060200120905090565b600033905090565b6000600660009054906101000a900473ffffffffffffffffffffffffffffffffffffffff16905081600660006101000a81548173ffffffffffffffffffffffffffffffffffffffff021916908373ffffffffffffffffffffffffffffffffffffffff1602179055508173ffffffffffffffffffffffffffffffffffffffff168173ffffffffffffffffffffffffffffffffffffffff167f8be0079c531659141344cd1fd0a4f28419497f9722a3daafe3b4186f6b6457e060405160405180910390a35050565b806002600082825462000297919062000636565b9250508190555080600360008473ffffffffffffffffffffffffffffffffffffffff1673ffffffffffffffffffffffffffffffffffffffff168152602001908152602001600020600082825401925050819055508173ffffffffffffffffffffffffffffffffffffffff16600073ffffffffffffffffffffffffffffffffffffffff167fddf252ad1be2c89b69c2b068fc378daa952ba7f163c4a11628f55a4df523b3ef836040516200034b919062000693565b60405180910390a35050565b828054620003659062000436565b90600052602060002090601f016020900481019282620003895760008555620003d5565b82601f10620003a457805160ff1916838001178555620003d5565b82800160010185558215620003d5579182015b82811115620003d4578251825591602001919060010190620003b7565b5b509050620003e49190620003e8565b5090565b5b8082111562000403576000816000905550600101620003e9565b5090565b7f4e487b7100000000000000000000000000000000000000000000000000000000600052602260045260246000fd5b600060028204905060018216806200044f57607f821691505b60208210810362000465576200046462000407565b5b50919050565b600081905092915050565b60008190508160005260206000209050919050565b600081546200049a8162000436565b620004a681866200046b565b94506001821660008114620004c45760018114620004d6576200050d565b60ff198316865281860193506200050d565b620004e18562000476565b60005b838110156200050557815481890152600182019150602081019050620004e4565b838801955050505b50505092915050565b60006200052482846200048b565b915081905092915050565b6000819050919050565b62000544816200052f565b82525050565b6000819050919050565b6200055f816200054a565b82525050565b600073ffffffffffffffffffffffffffffffffffffffff82169050919050565b6000620005928262000565565b9050919050565b620005a48162000585565b82525050565b600060a082019050620005c1600083018862000539565b620005d0602083018762000539565b620005df604083018662000539565b620005ee606083018562000554565b620005fd608083018462000599565b9695505050505050565b7f4e487b7100000000000000000000000000000000000000000000000000000000600052601160045260246000fd5b600062000643826200054a565b915062000650836200054a565b9250827fffffffffffffffffffffffffffffffffffffffffffffffffffffffffffffffff0382111562000688576200068762000607565b5b828201905092915050565b6000602082019050620006aa600083018462000554565b92915050565b60805160a05160c051613334620006e060003960006108fd015260006108c9015260006108a301526133346000f3fe608060405234801561001057600080fd5b50600436106101585760003560e01c80637ecebe00116100c3578063aa02f94a1161007c578063aa02f94a146103b7578063af93df57146103e8578063d46ec0ed14610404578063d505accf14610434578063dd62ed3e14610450578063f2fde38b1461048057610158565b80637ecebe00146102e35780637fc24def146103135780638da5cb5b1461032f57806395d89b411461034d578063a11812ba1461036b578063a9059cbb1461038757610158565b8063313ce56711610115578063313ce567146102355780633644e5151461025357806340c10f191461027157806342966c681461028d57806370a08231146102a9578063715018a6146102d957610158565b806306fdde031461015d578063095ea7b31461017b57806318160ddd146101ab5780631ec90f2e146101c957806323b872dd146101e757806330adf81f14610217575b600080fd5b61016561049c565b6040516101729190612236565b60405180910390f35b610195600480360381019061019091906122f6565b61052a565b6040516101a29190612351565b60405180910390f35b6101b361061c565b6040516101c0919061237b565b60405180910390f35b6101d1610622565b6040516101de9190612454565b60405180910390f35b61020160048036038101906101fc9190612476565b610633565b60405161020e9190612351565b60405180910390f35b61021f61087d565b60405161022c91906124e2565b60405180910390f35b61023d6108a1565b60405161024a9190612519565b60405180910390f35b61025b6108c5565b60405161026891906124e2565b60405180910390f35b61028b600480360381019061028691906122f6565b610922565b005b6102a760048036038101906102a29190612534565b610b06565b005b6102c360048036038101906102be9190612561565b610c6e565b6040516102d0919061237b565b60405180910390f35b6102e1610c86565b005b6102fd60048036038101906102f89190612561565b610c9a565b60405161030a919061237b565b60405180910390f35b61032d6004803603810190610328919061263b565b610cb2565b005b610337610e78565b60405161034491906126be565b60405180910390f35b610355610ea2565b6040516103629190612236565b60405180910390f35b61038560048036038101906103809190612561565b610f30565b005b6103a1600480360381019061039c91906122f6565b61116f565b6040516103ae9190612351565b60405180910390f35b6103d160048036038101906103cc9190612561565b611283565b6040516103df9291906126d9565b60405180910390f35b61040260048036038101906103fd9190612702565b611377565b005b61041e60048036038101906104199190612561565b611553565b60405161042b91906127eb565b60405180910390f35b61044e60048036038101906104499190612865565b6116d2565b005b61046a60048036038101906104659190612907565b6119d1565b604051610477919061237b565b60405180910390f35b61049a60048036038101906104959190612561565b6119f6565b005b600080546104a990612976565b80601f01602080910402602001604051908101604052809291908181526020018280546104d590612976565b80156105225780601f106104f757610100808354040283529160200191610522565b820191906000526020600020905b81548152906001019060200180831161050557829003601f168201915b505050505081565b600081600460003373ffffffffffffffffffffffffffffffffffffffff1673ffffffffffffffffffffffffffffffffffffffff16815260200190815260200160002060008573ffffffffffffffffffffffffffffffffffffffff1673ffffffffffffffffffffffffffffffffffffffff168152602001908152602001600020819055508273ffffffffffffffffffffffffffffffffffffffff163373ffffffffffffffffffffffffffffffffffffffff167f8c5be1e5ebec7d5bd14f71427d1e84f3dd0314c0f7b2291e5b200ac8c7c3b9258460405161060a919061237b565b60405180910390a36001905092915050565b60025481565b606061062e6008611a79565b905090565b600080600460008673ffffffffffffffffffffffffffffffffffffffff1673ffffffffffffffffffffffffffffffffffffffff16815260200190815260200160002060003373ffffffffffffffffffffffffffffffffffffffff1673ffffffffffffffffffffffffffffffffffffffff1681526020019081526020016000205490507fffffffffffffffffffffffffffffffffffffffffffffffffffffffffffffffff81146107695782816106e891906129d6565b600460008773ffffffffffffffffffffffffffffffffffffffff1673ffffffffffffffffffffffffffffffffffffffff16815260200190815260200160002060003373ffffffffffffffffffffffffffffffffffffffff1673ffffffffffffffffffffffffffffffffffffffff168152602001908152602001600020819055505b82600360008773ffffffffffffffffffffffffffffffffffffffff1673ffffffffffffffffffffffffffffffffffffffff16815260200190815260200160002060008282546107b891906129d6565b9250508190555082600360008673ffffffffffffffffffffffffffffffffffffffff1673ffffffffffffffffffffffffffffffffffffffff168152602001908152602001600020600082825401925050819055508373ffffffffffffffffffffffffffffffffffffffff168573ffffffffffffffffffffffffffffffffffffffff167fddf252ad1be2c89b69c2b068fc378daa952ba7f163c4a11628f55a4df523b3ef85604051610869919061237b565b60405180910390a360019150509392505050565b7f6e71edae12b1b97f4d1f60370fef10105fa2faae0126114a169c64845d6126c981565b7f000000000000000000000000000000000000000000000000000000000000000081565b60007f000000000000000000000000000000000000000000000000000000000000000046146108fb576108f6611a9a565b61091d565b7f00000000000000000000000000000000000000000000000000000000000000005b905090565b6000600760003373ffffffffffffffffffffffffffffffffffffffff1673ffffffffffffffffffffffffffffffffffffffff168152602001908152602001600020905060008160000160009054906101000a90046fffffffffffffffffffffffffffffffff166fffffffffffffffffffffffffffffffff169050600081116109df576040517f08c379a00000000000000000000000000000000000000000000000000000000081526004016109d690612a56565b60405180910390fd5b60008260000160109054906101000a90046fffffffffffffffffffffffffffffffff166fffffffffffffffffffffffffffffffff16905060008482610a249190612a76565b905080831015610a69576040517f08c379a0000000000000000000000000000000000000000000000000000000008152600401610a6090612b3e565b60405180910390fd5b808460000160106101000a8154816fffffffffffffffffffffffffffffffff02191690836fffffffffffffffffffffffffffffffff160217905550610aae8686611b26565b3373ffffffffffffffffffffffffffffffffffffffff167facb6de9209e4f34974cb165eef5738f0cf0b4ea9819ef30d30f0f7d81272ab828383604051610af69291906126d9565b60405180910390a2505050505050565b60008103610b49576040517f08c379a0000000000000000000000000000000000000000000000000000000008152600401610b4090612baa565b60405180910390fd5b6000600760003373ffffffffffffffffffffffffffffffffffffffff1673ffffffffffffffffffffffffffffffffffffffff168152602001908152602001600020905060008160000160109054906101000a90046fffffffffffffffffffffffffffffffff166fffffffffffffffffffffffffffffffff16905060008382610bd191906129d6565b9050808360000160106101000a8154816fffffffffffffffffffffffffffffffff02191690836fffffffffffffffffffffffffffffffff160217905550610c183385611bf6565b3373ffffffffffffffffffffffffffffffffffffffff167facb6de9209e4f34974cb165eef5738f0cf0b4ea9819ef30d30f0f7d81272ab828383604051610c609291906126d9565b60405180910390a250505050565b60036020528060005260406000206000915090505481565b610c8e611cc6565b610c986000611d44565b565b60056020528060005260406000206000915090505481565b610cba611cc6565b6000600760008673ffffffffffffffffffffffffffffffffffffffff1673ffffffffffffffffffffffffffffffffffffffff16815260200190815260200160002090506000816001018054610d0e90612976565b905014610d50576040517f08c379a0000000000000000000000000000000000000000000000000000000008152600401610d4790612c16565b60405180910390fd5b60008484905011610d96576040517f08c379a0000000000000000000000000000000000000000000000000000000008152600401610d8d90612c82565b60405180910390fd5b8383826001019190610da9929190612075565b50818160000160006101000a8154816fffffffffffffffffffffffffffffffff02191690836fffffffffffffffffffffffffffffffff160217905550610df9856008611e0a90919063ffffffff16565b508383604051602001610e0d929190612ce1565b604051602081830303815290604052805190602001208573ffffffffffffffffffffffffffffffffffffffff167fdabd62626ada7b13e299389e94d768b294e5e24285ed2ffa1e5cd447c99c54ad84604051610e699190612d35565b60405180910390a35050505050565b6000600660009054906101000a900473ffffffffffffffffffffffffffffffffffffffff16905090565b60018054610eaf90612976565b80601f0160208091040260200160405190810160405280929190818152602001828054610edb90612976565b8015610f285780601f10610efd57610100808354040283529160200191610f28565b820191906000526020600020905b815481529060010190602001808311610f0b57829003601f168201915b505050505081565b610f38611cc6565b6000600760008373ffffffffffffffffffffffffffffffffffffffff1673ffffffffffffffffffffffffffffffffffffffff1681526020019081526020016000206001018054610f8790612976565b905011610fc9576040517f08c379a0000000000000000000000000000000000000000000000000000000008152600401610fc090612d9c565b60405180910390fd5b6000600760008373ffffffffffffffffffffffffffffffffffffffff1673ffffffffffffffffffffffffffffffffffffffff16815260200190815260200160002060000160109054906101000a90046fffffffffffffffffffffffffffffffff166fffffffffffffffffffffffffffffffff161461107c576040517f08c379a000000000000000000000000000000000000000000000000000000000815260040161107390612e2e565b60405180910390fd5b600760008273ffffffffffffffffffffffffffffffffffffffff1673ffffffffffffffffffffffffffffffffffffffff168152602001908152602001600020600080820160006101000a8154906fffffffffffffffffffffffffffffffff02191690556000820160106101000a8154906fffffffffffffffffffffffffffffffff021916905560018201600061111291906120fb565b5050611128816008611e3a90919063ffffffff16565b508073ffffffffffffffffffffffffffffffffffffffff167fa8fe5b89f35f2ebd6f3f95a7ef215f4bd89179e10c101073ae76cffad14734cf60405160405180910390a250565b600081600360003373ffffffffffffffffffffffffffffffffffffffff1673ffffffffffffffffffffffffffffffffffffffff16815260200190815260200160002060008282546111c091906129d6565b9250508190555081600360008573ffffffffffffffffffffffffffffffffffffffff1673ffffffffffffffffffffffffffffffffffffffff168152602001908152602001600020600082825401925050819055508273ffffffffffffffffffffffffffffffffffffffff163373ffffffffffffffffffffffffffffffffffffffff167fddf252ad1be2c89b69c2b068fc378daa952ba7f163c4a11628f55a4df523b3ef84604051611271919061237b565b60405180910390a36001905092915050565b600080600760008473ffffffffffffffffffffffffffffffffffffffff1673ffffffffffffffffffffffffffffffffffffffff16815260200190815260200160002060000160009054906101000a90046fffffffffffffffffffffffffffffffff16600760008573ffffffffffffffffffffffffffffffffffffffff1673ffffffffffffffffffffffffffffffffffffffff16815260200190815260200160002060000160109054906101000a90046fffffffffffffffffffffffffffffffff16816fffffffffffffffffffffffffffffffff169150806fffffffffffffffffffffffffffffffff16905091509150915091565b61137f611cc6565b6000600760008473ffffffffffffffffffffffffffffffffffffffff1673ffffffffffffffffffffffffffffffffffffffff16815260200190815260200160002060010180546113ce90612976565b905011611410576040517f08c379a000000000000000000000000000000000000000000000000000000000815260040161140790612d9c565b60405180910390fd5b6000600760008473ffffffffffffffffffffffffffffffffffffffff1673ffffffffffffffffffffffffffffffffffffffff16815260200190815260200160002060000160009054906101000a90046fffffffffffffffffffffffffffffffff166fffffffffffffffffffffffffffffffff16905081600760008573ffffffffffffffffffffffffffffffffffffffff1673ffffffffffffffffffffffffffffffffffffffff16815260200190815260200160002060000160006101000a8154816fffffffffffffffffffffffffffffffff02191690836fffffffffffffffffffffffffffffffff1602179055508273ffffffffffffffffffffffffffffffffffffffff167fc795c0a4927c3b6645e4e49a5a519af936b3c1c0e4c323a3f7251063f3f4bb0e8284604051611546929190612e4e565b60405180910390a2505050565b61155b61213b565b600760008373ffffffffffffffffffffffffffffffffffffffff1673ffffffffffffffffffffffffffffffffffffffff1681526020019081526020016000206040518060600160405290816000820160009054906101000a90046fffffffffffffffffffffffffffffffff166fffffffffffffffffffffffffffffffff166fffffffffffffffffffffffffffffffff1681526020016000820160109054906101000a90046fffffffffffffffffffffffffffffffff166fffffffffffffffffffffffffffffffff166fffffffffffffffffffffffffffffffff16815260200160018201805461164990612976565b80601f016020809104026020016040519081016040528092919081815260200182805461167590612976565b80156116c25780601f10611697576101008083540402835291602001916116c2565b820191906000526020600020905b8154815290600101906020018083116116a557829003601f168201915b5050505050815250509050919050565b42841015611715576040517f08c379a000000000000000000000000000000000000000000000000000000000815260040161170c90612ec3565b60405180910390fd5b600061171f6108c5565b7f6e71edae12b1b97f4d1f60370fef10105fa2faae0126114a169c64845d6126c9898989600560008e73ffffffffffffffffffffffffffffffffffffffff1673ffffffffffffffffffffffffffffffffffffffff1681526020019081526020016000206000815480929190600101919050558a6040516020016117a796959493929190612ee3565b604051602081830303815290604052805190602001206040516020016117ce929190612fb1565b60405160208183030381529060405280519060200120905060006001828686866040516000815260200160405260405161180b9493929190612fe8565b6020604051602081039080840390855afa15801561182d573d6000803e3d6000fd5b505050602060405103519050600073ffffffffffffffffffffffffffffffffffffffff168173ffffffffffffffffffffffffffffffffffffffff16141580156118a157508873ffffffffffffffffffffffffffffffffffffffff168173ffffffffffffffffffffffffffffffffffffffff16145b6118e0576040517f08c379a00000000000000000000000000000000000000000000000000000000081526004016118d790613079565b60405180910390fd5b86600460008373ffffffffffffffffffffffffffffffffffffffff1673ffffffffffffffffffffffffffffffffffffffff16815260200190815260200160002060008a73ffffffffffffffffffffffffffffffffffffffff1673ffffffffffffffffffffffffffffffffffffffff1681526020019081526020016000208190555050508573ffffffffffffffffffffffffffffffffffffffff168773ffffffffffffffffffffffffffffffffffffffff167f8c5be1e5ebec7d5bd14f71427d1e84f3dd0314c0f7b2291e5b200ac8c7c3b925876040516119c0919061237b565b60405180910390a350505050505050565b6004602052816000526040600020602052806000526040600020600091509150505481565b6119fe611cc6565b600073ffffffffffffffffffffffffffffffffffffffff168173ffffffffffffffffffffffffffffffffffffffff1603611a6d576040517f08c379a0000000000000000000000000000000000000000000000000000000008152600401611a649061310b565b60405180910390fd5b611a7681611d44565b50565b60606000611a8983600001611e6a565b905060608190508092505050919050565b60007f8b73c3c69bb8fe3d512ecc4cf759cc79239f7b179b0ffacaa9a75d522b39400f6000604051611acc91906131ca565b60405180910390207fc89efdaa54c0f20c7adf612882df0950f5a951637e0307cdcb4c672f298b8bc64630604051602001611b0b9594939291906131e1565b60405160208183030381529060405280519060200120905090565b8060026000828254611b389190612a76565b9250508190555080600360008473ffffffffffffffffffffffffffffffffffffffff1673ffffffffffffffffffffffffffffffffffffffff168152602001908152602001600020600082825401925050819055508173ffffffffffffffffffffffffffffffffffffffff16600073ffffffffffffffffffffffffffffffffffffffff167fddf252ad1be2c89b69c2b068fc378daa952ba7f163c4a11628f55a4df523b3ef83604051611bea919061237b565b60405180910390a35050565b80600360008473ffffffffffffffffffffffffffffffffffffffff1673ffffffffffffffffffffffffffffffffffffffff1681526020019081526020016000206000828254611c4591906129d6565b9250508190555080600260008282540392505081905550600073ffffffffffffffffffffffffffffffffffffffff168273ffffffffffffffffffffffffffffffffffffffff167fddf252ad1be2c89b69c2b068fc378daa952ba7f163c4a11628f55a4df523b3ef83604051611cba919061237b565b60405180910390a35050565b611cce611ec6565b73ffffffffffffffffffffffffffffffffffffffff16611cec610e78565b73ffffffffffffffffffffffffffffffffffffffff1614611d42576040517f08c379a0000000000000000000000000000000000000000000000000000000008152600401611d3990613280565b60405180910390fd5b565b6000600660009054906101000a900473ffffffffffffffffffffffffffffffffffffffff16905081600660006101000a81548173ffffffffffffffffffffffffffffffffffffffff021916908373ffffffffffffffffffffffffffffffffffffffff1602179055508173ffffffffffffffffffffffffffffffffffffffff168173ffffffffffffffffffffffffffffffffffffffff167f8be0079c531659141344cd1fd0a4f28419497f9722a3daafe3b4186f6b6457e060405160405180910390a35050565b6000611e32836000018373ffffffffffffffffffffffffffffffffffffffff1660001b611ece565b905092915050565b6000611e62836000018373ffffffffffffffffffffffffffffffffffffffff1660001b611f3e565b905092915050565b606081600001805480602002602001604051908101604052809291908181526020018280548015611eba57602002820191906000526020600020905b815481526020019060010190808311611ea6575b50505050509050919050565b600033905090565b6000611eda8383612052565b611f33578260000182908060018154018082558091505060019003906000526020600020016000909190919091505582600001805490508360010160008481526020019081526020016000208190555060019050611f38565b600090505b92915050565b60008083600101600084815260200190815260200160002054905060008114612046576000600182611f7091906129d6565b9050600060018660000180549050611f8891906129d6565b9050818114611ff7576000866000018281548110611fa957611fa86132a0565b5b9060005260206000200154905080876000018481548110611fcd57611fcc6132a0565b5b90600052602060002001819055508387600101600083815260200190815260200160002081905550505b8560000180548061200b5761200a6132cf565b5b60019003818190600052602060002001600090559055856001016000868152602001908152602001600020600090556001935050505061204c565b60009150505b92915050565b600080836001016000848152602001908152602001600020541415905092915050565b82805461208190612976565b90600052602060002090601f0160209004810192826120a357600085556120ea565b82601f106120bc57803560ff19168380011785556120ea565b828001600101855582156120ea579182015b828111156120e95782358255916020019190600101906120ce565b5b5090506120f79190612180565b5090565b50805461210790612976565b6000825580601f106121195750612138565b601f0160209004906000526020600020908101906121379190612180565b5b50565b604051806060016040528060006fffffffffffffffffffffffffffffffff16815260200160006fffffffffffffffffffffffffffffffff168152602001606081525090565b5b80821115612199576000816000905550600101612181565b5090565b600081519050919050565b600082825260208201905092915050565b60005b838110156121d75780820151818401526020810190506121bc565b838111156121e6576000848401525b50505050565b6000601f19601f8301169050919050565b60006122088261219d565b61221281856121a8565b93506122228185602086016121b9565b61222b816121ec565b840191505092915050565b6000602082019050818103600083015261225081846121fd565b905092915050565b600080fd5b600080fd5b600073ffffffffffffffffffffffffffffffffffffffff82169050919050565b600061228d82612262565b9050919050565b61229d81612282565b81146122a857600080fd5b50565b6000813590506122ba81612294565b92915050565b6000819050919050565b6122d3816122c0565b81146122de57600080fd5b50565b6000813590506122f0816122ca565b92915050565b6000806040838503121561230d5761230c612258565b5b600061231b858286016122ab565b925050602061232c858286016122e1565b9150509250929050565b60008115159050919050565b61234b81612336565b82525050565b60006020820190506123666000830184612342565b92915050565b612375816122c0565b82525050565b6000602082019050612390600083018461236c565b92915050565b600081519050919050565b600082825260208201905092915050565b6000819050602082019050919050565b6123cb81612282565b82525050565b60006123dd83836123c2565b60208301905092915050565b6000602082019050919050565b600061240182612396565b61240b81856123a1565b9350612416836123b2565b8060005b8381101561244757815161242e88826123d1565b9750612439836123e9565b92505060018101905061241a565b5085935050505092915050565b6000602082019050818103600083015261246e81846123f6565b905092915050565b60008060006060848603121561248f5761248e612258565b5b600061249d868287016122ab565b93505060206124ae868287016122ab565b92505060406124bf868287016122e1565b9150509250925092565b6000819050919050565b6124dc816124c9565b82525050565b60006020820190506124f760008301846124d3565b92915050565b600060ff82169050919050565b612513816124fd565b82525050565b600060208201905061252e600083018461250a565b92915050565b60006020828403121561254a57612549612258565b5b6000612558848285016122e1565b91505092915050565b60006020828403121561257757612576612258565b5b6000612585848285016122ab565b91505092915050565b600080fd5b600080fd5b600080fd5b60008083601f8401126125b3576125b261258e565b5b8235905067ffffffffffffffff8111156125d0576125cf612593565b5b6020830191508360018202830111156125ec576125eb612598565b5b9250929050565b60006fffffffffffffffffffffffffffffffff82169050919050565b612618816125f3565b811461262357600080fd5b50565b6000813590506126358161260f565b92915050565b6000806000806060858703121561265557612654612258565b5b6000612663878288016122ab565b945050602085013567ffffffffffffffff8111156126845761268361225d565b5b6126908782880161259d565b935093505060406126a387828801612626565b91505092959194509250565b6126b881612282565b82525050565b60006020820190506126d360008301846126af565b92915050565b60006040820190506126ee600083018561236c565b6126fb602083018461236c565b9392505050565b6000806040838503121561271957612718612258565b5b6000612727858286016122ab565b925050602061273885828601612626565b9150509250929050565b61274b816125f3565b82525050565b600082825260208201905092915050565b600061276d8261219d565b6127778185612751565b93506127878185602086016121b9565b612790816121ec565b840191505092915050565b60006060830160008301516127b36000860182612742565b5060208301516127c66020860182612742565b50604083015184820360408601526127de8282612762565b9150508091505092915050565b60006020820190508181036000830152612805818461279b565b905092915050565b612816816124fd565b811461282157600080fd5b50565b6000813590506128338161280d565b92915050565b612842816124c9565b811461284d57600080fd5b50565b60008135905061285f81612839565b92915050565b600080600080600080600060e0888a03121561288457612883612258565b5b60006128928a828b016122ab565b97505060206128a38a828b016122ab565b96505060406128b48a828b016122e1565b95505060606128c58a828b016122e1565b94505060806128d68a828b01612824565b93505060a06128e78a828b01612850565b92505060c06128f88a828b01612850565b91505092959891949750929550565b6000806040838503121561291e5761291d612258565b5b600061292c858286016122ab565b925050602061293d858286016122ab565b9150509250929050565b7f4e487b7100000000000000000000000000000000000000000000000000000000600052602260045260246000fd5b6000600282049050600182168061298e57607f821691505b6020821081036129a1576129a0612947565b5b50919050565b7f4e487b7100000000000000000000000000000000000000000000000000000000600052601160045260246000fd5b60006129e1826122c0565b91506129ec836122c0565b9250828210156129ff576129fe6129a7565b5b828203905092915050565b7f494e56414c49445f464143494c495441544f5200000000000000000000000000600082015250565b6000612a406013836121a8565b9150612a4b82612a0a565b602082019050919050565b60006020820190508181036000830152612a6f81612a33565b9050919050565b6000612a81826122c0565b9150612a8c836122c0565b9250827fffffffffffffffffffffffffffffffffffffffffffffffffffffffffffffffff03821115612ac157612ac06129a7565b5b828201905092915050565b7f464143494c495441544f525f4255434b45545f43415041434954595f4558434560008201527f4544454400000000000000000000000000000000000000000000000000000000602082015250565b6000612b286024836121a8565b9150612b3382612acc565b604082019050919050565b60006020820190508181036000830152612b5781612b1b565b9050919050565b7f494e56414c49445f4255524e5f414d4f554e5400000000000000000000000000600082015250565b6000612b946013836121a8565b9150612b9f82612b5e565b602082019050919050565b60006020820190508181036000830152612bc381612b87565b9050919050565b7f464143494c495441544f525f414c52454144595f455849535453000000000000600082015250565b6000612c00601a836121a8565b9150612c0b82612bca565b602082019050919050565b60006020820190508181036000830152612c2f81612bf3565b9050919050565b7f494e56414c49445f4c4142454c00000000000000000000000000000000000000600082015250565b6000612c6c600d836121a8565b9150612c7782612c36565b602082019050919050565b60006020820190508181036000830152612c9b81612c5f565b9050919050565b600081905092915050565b82818337600083830152505050565b6000612cc88385612ca2565b9350612cd5838584612cad565b82840190509392505050565b6000612cee828486612cbc565b91508190509392505050565b6000819050919050565b6000612d1f612d1a612d15846125f3565b612cfa565b6122c0565b9050919050565b612d2f81612d04565b82525050565b6000602082019050612d4a6000830184612d26565b92915050565b7f464143494c495441544f525f444f45535f4e4f545f4558495354000000000000600082015250565b6000612d86601a836121a8565b9150612d9182612d50565b602082019050919050565b60006020820190508181036000830152612db581612d79565b9050919050565b7f464143494c495441544f525f4255434b45545f4c4556454c5f4e4f545f5a455260008201527f4f00000000000000000000000000000000000000000000000000000000000000602082015250565b6000612e186021836121a8565b9150612e2382612dbc565b604082019050919050565b60006020820190508181036000830152612e4781612e0b565b9050919050565b6000604082019050612e63600083018561236c565b612e706020830184612d26565b9392505050565b7f5045524d49545f444541444c494e455f45585049524544000000000000000000600082015250565b6000612ead6017836121a8565b9150612eb882612e77565b602082019050919050565b60006020820190508181036000830152612edc81612ea0565b9050919050565b600060c082019050612ef860008301896124d3565b612f0560208301886126af565b612f1260408301876126af565b612f1f606083018661236c565b612f2c608083018561236c565b612f3960a083018461236c565b979650505050505050565b7f1901000000000000000000000000000000000000000000000000000000000000600082015250565b6000612f7a600283612ca2565b9150612f8582612f44565b600282019050919050565b6000819050919050565b612fab612fa6826124c9565b612f90565b82525050565b6000612fbc82612f6d565b9150612fc88285612f9a565b602082019150612fd88284612f9a565b6020820191508190509392505050565b6000608082019050612ffd60008301876124d3565b61300a602083018661250a565b61301760408301856124d3565b61302460608301846124d3565b95945050505050565b7f494e56414c49445f5349474e4552000000000000000000000000000000000000600082015250565b6000613063600e836121a8565b915061306e8261302d565b602082019050919050565b6000602082019050818103600083015261309281613056565b9050919050565b7f4f776e61626c653a206e6577206f776e657220697320746865207a65726f206160008201527f6464726573730000000000000000000000000000000000000000000000000000602082015250565b60006130f56026836121a8565b915061310082613099565b604082019050919050565b60006020820190508181036000830152613124816130e8565b9050919050565b600081905092915050565b60008190508160005260206000209050919050565b6000815461315881612976565b613162818661312b565b9450600182166000811461317d576001811461318e576131c1565b60ff198316865281860193506131c1565b61319785613136565b60005b838110156131b95781548189015260018201915060208101905061319a565b838801955050505b50505092915050565b60006131d6828461314b565b915081905092915050565b600060a0820190506131f660008301886124d3565b61320360208301876124d3565b61321060408301866124d3565b61321d606083018561236c565b61322a60808301846126af565b9695505050505050565b7f4f776e61626c653a2063616c6c6572206973206e6f7420746865206f776e6572600082015250565b600061326a6020836121a8565b915061327582613234565b602082019050919050565b600060208201905081810360008301526132998161325d565b9050919050565b7f4e487b7100000000000000000000000000000000000000000000000000000000600052603260045260246000fd5b7f4e487b7100000000000000000000000000000000000000000000000000000000600052603160045260246000fdfea264697066735822122081c41bad99f0a9fadf7ba674f417ae53bec6afd348589a2ec3ebf95f26f40fe964736f6c634300080d0033",
  "devdoc": {
    "author": "Aave",
    "kind": "dev",
    "methods": {
      "addFacilitator(address,string,uint128)": {
        "params": {
          "bucketCapacity": "The upward limit of GHO can be minted by the facilitator",
          "facilitatorAddress": "The address of the facilitator to add",
          "facilitatorLabel": "A human readable identifier for the facilitator"
        }
      },
      "approve(address,uint256)": {
        "details": "Sets `amount` as the allowance of `spender` over the caller's tokens. Returns a boolean value indicating whether the operation succeeded. IMPORTANT: Beware that changing an allowance with this method brings the risk that someone may use both the old and the new allowance by unfortunate transaction ordering. One possible solution to mitigate this race condition is to first reduce the spender's allowance to 0 and set the desired value afterwards: https://github.com/ethereum/EIPs/issues/20#issuecomment-263524729 Emits an {Approval} event."
      },
      "burn(uint256)": {
        "details": "Only active facilitators (bucket level > 0) can burn.The bucket level is decreased upon burning.",
        "params": {
          "amount": "The amount to burn"
        }
      },
      "constructor": {
        "details": "Constructor"
      },
      "getFacilitator(address)": {
        "params": {
          "facilitator": "The address of the facilitator"
        },
        "returns": {
          "_0": "The facilitator configuration"
        }
      },
      "getFacilitatorBucket(address)": {
        "params": {
          "facilitator": "The address of the facilitator"
        },
        "returns": {
          "_0": "The capacity of the facilitator's bucket",
          "_1": "The level of the facilitator's bucket"
        }
      },
      "getFacilitatorsList()": {
        "returns": {
          "_0": "The list of the facilitators addresses"
        }
      },
      "mint(address,uint256)": {
        "details": "Only facilitators with enough bucket capacity available can mint.The bucket level is increased upon minting.",
        "params": {
          "account": "The address receiving the GHO tokens",
          "amount": "The amount to mint"
        }
      },
      "owner()": {
        "details": "Returns the address of the current owner."
      },
      "removeFacilitator(address)": {
        "params": {
          "facilitatorAddress": "The address of the facilitator to remove"
        }
      },
      "renounceOwnership()": {
        "details": "Leaves the contract without owner. It will not be possible to call `onlyOwner` functions anymore. Can only be called by the current owner. NOTE: Renouncing ownership will leave the contract without an owner, thereby removing any functionality that is only available to the owner."
      },
      "setFacilitatorBucketCapacity(address,uint128)": {
        "params": {
          "facilitator": "The address of the facilitator",
          "newCapacity": "The new capacity of the bucket"
        }
      },
      "transfer(address,uint256)": {
        "details": "Moves `amount` tokens from the caller's account to `to`. Returns a boolean value indicating whether the operation succeeded. Emits a {Transfer} event."
      },
      "transferFrom(address,address,uint256)": {
        "details": "Moves `amount` tokens from `from` to `to` using the allowance mechanism. `amount` is then deducted from the caller's allowance. Returns a boolean value indicating whether the operation succeeded. Emits a {Transfer} event."
      },
      "transferOwnership(address)": {
        "details": "Transfers ownership of the contract to a new account (`newOwner`). Can only be called by the current owner."
      }
    },
    "title": "GHO Token",
    "version": 1
  },
  "userdoc": {
    "kind": "user",
    "methods": {
      "addFacilitator(address,string,uint128)": {
        "notice": "Add the facilitator passed with the parameters to the facilitators list."
      },
      "burn(uint256)": {
        "notice": "Burns the requested amount of tokens from the account address."
      },
      "getFacilitator(address)": {
        "notice": "Returns the facilitator data"
      },
      "getFacilitatorBucket(address)": {
        "notice": "Returns the bucket configuration of the facilitator"
      },
      "getFacilitatorsList()": {
        "notice": "Returns the list of the addresses of the active facilitator"
      },
      "mint(address,uint256)": {
        "notice": "Mints the requested amount of tokens to the account address."
      },
      "removeFacilitator(address)": {
        "notice": "Remove the facilitator from the facilitators list."
      },
      "setFacilitatorBucketCapacity(address,uint128)": {
        "notice": "Set the bucket capacity of the facilitator."
      }
    },
    "version": 1
  },
  "storageLayout": {
    "storage": [
      {
        "astId": 6154,
        "contract": "contracts/aave/GhoToken.sol:GhoToken",
        "label": "name",
        "offset": 0,
        "slot": "0",
        "type": "t_string_storage"
      },
      {
        "astId": 6156,
        "contract": "contracts/aave/GhoToken.sol:GhoToken",
        "label": "symbol",
        "offset": 0,
        "slot": "1",
        "type": "t_string_storage"
      },
      {
        "astId": 6160,
        "contract": "contracts/aave/GhoToken.sol:GhoToken",
        "label": "totalSupply",
        "offset": 0,
        "slot": "2",
        "type": "t_uint256"
      },
      {
        "astId": 6164,
        "contract": "contracts/aave/GhoToken.sol:GhoToken",
        "label": "balanceOf",
        "offset": 0,
        "slot": "3",
        "type": "t_mapping(t_address,t_uint256)"
      },
      {
        "astId": 6170,
        "contract": "contracts/aave/GhoToken.sol:GhoToken",
        "label": "allowance",
        "offset": 0,
        "slot": "4",
        "type": "t_mapping(t_address,t_mapping(t_address,t_uint256))"
      },
      {
        "astId": 6183,
        "contract": "contracts/aave/GhoToken.sol:GhoToken",
        "label": "nonces",
        "offset": 0,
        "slot": "5",
        "type": "t_mapping(t_address,t_uint256)"
      },
      {
        "astId": 963,
        "contract": "contracts/aave/GhoToken.sol:GhoToken",
        "label": "_owner",
        "offset": 0,
        "slot": "6",
        "type": "t_address"
      },
      {
        "astId": 6554,
        "contract": "contracts/aave/GhoToken.sol:GhoToken",
        "label": "_facilitators",
        "offset": 0,
        "slot": "7",
        "type": "t_mapping(t_address,t_struct(Facilitator)6955_storage)"
      },
      {
        "astId": 6557,
        "contract": "contracts/aave/GhoToken.sol:GhoToken",
        "label": "_facilitatorsList",
        "offset": 0,
        "slot": "8",
        "type": "t_struct(AddressSet)5626_storage"
      }
    ],
    "types": {
      "t_address": {
        "encoding": "inplace",
        "label": "address",
        "numberOfBytes": "20"
      },
      "t_array(t_bytes32)dyn_storage": {
        "base": "t_bytes32",
        "encoding": "dynamic_array",
        "label": "bytes32[]",
        "numberOfBytes": "32"
      },
      "t_bytes32": {
        "encoding": "inplace",
        "label": "bytes32",
        "numberOfBytes": "32"
      },
      "t_mapping(t_address,t_mapping(t_address,t_uint256))": {
        "encoding": "mapping",
        "key": "t_address",
        "label": "mapping(address => mapping(address => uint256))",
        "numberOfBytes": "32",
        "value": "t_mapping(t_address,t_uint256)"
      },
      "t_mapping(t_address,t_struct(Facilitator)6955_storage)": {
        "encoding": "mapping",
        "key": "t_address",
        "label": "mapping(address => struct IGhoToken.Facilitator)",
        "numberOfBytes": "32",
        "value": "t_struct(Facilitator)6955_storage"
      },
      "t_mapping(t_address,t_uint256)": {
        "encoding": "mapping",
        "key": "t_address",
        "label": "mapping(address => uint256)",
        "numberOfBytes": "32",
        "value": "t_uint256"
      },
      "t_mapping(t_bytes32,t_uint256)": {
        "encoding": "mapping",
        "key": "t_bytes32",
        "label": "mapping(bytes32 => uint256)",
        "numberOfBytes": "32",
        "value": "t_uint256"
      },
      "t_string_storage": {
        "encoding": "bytes",
        "label": "string",
        "numberOfBytes": "32"
      },
      "t_struct(AddressSet)5626_storage": {
        "encoding": "inplace",
        "label": "struct EnumerableSet.AddressSet",
        "members": [
          {
            "astId": 5625,
            "contract": "contracts/aave/GhoToken.sol:GhoToken",
            "label": "_inner",
            "offset": 0,
            "slot": "0",
            "type": "t_struct(Set)5311_storage"
          }
        ],
        "numberOfBytes": "64"
      },
      "t_struct(Facilitator)6955_storage": {
        "encoding": "inplace",
        "label": "struct IGhoToken.Facilitator",
        "members": [
          {
            "astId": 6950,
            "contract": "contracts/aave/GhoToken.sol:GhoToken",
            "label": "bucketCapacity",
            "offset": 0,
            "slot": "0",
            "type": "t_uint128"
          },
          {
            "astId": 6952,
            "contract": "contracts/aave/GhoToken.sol:GhoToken",
            "label": "bucketLevel",
            "offset": 16,
            "slot": "0",
            "type": "t_uint128"
          },
          {
            "astId": 6954,
            "contract": "contracts/aave/GhoToken.sol:GhoToken",
            "label": "label",
            "offset": 0,
            "slot": "1",
            "type": "t_string_storage"
          }
        ],
        "numberOfBytes": "64"
      },
      "t_struct(Set)5311_storage": {
        "encoding": "inplace",
        "label": "struct EnumerableSet.Set",
        "members": [
          {
            "astId": 5306,
            "contract": "contracts/aave/GhoToken.sol:GhoToken",
            "label": "_values",
            "offset": 0,
            "slot": "0",
            "type": "t_array(t_bytes32)dyn_storage"
          },
          {
            "astId": 5310,
            "contract": "contracts/aave/GhoToken.sol:GhoToken",
            "label": "_indexes",
            "offset": 0,
            "slot": "1",
            "type": "t_mapping(t_bytes32,t_uint256)"
          }
        ],
        "numberOfBytes": "64"
      },
      "t_uint128": {
        "encoding": "inplace",
        "label": "uint128",
        "numberOfBytes": "16"
      },
      "t_uint256": {
        "encoding": "inplace",
        "label": "uint256",
        "numberOfBytes": "32"
      }
    }
  }
}