{
  "address": "0x2805C642523518c6fad00c59df17c5584567Fd78",
  "abi": [
    {
      "inputs": [
        {
          "internalType": "address",
          "name": "_erc6551Registry",
          "type": "address"
        },
        {
          "internalType": "address",
          "name": "_accountImplementation",
          "type": "address"
        },
        {
          "internalType": "address",
          "name": "_profileCreationProxyAddress",
          "type": "address"
        },
        {
          "internalType": "address",
          "name": "_lensHubAddress",
          "type": "address"
        }
      ],
      "stateMutability": "nonpayable",
      "type": "constructor"
    },
    {
      "anonymous": false,
      "inputs": [
        {
          "indexed": true,
          "internalType": "address",
          "name": "owner",
          "type": "address"
        },
        {
          "indexed": true,
          "internalType": "address",
          "name": "approved",
          "type": "address"
        },
        {
          "indexed": true,
          "internalType": "uint256",
          "name": "tokenId",
          "type": "uint256"
        }
      ],
      "name": "Approval",
      "type": "event"
    },
    {
      "anonymous": false,
      "inputs": [
        {
          "indexed": true,
          "internalType": "address",
          "name": "owner",
          "type": "address"
        },
        {
          "indexed": true,
          "internalType": "address",
          "name": "operator",
          "type": "address"
        },
        {
          "indexed": false,
          "internalType": "bool",
          "name": "approved",
          "type": "bool"
        }
      ],
      "name": "ApprovalForAll",
      "type": "event"
    },
    {
      "anonymous": false,
      "inputs": [
        {
          "indexed": false,
          "internalType": "address",
          "name": "accountAddress",
          "type": "address"
        },
        {
          "indexed": false,
          "internalType": "uint256",
          "name": "tokenId",
          "type": "uint256"
        },
        {
          "indexed": false,
          "internalType": "string",
          "name": "handle",
          "type": "string"
        }
      ],
      "name": "Created",
      "type": "event"
    },
    {
      "anonymous": false,
      "inputs": [
        {
          "indexed": true,
          "internalType": "address",
          "name": "previousOwner",
          "type": "address"
        },
        {
          "indexed": true,
          "internalType": "address",
          "name": "newOwner",
          "type": "address"
        }
      ],
      "name": "OwnershipTransferred",
      "type": "event"
    },
    {
      "anonymous": false,
      "inputs": [
        {
          "indexed": true,
          "internalType": "address",
          "name": "from",
          "type": "address"
        },
        {
          "indexed": true,
          "internalType": "address",
          "name": "to",
          "type": "address"
        },
        {
          "indexed": true,
          "internalType": "uint256",
          "name": "tokenId",
          "type": "uint256"
        }
      ],
      "name": "Transfer",
      "type": "event"
    },
    {
      "inputs": [],
      "name": "accountImplementation",
      "outputs": [
        {
          "internalType": "address",
          "name": "",
          "type": "address"
        }
      ],
      "stateMutability": "view",
      "type": "function"
    },
    {
      "inputs": [
        {
          "internalType": "address",
          "name": "to",
          "type": "address"
        },
        {
          "internalType": "uint256",
          "name": "tokenId",
          "type": "uint256"
        }
      ],
      "name": "approve",
      "outputs": [],
      "stateMutability": "nonpayable",
      "type": "function"
    },
    {
      "inputs": [
        {
          "internalType": "address",
          "name": "owner",
          "type": "address"
        }
      ],
      "name": "balanceOf",
      "outputs": [
        {
          "internalType": "uint256",
          "name": "",
          "type": "uint256"
        }
      ],
      "stateMutability": "view",
      "type": "function"
    },
    {
      "inputs": [
        {
          "internalType": "uint256",
          "name": "tokenId",
          "type": "uint256"
        }
      ],
      "name": "getApproved",
      "outputs": [
        {
          "internalType": "address",
          "name": "",
          "type": "address"
        }
      ],
      "stateMutability": "view",
      "type": "function"
    },
    {
      "inputs": [
        {
          "internalType": "address",
          "name": "owner",
          "type": "address"
        },
        {
          "internalType": "address",
          "name": "operator",
          "type": "address"
        }
      ],
      "name": "isApprovedForAll",
      "outputs": [
        {
          "internalType": "bool",
          "name": "",
          "type": "bool"
        }
      ],
      "stateMutability": "view",
      "type": "function"
    },
    {
      "inputs": [],
      "name": "lensHub",
      "outputs": [
        {
          "internalType": "contract ILensHub",
          "name": "",
          "type": "address"
        }
      ],
      "stateMutability": "view",
      "type": "function"
    },
    {
      "inputs": [
        {
          "internalType": "address",
          "name": "to",
          "type": "address"
        },
        {
          "components": [
            {
              "internalType": "string",
              "name": "handle",
              "type": "string"
            },
            {
              "internalType": "string",
              "name": "imageURI",
              "type": "string"
            },
            {
              "internalType": "address",
              "name": "followModule",
              "type": "address"
            },
            {
              "internalType": "bytes",
              "name": "followModuleInitData",
              "type": "bytes"
            },
            {
              "internalType": "string",
              "name": "followNFTURI",
              "type": "string"
            }
          ],
          "internalType": "struct PartialCreateProfileData",
          "name": "vars",
          "type": "tuple"
        }
      ],
      "name": "mintHandle",
      "outputs": [],
      "stateMutability": "nonpayable",
      "type": "function"
    },
    {
      "inputs": [],
      "name": "name",
      "outputs": [
        {
          "internalType": "string",
          "name": "",
          "type": "string"
        }
      ],
      "stateMutability": "view",
      "type": "function"
    },
    {
      "inputs": [],
      "name": "owner",
      "outputs": [
        {
          "internalType": "address",
          "name": "",
          "type": "address"
        }
      ],
      "stateMutability": "view",
      "type": "function"
    },
    {
      "inputs": [
        {
          "internalType": "uint256",
          "name": "tokenId",
          "type": "uint256"
        }
      ],
      "name": "ownerOf",
      "outputs": [
        {
          "internalType": "address",
          "name": "",
          "type": "address"
        }
      ],
      "stateMutability": "view",
      "type": "function"
    },
    {
      "inputs": [],
      "name": "profileCreationProxyAddress",
      "outputs": [
        {
          "internalType": "address",
          "name": "",
          "type": "address"
        }
      ],
      "stateMutability": "view",
      "type": "function"
    },
    {
      "inputs": [],
      "name": "registry",
      "outputs": [
        {
          "internalType": "contract IERC6551Registry",
          "name": "",
          "type": "address"
        }
      ],
      "stateMutability": "view",
      "type": "function"
    },
    {
      "inputs": [],
      "name": "renounceOwnership",
      "outputs": [],
      "stateMutability": "nonpayable",
      "type": "function"
    },
    {
      "inputs": [
        {
          "internalType": "address",
          "name": "to",
          "type": "address"
        }
      ],
      "name": "safeMint",
      "outputs": [],
      "stateMutability": "nonpayable",
      "type": "function"
    },
    {
      "inputs": [
        {
          "internalType": "address",
          "name": "from",
          "type": "address"
        },
        {
          "internalType": "address",
          "name": "to",
          "type": "address"
        },
        {
          "internalType": "uint256",
          "name": "tokenId",
          "type": "uint256"
        }
      ],
      "name": "safeTransferFrom",
      "outputs": [],
      "stateMutability": "nonpayable",
      "type": "function"
    },
    {
      "inputs": [
        {
          "internalType": "address",
          "name": "from",
          "type": "address"
        },
        {
          "internalType": "address",
          "name": "to",
          "type": "address"
        },
        {
          "internalType": "uint256",
          "name": "tokenId",
          "type": "uint256"
        },
        {
          "internalType": "bytes",
          "name": "data",
          "type": "bytes"
        }
      ],
      "name": "safeTransferFrom",
      "outputs": [],
      "stateMutability": "nonpayable",
      "type": "function"
    },
    {
      "inputs": [
        {
          "internalType": "address",
          "name": "_accountImplementation",
          "type": "address"
        }
      ],
      "name": "setAccountImplementation",
      "outputs": [],
      "stateMutability": "nonpayable",
      "type": "function"
    },
    {
      "inputs": [
        {
          "internalType": "address",
          "name": "operator",
          "type": "address"
        },
        {
          "internalType": "bool",
          "name": "approved",
          "type": "bool"
        }
      ],
      "name": "setApprovalForAll",
      "outputs": [],
      "stateMutability": "nonpayable",
      "type": "function"
    },
    {
      "inputs": [
        {
          "internalType": "address",
          "name": "_lensHubAddress",
          "type": "address"
        }
      ],
      "name": "setLensHub",
      "outputs": [],
      "stateMutability": "nonpayable",
      "type": "function"
    },
    {
      "inputs": [
        {
          "internalType": "address",
          "name": "_profileCreationProxyAddress",
          "type": "address"
        }
      ],
      "name": "setProxy",
      "outputs": [],
      "stateMutability": "nonpayable",
      "type": "function"
    },
    {
      "inputs": [
        {
          "internalType": "address",
          "name": "_erc6551Registry",
          "type": "address"
        }
      ],
      "name": "setRegistry",
      "outputs": [],
      "stateMutability": "nonpayable",
      "type": "function"
    },
    {
      "inputs": [
        {
          "internalType": "bytes4",
          "name": "interfaceId",
          "type": "bytes4"
        }
      ],
      "name": "supportsInterface",
      "outputs": [
        {
          "internalType": "bool",
          "name": "",
          "type": "bool"
        }
      ],
      "stateMutability": "view",
      "type": "function"
    },
    {
      "inputs": [],
      "name": "symbol",
      "outputs": [
        {
          "internalType": "string",
          "name": "",
          "type": "string"
        }
      ],
      "stateMutability": "view",
      "type": "function"
    },
    {
      "inputs": [
        {
          "internalType": "uint256",
          "name": "tokenId",
          "type": "uint256"
        }
      ],
      "name": "tokenURI",
      "outputs": [
        {
          "internalType": "string",
          "name": "",
          "type": "string"
        }
      ],
      "stateMutability": "view",
      "type": "function"
    },
    {
      "inputs": [
        {
          "internalType": "address",
          "name": "from",
          "type": "address"
        },
        {
          "internalType": "address",
          "name": "to",
          "type": "address"
        },
        {
          "internalType": "uint256",
          "name": "tokenId",
          "type": "uint256"
        }
      ],
      "name": "transferFrom",
      "outputs": [],
      "stateMutability": "nonpayable",
      "type": "function"
    },
    {
      "inputs": [
        {
          "internalType": "address",
          "name": "newOwner",
          "type": "address"
        }
      ],
      "name": "transferOwnership",
      "outputs": [],
      "stateMutability": "nonpayable",
      "type": "function"
    }
  ],
  "transactionHash": "0x9b376af3f96542999ba18bd0579530a6eecadb553a51f743b058432784a9a2fc",
  "args": [
    "0xaeC544536a6405A2422745b7D7EBA7655844554B",
    "0xDD5E2e8aC4408D133167DbBA80a3BED6990182BC",
    "0x420f0257D43145bb002E69B14FF2Eb9630Fc4736",
    "0x60Ae865ee4C725cd04353b5AAb364553f56ceF82"
  ],
  "numDeployments": 3,
  "solcInputHash": "94ecfb58e0bf568eeb6ea3818e643d69",
  "bytecode": "0x60806040526000600b553480156200001657600080fd5b5060405162003b9f38038062003b9f83398181016040528101906200003c9190620003f2565b6040518060400160405280601781526020017f546f6b656e20626f756e64206163636f756e74204e46540000000000000000008152506040518060400160405280600681526020017f5442414e465400000000000000000000000000000000000000000000000000008152508160009080519060200190620000c0929190620002d8565b508060019080519060200190620000d9929190620002d8565b505050620000fc620000f06200020a60201b60201c565b6200021260201b60201c565b80600760006101000a81548173ffffffffffffffffffffffffffffffffffffffff021916908373ffffffffffffffffffffffffffffffffffffffff16021790555083600860006101000a81548173ffffffffffffffffffffffffffffffffffffffff021916908373ffffffffffffffffffffffffffffffffffffffff16021790555082600960006101000a81548173ffffffffffffffffffffffffffffffffffffffff021916908373ffffffffffffffffffffffffffffffffffffffff16021790555081600a60006101000a81548173ffffffffffffffffffffffffffffffffffffffff021916908373ffffffffffffffffffffffffffffffffffffffff16021790555050505050620004c8565b600033905090565b6000600660009054906101000a900473ffffffffffffffffffffffffffffffffffffffff16905081600660006101000a81548173ffffffffffffffffffffffffffffffffffffffff021916908373ffffffffffffffffffffffffffffffffffffffff1602179055508173ffffffffffffffffffffffffffffffffffffffff168173ffffffffffffffffffffffffffffffffffffffff167f8be0079c531659141344cd1fd0a4f28419497f9722a3daafe3b4186f6b6457e060405160405180910390a35050565b828054620002e69062000493565b90600052602060002090601f0160209004810192826200030a576000855562000356565b82601f106200032557805160ff191683800117855562000356565b8280016001018555821562000356579182015b828111156200035557825182559160200191906001019062000338565b5b50905062000365919062000369565b5090565b5b80821115620003845760008160009055506001016200036a565b5090565b600080fd5b600073ffffffffffffffffffffffffffffffffffffffff82169050919050565b6000620003ba826200038d565b9050919050565b620003cc81620003ad565b8114620003d857600080fd5b50565b600081519050620003ec81620003c1565b92915050565b600080600080608085870312156200040f576200040e62000388565b5b60006200041f87828801620003db565b94505060206200043287828801620003db565b93505060406200044587828801620003db565b92505060606200045887828801620003db565b91505092959194509250565b7f4e487b7100000000000000000000000000000000000000000000000000000000600052602260045260246000fd5b60006002820490506001821680620004ac57607f821691505b602082108103620004c257620004c162000464565b5b50919050565b6136c780620004d86000396000f3fe608060405234801561001057600080fd5b506004361061018e5760003560e01c8063715018a6116100de578063a91ee0dc11610097578063c87b56dd11610071578063c87b56dd14610447578063d9ef30bf14610477578063e985e9c514610493578063f2fde38b146104c35761018e565b8063a91ee0dc146103f1578063b02cfdc31461040d578063b88d4fde1461042b5761018e565b8063715018a6146103555780637b1039991461035f5780638da5cb5b1461037d57806395d89b411461039b57806397107d6d146103b9578063a22cb465146103d55761018e565b806319fe9c301161014b57806342842e0e1161012557806342842e0e146102bb57806354754ce6146102d75780636352211e146102f557806370a08231146103255761018e565b806319fe9c301461026757806323b872dd1461028357806340d097c31461029f5761018e565b806301ffc9a71461019357806306fdde03146101c3578063081812fc146101e1578063095ea7b31461021157806309766da21461022d57806311464fbe14610249575b600080fd5b6101ad60048036038101906101a891906121ea565b6104df565b6040516101ba9190612232565b60405180910390f35b6101cb6105c1565b6040516101d891906122e6565b60405180910390f35b6101fb60048036038101906101f6919061233e565b610653565b60405161020891906123ac565b60405180910390f35b61022b600480360381019061022691906123f3565b610699565b005b61024760048036038101906102429190612433565b6107b0565b005b6102516107fc565b60405161025e91906123ac565b60405180910390f35b610281600480360381019061027c919061273c565b610822565b005b61029d60048036038101906102989190612798565b610a7b565b005b6102b960048036038101906102b49190612433565b610adb565b005b6102d560048036038101906102d09190612798565b610bd2565b005b6102df610bf2565b6040516102ec91906123ac565b60405180910390f35b61030f600480360381019061030a919061233e565b610c18565b60405161031c91906123ac565b60405180910390f35b61033f600480360381019061033a9190612433565b610c9e565b60405161034c91906127fa565b60405180910390f35b61035d610d55565b005b610367610d69565b6040516103749190612874565b60405180910390f35b610385610d8f565b60405161039291906123ac565b60405180910390f35b6103a3610db9565b6040516103b091906122e6565b60405180910390f35b6103d360048036038101906103ce9190612433565b610e4b565b005b6103ef60048036038101906103ea91906128bb565b610e97565b005b61040b60048036038101906104069190612433565b610ead565b005b610415610ef9565b604051610422919061291c565b60405180910390f35b61044560048036038101906104409190612937565b610f1f565b005b610461600480360381019061045c919061233e565b610f81565b60405161046e91906122e6565b60405180910390f35b610491600480360381019061048c9190612433565b610fe9565b005b6104ad60048036038101906104a891906129ba565b611035565b6040516104ba9190612232565b60405180910390f35b6104dd60048036038101906104d89190612433565b6110c9565b005b60007f80ac58cd000000000000000000000000000000000000000000000000000000007bffffffffffffffffffffffffffffffffffffffffffffffffffffffff1916827bffffffffffffffffffffffffffffffffffffffffffffffffffffffff191614806105aa57507f5b5e139f000000000000000000000000000000000000000000000000000000007bffffffffffffffffffffffffffffffffffffffffffffffffffffffff1916827bffffffffffffffffffffffffffffffffffffffffffffffffffffffff1916145b806105ba57506105b98261114c565b5b9050919050565b6060600080546105d090612a29565b80601f01602080910402602001604051908101604052809291908181526020018280546105fc90612a29565b80156106495780601f1061061e57610100808354040283529160200191610649565b820191906000526020600020905b81548152906001019060200180831161062c57829003601f168201915b5050505050905090565b600061065e826111b6565b6004600083815260200190815260200160002060009054906101000a900473ffffffffffffffffffffffffffffffffffffffff169050919050565b60006106a482610c18565b90508073ffffffffffffffffffffffffffffffffffffffff168373ffffffffffffffffffffffffffffffffffffffff1603610714576040517f08c379a000000000000000000000000000000000000000000000000000000000815260040161070b90612acc565b60405180910390fd5b8073ffffffffffffffffffffffffffffffffffffffff16610733611201565b73ffffffffffffffffffffffffffffffffffffffff16148061076257506107618161075c611201565b611035565b5b6107a1576040517f08c379a000000000000000000000000000000000000000000000000000000000815260040161079890612b5e565b60405180910390fd5b6107ab8383611209565b505050565b6107b86112c2565b80600960006101000a81548173ffffffffffffffffffffffffffffffffffffffff021916908373ffffffffffffffffffffffffffffffffffffffff16021790555050565b600960009054906101000a900473ffffffffffffffffffffffffffffffffffffffff1681565b6000600b5490506108338382611340565b600b600081548092919061084690612bad565b91905055506000600860009054906101000a900473ffffffffffffffffffffffffffffffffffffffff1673ffffffffffffffffffffffffffffffffffffffff1663da7323b3600960009054906101000a900473ffffffffffffffffffffffffffffffffffffffff1646308660006040518663ffffffff1660e01b81526004016108d3959493929190612c67565b6020604051808303816000875af11580156108f2573d6000803e3d6000fd5b505050506040513d601f19601f820116820180604052508101906109169190612ce2565b905060006040518060c001604052808373ffffffffffffffffffffffffffffffffffffffff1681526020018560000151815260200185602001518152602001856040015173ffffffffffffffffffffffffffffffffffffffff1681526020018560600151815260200185608001518152509050600a60009054906101000a900473ffffffffffffffffffffffffffffffffffffffff1673ffffffffffffffffffffffffffffffffffffffff166307e5f948826040518263ffffffff1660e01b81526004016109e49190612e5b565b600060405180830381600087803b1580156109fe57600080fd5b505af1158015610a12573d6000803e3d6000fd5b505050507f47f66c025eea73c85dbf6e0fab1339cbfefe7e4fce8b05778c3ef4559cb2aba982848660000151604051602001610a4e9190612f05565b604051602081830303815290604052604051610a6c93929190612f27565b60405180910390a15050505050565b610a8c610a86611201565b8261135e565b610acb576040517f08c379a0000000000000000000000000000000000000000000000000000000008152600401610ac290612fd7565b60405180910390fd5b610ad68383836113f3565b505050565b6000600b549050610aec8282611340565b600b6000815480929190610aff90612bad565b9190505550600860009054906101000a900473ffffffffffffffffffffffffffffffffffffffff1673ffffffffffffffffffffffffffffffffffffffff1663da7323b3600960009054906101000a900473ffffffffffffffffffffffffffffffffffffffff1646308560006040518663ffffffff1660e01b8152600401610b8a959493929190612c67565b6020604051808303816000875af1158015610ba9573d6000803e3d6000fd5b505050506040513d601f19601f82011682018060405250810190610bcd9190612ce2565b505050565b610bed83838360405180602001604052806000815250610f1f565b505050565b600a60009054906101000a900473ffffffffffffffffffffffffffffffffffffffff1681565b600080610c24836116ec565b9050600073ffffffffffffffffffffffffffffffffffffffff168173ffffffffffffffffffffffffffffffffffffffff1603610c95576040517f08c379a0000000000000000000000000000000000000000000000000000000008152600401610c8c90613043565b60405180910390fd5b80915050919050565b60008073ffffffffffffffffffffffffffffffffffffffff168273ffffffffffffffffffffffffffffffffffffffff1603610d0e576040517f08c379a0000000000000000000000000000000000000000000000000000000008152600401610d05906130d5565b60405180910390fd5b600360008373ffffffffffffffffffffffffffffffffffffffff1673ffffffffffffffffffffffffffffffffffffffff168152602001908152602001600020549050919050565b610d5d6112c2565b610d676000611729565b565b600860009054906101000a900473ffffffffffffffffffffffffffffffffffffffff1681565b6000600660009054906101000a900473ffffffffffffffffffffffffffffffffffffffff16905090565b606060018054610dc890612a29565b80601f0160208091040260200160405190810160405280929190818152602001828054610df490612a29565b8015610e415780601f10610e1657610100808354040283529160200191610e41565b820191906000526020600020905b815481529060010190602001808311610e2457829003601f168201915b5050505050905090565b610e536112c2565b80600a60006101000a81548173ffffffffffffffffffffffffffffffffffffffff021916908373ffffffffffffffffffffffffffffffffffffffff16021790555050565b610ea9610ea2611201565b83836117ef565b5050565b610eb56112c2565b80600860006101000a81548173ffffffffffffffffffffffffffffffffffffffff021916908373ffffffffffffffffffffffffffffffffffffffff16021790555050565b600760009054906101000a900473ffffffffffffffffffffffffffffffffffffffff1681565b610f30610f2a611201565b8361135e565b610f6f576040517f08c379a0000000000000000000000000000000000000000000000000000000008152600401610f6690612fd7565b60405180910390fd5b610f7b8484848461195b565b50505050565b6060610f8c826111b6565b6000610f966119b7565b90506000815111610fb65760405180602001604052806000815250610fe1565b80610fc0846119ce565b604051602001610fd19291906130f5565b6040516020818303038152906040525b915050919050565b610ff16112c2565b80600760006101000a81548173ffffffffffffffffffffffffffffffffffffffff021916908373ffffffffffffffffffffffffffffffffffffffff16021790555050565b6000600560008473ffffffffffffffffffffffffffffffffffffffff1673ffffffffffffffffffffffffffffffffffffffff16815260200190815260200160002060008373ffffffffffffffffffffffffffffffffffffffff1673ffffffffffffffffffffffffffffffffffffffff16815260200190815260200160002060009054906101000a900460ff16905092915050565b6110d16112c2565b600073ffffffffffffffffffffffffffffffffffffffff168173ffffffffffffffffffffffffffffffffffffffff1603611140576040517f08c379a00000000000000000000000000000000000000000000000000000000081526004016111379061318b565b60405180910390fd5b61114981611729565b50565b60007f01ffc9a7000000000000000000000000000000000000000000000000000000007bffffffffffffffffffffffffffffffffffffffffffffffffffffffff1916827bffffffffffffffffffffffffffffffffffffffffffffffffffffffff1916149050919050565b6111bf81611a9c565b6111fe576040517f08c379a00000000000000000000000000000000000000000000000000000000081526004016111f590613043565b60405180910390fd5b50565b600033905090565b816004600083815260200190815260200160002060006101000a81548173ffffffffffffffffffffffffffffffffffffffff021916908373ffffffffffffffffffffffffffffffffffffffff160217905550808273ffffffffffffffffffffffffffffffffffffffff1661127c83610c18565b73ffffffffffffffffffffffffffffffffffffffff167f8c5be1e5ebec7d5bd14f71427d1e84f3dd0314c0f7b2291e5b200ac8c7c3b92560405160405180910390a45050565b6112ca611201565b73ffffffffffffffffffffffffffffffffffffffff166112e8610d8f565b73ffffffffffffffffffffffffffffffffffffffff161461133e576040517f08c379a0000000000000000000000000000000000000000000000000000000008152600401611335906131f7565b60405180910390fd5b565b61135a828260405180602001604052806000815250611add565b5050565b60008061136a83610c18565b90508073ffffffffffffffffffffffffffffffffffffffff168473ffffffffffffffffffffffffffffffffffffffff1614806113ac57506113ab8185611035565b5b806113ea57508373ffffffffffffffffffffffffffffffffffffffff166113d284610653565b73ffffffffffffffffffffffffffffffffffffffff16145b91505092915050565b8273ffffffffffffffffffffffffffffffffffffffff1661141382610c18565b73ffffffffffffffffffffffffffffffffffffffff1614611469576040517f08c379a000000000000000000000000000000000000000000000000000000000815260040161146090613289565b60405180910390fd5b600073ffffffffffffffffffffffffffffffffffffffff168273ffffffffffffffffffffffffffffffffffffffff16036114d8576040517f08c379a00000000000000000000000000000000000000000000000000000000081526004016114cf9061331b565b60405180910390fd5b6114e58383836001611b38565b8273ffffffffffffffffffffffffffffffffffffffff1661150582610c18565b73ffffffffffffffffffffffffffffffffffffffff161461155b576040517f08c379a000000000000000000000000000000000000000000000000000000000815260040161155290613289565b60405180910390fd5b6004600082815260200190815260200160002060006101000a81549073ffffffffffffffffffffffffffffffffffffffff02191690556001600360008573ffffffffffffffffffffffffffffffffffffffff1673ffffffffffffffffffffffffffffffffffffffff168152602001908152602001600020600082825403925050819055506001600360008473ffffffffffffffffffffffffffffffffffffffff1673ffffffffffffffffffffffffffffffffffffffff16815260200190815260200160002060008282540192505081905550816002600083815260200190815260200160002060006101000a81548173ffffffffffffffffffffffffffffffffffffffff021916908373ffffffffffffffffffffffffffffffffffffffff160217905550808273ffffffffffffffffffffffffffffffffffffffff168473ffffffffffffffffffffffffffffffffffffffff167fddf252ad1be2c89b69c2b068fc378daa952ba7f163c4a11628f55a4df523b3ef60405160405180910390a46116e78383836001611c5e565b505050565b60006002600083815260200190815260200160002060009054906101000a900473ffffffffffffffffffffffffffffffffffffffff169050919050565b6000600660009054906101000a900473ffffffffffffffffffffffffffffffffffffffff16905081600660006101000a81548173ffffffffffffffffffffffffffffffffffffffff021916908373ffffffffffffffffffffffffffffffffffffffff1602179055508173ffffffffffffffffffffffffffffffffffffffff168173ffffffffffffffffffffffffffffffffffffffff167f8be0079c531659141344cd1fd0a4f28419497f9722a3daafe3b4186f6b6457e060405160405180910390a35050565b8173ffffffffffffffffffffffffffffffffffffffff168373ffffffffffffffffffffffffffffffffffffffff160361185d576040517f08c379a000000000000000000000000000000000000000000000000000000000815260040161185490613387565b60405180910390fd5b80600560008573ffffffffffffffffffffffffffffffffffffffff1673ffffffffffffffffffffffffffffffffffffffff16815260200190815260200160002060008473ffffffffffffffffffffffffffffffffffffffff1673ffffffffffffffffffffffffffffffffffffffff16815260200190815260200160002060006101000a81548160ff0219169083151502179055508173ffffffffffffffffffffffffffffffffffffffff168373ffffffffffffffffffffffffffffffffffffffff167f17307eab39ab6107e8899845ad3d59bd9653f200f220920489ca2b5937696c318360405161194e9190612232565b60405180910390a3505050565b6119668484846113f3565b61197284848484611c64565b6119b1576040517f08c379a00000000000000000000000000000000000000000000000000000000081526004016119a890613419565b60405180910390fd5b50505050565b606060405180602001604052806000815250905090565b6060600060016119dd84611deb565b01905060008167ffffffffffffffff8111156119fc576119fb612465565b5b6040519080825280601f01601f191660200182016040528015611a2e5781602001600182028036833780820191505090505b509050600082602001820190505b600115611a91578080600190039150507f3031323334353637383961626364656600000000000000000000000000000000600a86061a8153600a8581611a8557611a84613439565b5b04945060008503611a3c575b819350505050919050565b60008073ffffffffffffffffffffffffffffffffffffffff16611abe836116ec565b73ffffffffffffffffffffffffffffffffffffffff1614159050919050565b611ae78383611f3e565b611af46000848484611c64565b611b33576040517f08c379a0000000000000000000000000000000000000000000000000000000008152600401611b2a90613419565b60405180910390fd5b505050565b6001811115611c5857600073ffffffffffffffffffffffffffffffffffffffff168473ffffffffffffffffffffffffffffffffffffffff1614611bcc5780600360008673ffffffffffffffffffffffffffffffffffffffff1673ffffffffffffffffffffffffffffffffffffffff1681526020019081526020016000206000828254611bc49190613468565b925050819055505b600073ffffffffffffffffffffffffffffffffffffffff168373ffffffffffffffffffffffffffffffffffffffff1614611c575780600360008573ffffffffffffffffffffffffffffffffffffffff1673ffffffffffffffffffffffffffffffffffffffff1681526020019081526020016000206000828254611c4f919061349c565b925050819055505b5b50505050565b50505050565b6000611c858473ffffffffffffffffffffffffffffffffffffffff1661215b565b15611dde578373ffffffffffffffffffffffffffffffffffffffff1663150b7a02611cae611201565b8786866040518563ffffffff1660e01b8152600401611cd0949392919061352b565b6020604051808303816000875af1925050508015611d0c57506040513d601f19601f82011682018060405250810190611d09919061358c565b60015b611d8e573d8060008114611d3c576040519150601f19603f3d011682016040523d82523d6000602084013e611d41565b606091505b506000815103611d86576040517f08c379a0000000000000000000000000000000000000000000000000000000008152600401611d7d90613419565b60405180910390fd5b805181602001fd5b63150b7a0260e01b7bffffffffffffffffffffffffffffffffffffffffffffffffffffffff1916817bffffffffffffffffffffffffffffffffffffffffffffffffffffffff191614915050611de3565b600190505b949350505050565b600080600090507a184f03e93ff9f4daa797ed6e38ed64bf6a1f0100000000000000008310611e49577a184f03e93ff9f4daa797ed6e38ed64bf6a1f0100000000000000008381611e3f57611e3e613439565b5b0492506040810190505b6d04ee2d6d415b85acef81000000008310611e86576d04ee2d6d415b85acef81000000008381611e7c57611e7b613439565b5b0492506020810190505b662386f26fc100008310611eb557662386f26fc100008381611eab57611eaa613439565b5b0492506010810190505b6305f5e1008310611ede576305f5e1008381611ed457611ed3613439565b5b0492506008810190505b6127108310611f03576127108381611ef957611ef8613439565b5b0492506004810190505b60648310611f265760648381611f1c57611f1b613439565b5b0492506002810190505b600a8310611f35576001810190505b80915050919050565b600073ffffffffffffffffffffffffffffffffffffffff168273ffffffffffffffffffffffffffffffffffffffff1603611fad576040517f08c379a0000000000000000000000000000000000000000000000000000000008152600401611fa490613605565b60405180910390fd5b611fb681611a9c565b15611ff6576040517f08c379a0000000000000000000000000000000000000000000000000000000008152600401611fed90613671565b60405180910390fd5b612004600083836001611b38565b61200d81611a9c565b1561204d576040517f08c379a000000000000000000000000000000000000000000000000000000000815260040161204490613671565b60405180910390fd5b6001600360008473ffffffffffffffffffffffffffffffffffffffff1673ffffffffffffffffffffffffffffffffffffffff16815260200190815260200160002060008282540192505081905550816002600083815260200190815260200160002060006101000a81548173ffffffffffffffffffffffffffffffffffffffff021916908373ffffffffffffffffffffffffffffffffffffffff160217905550808273ffffffffffffffffffffffffffffffffffffffff16600073ffffffffffffffffffffffffffffffffffffffff167fddf252ad1be2c89b69c2b068fc378daa952ba7f163c4a11628f55a4df523b3ef60405160405180910390a4612157600083836001611c5e565b5050565b6000808273ffffffffffffffffffffffffffffffffffffffff163b119050919050565b6000604051905090565b600080fd5b600080fd5b60007fffffffff0000000000000000000000000000000000000000000000000000000082169050919050565b6121c781612192565b81146121d257600080fd5b50565b6000813590506121e4816121be565b92915050565b600060208284031215612200576121ff612188565b5b600061220e848285016121d5565b91505092915050565b60008115159050919050565b61222c81612217565b82525050565b60006020820190506122476000830184612223565b92915050565b600081519050919050565b600082825260208201905092915050565b60005b8381101561228757808201518184015260208101905061226c565b83811115612296576000848401525b50505050565b6000601f19601f8301169050919050565b60006122b88261224d565b6122c28185612258565b93506122d2818560208601612269565b6122db8161229c565b840191505092915050565b6000602082019050818103600083015261230081846122ad565b905092915050565b6000819050919050565b61231b81612308565b811461232657600080fd5b50565b60008135905061233881612312565b92915050565b60006020828403121561235457612353612188565b5b600061236284828501612329565b91505092915050565b600073ffffffffffffffffffffffffffffffffffffffff82169050919050565b60006123968261236b565b9050919050565b6123a68161238b565b82525050565b60006020820190506123c1600083018461239d565b92915050565b6123d08161238b565b81146123db57600080fd5b50565b6000813590506123ed816123c7565b92915050565b6000806040838503121561240a57612409612188565b5b6000612418858286016123de565b925050602061242985828601612329565b9150509250929050565b60006020828403121561244957612448612188565b5b6000612457848285016123de565b91505092915050565b600080fd5b7f4e487b7100000000000000000000000000000000000000000000000000000000600052604160045260246000fd5b61249d8261229c565b810181811067ffffffffffffffff821117156124bc576124bb612465565b5b80604052505050565b60006124cf61217e565b90506124db8282612494565b919050565b600080fd5b600080fd5b600080fd5b600067ffffffffffffffff82111561250a57612509612465565b5b6125138261229c565b9050602081019050919050565b82818337600083830152505050565b600061254261253d846124ef565b6124c5565b90508281526020810184848401111561255e5761255d6124ea565b5b612569848285612520565b509392505050565b600082601f830112612586576125856124e5565b5b813561259684826020860161252f565b91505092915050565b600067ffffffffffffffff8211156125ba576125b9612465565b5b6125c38261229c565b9050602081019050919050565b60006125e36125de8461259f565b6124c5565b9050828152602081018484840111156125ff576125fe6124ea565b5b61260a848285612520565b509392505050565b600082601f830112612627576126266124e5565b5b81356126378482602086016125d0565b91505092915050565b600060a0828403121561265657612655612460565b5b61266060a06124c5565b9050600082013567ffffffffffffffff8111156126805761267f6124e0565b5b61268c84828501612571565b600083015250602082013567ffffffffffffffff8111156126b0576126af6124e0565b5b6126bc84828501612571565b60208301525060406126d0848285016123de565b604083015250606082013567ffffffffffffffff8111156126f4576126f36124e0565b5b61270084828501612612565b606083015250608082013567ffffffffffffffff811115612724576127236124e0565b5b61273084828501612571565b60808301525092915050565b6000806040838503121561275357612752612188565b5b6000612761858286016123de565b925050602083013567ffffffffffffffff8111156127825761278161218d565b5b61278e85828601612640565b9150509250929050565b6000806000606084860312156127b1576127b0612188565b5b60006127bf868287016123de565b93505060206127d0868287016123de565b92505060406127e186828701612329565b9150509250925092565b6127f481612308565b82525050565b600060208201905061280f60008301846127eb565b92915050565b6000819050919050565b600061283a6128356128308461236b565b612815565b61236b565b9050919050565b600061284c8261281f565b9050919050565b600061285e82612841565b9050919050565b61286e81612853565b82525050565b60006020820190506128896000830184612865565b92915050565b61289881612217565b81146128a357600080fd5b50565b6000813590506128b58161288f565b92915050565b600080604083850312156128d2576128d1612188565b5b60006128e0858286016123de565b92505060206128f1858286016128a6565b9150509250929050565b600061290682612841565b9050919050565b612916816128fb565b82525050565b6000602082019050612931600083018461290d565b92915050565b6000806000806080858703121561295157612950612188565b5b600061295f878288016123de565b9450506020612970878288016123de565b935050604061298187828801612329565b925050606085013567ffffffffffffffff8111156129a2576129a161218d565b5b6129ae87828801612612565b91505092959194509250565b600080604083850312156129d1576129d0612188565b5b60006129df858286016123de565b92505060206129f0858286016123de565b9150509250929050565b7f4e487b7100000000000000000000000000000000000000000000000000000000600052602260045260246000fd5b60006002820490506001821680612a4157607f821691505b602082108103612a5457612a536129fa565b5b50919050565b7f4552433732313a20617070726f76616c20746f2063757272656e74206f776e6560008201527f7200000000000000000000000000000000000000000000000000000000000000602082015250565b6000612ab6602183612258565b9150612ac182612a5a565b604082019050919050565b60006020820190508181036000830152612ae581612aa9565b9050919050565b7f4552433732313a20617070726f76652063616c6c6572206973206e6f7420746f60008201527f6b656e206f776e6572206f7220617070726f76656420666f7220616c6c000000602082015250565b6000612b48603d83612258565b9150612b5382612aec565b604082019050919050565b60006020820190508181036000830152612b7781612b3b565b9050919050565b7f4e487b7100000000000000000000000000000000000000000000000000000000600052601160045260246000fd5b6000612bb882612308565b91507fffffffffffffffffffffffffffffffffffffffffffffffffffffffffffffffff8203612bea57612be9612b7e565b5b600182019050919050565b6000819050919050565b6000612c1a612c15612c1084612bf5565b612815565b612308565b9050919050565b612c2a81612bff565b82525050565b600082825260208201905092915050565b50565b6000612c51600083612c30565b9150612c5c82612c41565b600082019050919050565b600060c082019050612c7c600083018861239d565b612c8960208301876127eb565b612c96604083018661239d565b612ca360608301856127eb565b612cb06080830184612c21565b81810360a0830152612cc181612c44565b90509695505050505050565b600081519050612cdc816123c7565b92915050565b600060208284031215612cf857612cf7612188565b5b6000612d0684828501612ccd565b91505092915050565b612d188161238b565b82525050565b600082825260208201905092915050565b6000612d3a8261224d565b612d448185612d1e565b9350612d54818560208601612269565b612d5d8161229c565b840191505092915050565b600081519050919050565b600082825260208201905092915050565b6000612d8f82612d68565b612d998185612d73565b9350612da9818560208601612269565b612db28161229c565b840191505092915050565b600060c083016000830151612dd56000860182612d0f565b5060208301518482036020860152612ded8282612d2f565b91505060408301518482036040860152612e078282612d2f565b9150506060830151612e1c6060860182612d0f565b5060808301518482036080860152612e348282612d84565b91505060a083015184820360a0860152612e4e8282612d2f565b9150508091505092915050565b60006020820190508181036000830152612e758184612dbd565b905092915050565b600081905092915050565b6000612e938261224d565b612e9d8185612e7d565b9350612ead818560208601612269565b80840191505092915050565b7f2e74657374000000000000000000000000000000000000000000000000000000600082015250565b6000612eef600583612e7d565b9150612efa82612eb9565b600582019050919050565b6000612f118284612e88565b9150612f1c82612ee2565b915081905092915050565b6000606082019050612f3c600083018661239d565b612f4960208301856127eb565b8181036040830152612f5b81846122ad565b9050949350505050565b7f4552433732313a2063616c6c6572206973206e6f7420746f6b656e206f776e6560008201527f72206f7220617070726f76656400000000000000000000000000000000000000602082015250565b6000612fc1602d83612258565b9150612fcc82612f65565b604082019050919050565b60006020820190508181036000830152612ff081612fb4565b9050919050565b7f4552433732313a20696e76616c696420746f6b656e2049440000000000000000600082015250565b600061302d601883612258565b915061303882612ff7565b602082019050919050565b6000602082019050818103600083015261305c81613020565b9050919050565b7f4552433732313a2061646472657373207a65726f206973206e6f74206120766160008201527f6c6964206f776e65720000000000000000000000000000000000000000000000602082015250565b60006130bf602983612258565b91506130ca82613063565b604082019050919050565b600060208201905081810360008301526130ee816130b2565b9050919050565b60006131018285612e88565b915061310d8284612e88565b91508190509392505050565b7f4f776e61626c653a206e6577206f776e657220697320746865207a65726f206160008201527f6464726573730000000000000000000000000000000000000000000000000000602082015250565b6000613175602683612258565b915061318082613119565b604082019050919050565b600060208201905081810360008301526131a481613168565b9050919050565b7f4f776e61626c653a2063616c6c6572206973206e6f7420746865206f776e6572600082015250565b60006131e1602083612258565b91506131ec826131ab565b602082019050919050565b60006020820190508181036000830152613210816131d4565b9050919050565b7f4552433732313a207472616e736665722066726f6d20696e636f72726563742060008201527f6f776e6572000000000000000000000000000000000000000000000000000000602082015250565b6000613273602583612258565b915061327e82613217565b604082019050919050565b600060208201905081810360008301526132a281613266565b9050919050565b7f4552433732313a207472616e7366657220746f20746865207a65726f2061646460008201527f7265737300000000000000000000000000000000000000000000000000000000602082015250565b6000613305602483612258565b9150613310826132a9565b604082019050919050565b60006020820190508181036000830152613334816132f8565b9050919050565b7f4552433732313a20617070726f766520746f2063616c6c657200000000000000600082015250565b6000613371601983612258565b915061337c8261333b565b602082019050919050565b600060208201905081810360008301526133a081613364565b9050919050565b7f4552433732313a207472616e7366657220746f206e6f6e20455243373231526560008201527f63656976657220696d706c656d656e7465720000000000000000000000000000602082015250565b6000613403603283612258565b915061340e826133a7565b604082019050919050565b60006020820190508181036000830152613432816133f6565b9050919050565b7f4e487b7100000000000000000000000000000000000000000000000000000000600052601260045260246000fd5b600061347382612308565b915061347e83612308565b92508282101561349157613490612b7e565b5b828203905092915050565b60006134a782612308565b91506134b283612308565b9250827fffffffffffffffffffffffffffffffffffffffffffffffffffffffffffffffff038211156134e7576134e6612b7e565b5b828201905092915050565b60006134fd82612d68565b6135078185612c30565b9350613517818560208601612269565b6135208161229c565b840191505092915050565b6000608082019050613540600083018761239d565b61354d602083018661239d565b61355a60408301856127eb565b818103606083015261356c81846134f2565b905095945050505050565b600081519050613586816121be565b92915050565b6000602082840312156135a2576135a1612188565b5b60006135b084828501613577565b91505092915050565b7f4552433732313a206d696e7420746f20746865207a65726f2061646472657373600082015250565b60006135ef602083612258565b91506135fa826135b9565b602082019050919050565b6000602082019050818103600083015261361e816135e2565b9050919050565b7f4552433732313a20746f6b656e20616c7265616479206d696e74656400000000600082015250565b600061365b601c83612258565b915061366682613625565b602082019050919050565b6000602082019050818103600083015261368a8161364e565b905091905056fea26469706673582212204617c1fe53f3a93c38de246ee10e40bfb9f41fdd265618e533deab4d714f624b64736f6c634300080d0033",
  "devdoc": {
    "kind": "dev",
    "methods": {
      "approve(address,uint256)": {
        "details": "See {IERC721-approve}."
      },
      "balanceOf(address)": {
        "details": "See {IERC721-balanceOf}."
      },
      "getApproved(uint256)": {
        "details": "See {IERC721-getApproved}."
      },
      "isApprovedForAll(address,address)": {
        "details": "See {IERC721-isApprovedForAll}."
      },
      "name()": {
        "details": "See {IERC721Metadata-name}."
      },
      "owner()": {
        "details": "Returns the address of the current owner."
      },
      "ownerOf(uint256)": {
        "details": "See {IERC721-ownerOf}."
      },
      "renounceOwnership()": {
        "details": "Leaves the contract without owner. It will not be possible to call `onlyOwner` functions anymore. Can only be called by the current owner. NOTE: Renouncing ownership will leave the contract without an owner, thereby removing any functionality that is only available to the owner."
      },
      "safeTransferFrom(address,address,uint256)": {
        "details": "See {IERC721-safeTransferFrom}."
      },
      "safeTransferFrom(address,address,uint256,bytes)": {
        "details": "See {IERC721-safeTransferFrom}."
      },
      "setApprovalForAll(address,bool)": {
        "details": "See {IERC721-setApprovalForAll}."
      },
      "supportsInterface(bytes4)": {
        "details": "See {IERC165-supportsInterface}."
      },
      "symbol()": {
        "details": "See {IERC721Metadata-symbol}."
      },
      "tokenURI(uint256)": {
        "details": "See {IERC721Metadata-tokenURI}."
      },
      "transferFrom(address,address,uint256)": {
        "details": "See {IERC721-transferFrom}."
      },
      "transferOwnership(address)": {
        "details": "Transfers ownership of the contract to a new account (`newOwner`). Can only be called by the current owner."
      }
    },
    "version": 1
  },
  "userdoc": {
    "kind": "user",
    "methods": {},
    "version": 1
  },
  "storageLayout": {
    "storage": [
      {
        "astId": 533,
        "contract": "contracts/TBANFT.sol:TBANFT",
        "label": "_name",
        "offset": 0,
        "slot": "0",
        "type": "t_string_storage"
      },
      {
        "astId": 535,
        "contract": "contracts/TBANFT.sol:TBANFT",
        "label": "_symbol",
        "offset": 0,
        "slot": "1",
        "type": "t_string_storage"
      },
      {
        "astId": 539,
        "contract": "contracts/TBANFT.sol:TBANFT",
        "label": "_owners",
        "offset": 0,
        "slot": "2",
        "type": "t_mapping(t_uint256,t_address)"
      },
      {
        "astId": 543,
        "contract": "contracts/TBANFT.sol:TBANFT",
        "label": "_balances",
        "offset": 0,
        "slot": "3",
        "type": "t_mapping(t_address,t_uint256)"
      },
      {
        "astId": 547,
        "contract": "contracts/TBANFT.sol:TBANFT",
        "label": "_tokenApprovals",
        "offset": 0,
        "slot": "4",
        "type": "t_mapping(t_uint256,t_address)"
      },
      {
        "astId": 553,
        "contract": "contracts/TBANFT.sol:TBANFT",
        "label": "_operatorApprovals",
        "offset": 0,
        "slot": "5",
        "type": "t_mapping(t_address,t_mapping(t_address,t_bool))"
      },
      {
        "astId": 7,
        "contract": "contracts/TBANFT.sol:TBANFT",
        "label": "_owner",
        "offset": 0,
        "slot": "6",
        "type": "t_address"
      },
      {
        "astId": 3232,
        "contract": "contracts/TBANFT.sol:TBANFT",
        "label": "lensHub",
        "offset": 0,
        "slot": "7",
        "type": "t_contract(ILensHub)4442"
      },
      {
        "astId": 3235,
        "contract": "contracts/TBANFT.sol:TBANFT",
        "label": "registry",
        "offset": 0,
        "slot": "8",
        "type": "t_contract(IERC6551Registry)3691"
      },
      {
        "astId": 3237,
        "contract": "contracts/TBANFT.sol:TBANFT",
        "label": "accountImplementation",
        "offset": 0,
        "slot": "9",
        "type": "t_address"
      },
      {
        "astId": 3239,
        "contract": "contracts/TBANFT.sol:TBANFT",
        "label": "profileCreationProxyAddress",
        "offset": 0,
        "slot": "10",
        "type": "t_address"
      },
      {
        "astId": 3242,
        "contract": "contracts/TBANFT.sol:TBANFT",
        "label": "tokenCount",
        "offset": 0,
        "slot": "11",
        "type": "t_uint256"
      }
    ],
    "types": {
      "t_address": {
        "encoding": "inplace",
        "label": "address",
        "numberOfBytes": "20"
      },
      "t_bool": {
        "encoding": "inplace",
        "label": "bool",
        "numberOfBytes": "1"
      },
      "t_contract(IERC6551Registry)3691": {
        "encoding": "inplace",
        "label": "contract IERC6551Registry",
        "numberOfBytes": "20"
      },
      "t_contract(ILensHub)4442": {
        "encoding": "inplace",
        "label": "contract ILensHub",
        "numberOfBytes": "20"
      },
      "t_mapping(t_address,t_bool)": {
        "encoding": "mapping",
        "key": "t_address",
        "label": "mapping(address => bool)",
        "numberOfBytes": "32",
        "value": "t_bool"
      },
      "t_mapping(t_address,t_mapping(t_address,t_bool))": {
        "encoding": "mapping",
        "key": "t_address",
        "label": "mapping(address => mapping(address => bool))",
        "numberOfBytes": "32",
        "value": "t_mapping(t_address,t_bool)"
      },
      "t_mapping(t_address,t_uint256)": {
        "encoding": "mapping",
        "key": "t_address",
        "label": "mapping(address => uint256)",
        "numberOfBytes": "32",
        "value": "t_uint256"
      },
      "t_mapping(t_uint256,t_address)": {
        "encoding": "mapping",
        "key": "t_uint256",
        "label": "mapping(uint256 => address)",
        "numberOfBytes": "32",
        "value": "t_address"
      },
      "t_string_storage": {
        "encoding": "bytes",
        "label": "string",
        "numberOfBytes": "32"
      },
      "t_uint256": {
        "encoding": "inplace",
        "label": "uint256",
        "numberOfBytes": "32"
      }
    }
  }
}