{
  "address": "0xbbDD1675C81d85455Ff83Fcd4F6f95E27Fb9919E",
  "abi": [
    {
      "inputs": [
        {
          "internalType": "address",
          "name": "_erc6551Registry",
          "type": "address"
        },
        {
          "internalType": "address",
          "name": "_accountImplementation",
          "type": "address"
        },
        {
          "internalType": "address",
          "name": "_profileCreationProxyAddress",
          "type": "address"
        },
        {
          "internalType": "address",
          "name": "_lensHubAddress",
          "type": "address"
        }
      ],
      "stateMutability": "nonpayable",
      "type": "constructor"
    },
    {
      "anonymous": false,
      "inputs": [
        {
          "indexed": true,
          "internalType": "address",
          "name": "owner",
          "type": "address"
        },
        {
          "indexed": true,
          "internalType": "address",
          "name": "approved",
          "type": "address"
        },
        {
          "indexed": true,
          "internalType": "uint256",
          "name": "tokenId",
          "type": "uint256"
        }
      ],
      "name": "Approval",
      "type": "event"
    },
    {
      "anonymous": false,
      "inputs": [
        {
          "indexed": true,
          "internalType": "address",
          "name": "owner",
          "type": "address"
        },
        {
          "indexed": true,
          "internalType": "address",
          "name": "operator",
          "type": "address"
        },
        {
          "indexed": false,
          "internalType": "bool",
          "name": "approved",
          "type": "bool"
        }
      ],
      "name": "ApprovalForAll",
      "type": "event"
    },
    {
      "anonymous": false,
      "inputs": [
        {
          "indexed": false,
          "internalType": "address",
          "name": "accountAddress",
          "type": "address"
        },
        {
          "indexed": false,
          "internalType": "address",
          "name": "ownedBy",
          "type": "address"
        },
        {
          "indexed": false,
          "internalType": "uint256",
          "name": "tokenId",
          "type": "uint256"
        },
        {
          "indexed": false,
          "internalType": "string",
          "name": "handle",
          "type": "string"
        }
      ],
      "name": "Created",
      "type": "event"
    },
    {
      "anonymous": false,
      "inputs": [
        {
          "indexed": true,
          "internalType": "address",
          "name": "previousOwner",
          "type": "address"
        },
        {
          "indexed": true,
          "internalType": "address",
          "name": "newOwner",
          "type": "address"
        }
      ],
      "name": "OwnershipTransferred",
      "type": "event"
    },
    {
      "anonymous": false,
      "inputs": [
        {
          "indexed": true,
          "internalType": "address",
          "name": "from",
          "type": "address"
        },
        {
          "indexed": true,
          "internalType": "address",
          "name": "to",
          "type": "address"
        },
        {
          "indexed": true,
          "internalType": "uint256",
          "name": "tokenId",
          "type": "uint256"
        }
      ],
      "name": "Transfer",
      "type": "event"
    },
    {
      "inputs": [],
      "name": "accountImplementation",
      "outputs": [
        {
          "internalType": "address",
          "name": "",
          "type": "address"
        }
      ],
      "stateMutability": "view",
      "type": "function"
    },
    {
      "inputs": [
        {
          "internalType": "address",
          "name": "to",
          "type": "address"
        },
        {
          "internalType": "uint256",
          "name": "tokenId",
          "type": "uint256"
        }
      ],
      "name": "approve",
      "outputs": [],
      "stateMutability": "nonpayable",
      "type": "function"
    },
    {
      "inputs": [
        {
          "internalType": "address",
          "name": "owner",
          "type": "address"
        }
      ],
      "name": "balanceOf",
      "outputs": [
        {
          "internalType": "uint256",
          "name": "",
          "type": "uint256"
        }
      ],
      "stateMutability": "view",
      "type": "function"
    },
    {
      "inputs": [
        {
          "internalType": "uint256",
          "name": "tokenId",
          "type": "uint256"
        }
      ],
      "name": "getApproved",
      "outputs": [
        {
          "internalType": "address",
          "name": "",
          "type": "address"
        }
      ],
      "stateMutability": "view",
      "type": "function"
    },
    {
      "inputs": [
        {
          "internalType": "address",
          "name": "owner",
          "type": "address"
        },
        {
          "internalType": "address",
          "name": "operator",
          "type": "address"
        }
      ],
      "name": "isApprovedForAll",
      "outputs": [
        {
          "internalType": "bool",
          "name": "",
          "type": "bool"
        }
      ],
      "stateMutability": "view",
      "type": "function"
    },
    {
      "inputs": [],
      "name": "lensHub",
      "outputs": [
        {
          "internalType": "contract ILensHub",
          "name": "",
          "type": "address"
        }
      ],
      "stateMutability": "view",
      "type": "function"
    },
    {
      "inputs": [
        {
          "internalType": "address",
          "name": "to",
          "type": "address"
        },
        {
          "components": [
            {
              "internalType": "string",
              "name": "handle",
              "type": "string"
            },
            {
              "internalType": "string",
              "name": "imageURI",
              "type": "string"
            },
            {
              "internalType": "address",
              "name": "followModule",
              "type": "address"
            },
            {
              "internalType": "bytes",
              "name": "followModuleInitData",
              "type": "bytes"
            },
            {
              "internalType": "string",
              "name": "followNFTURI",
              "type": "string"
            }
          ],
          "internalType": "struct PartialCreateProfileData",
          "name": "vars",
          "type": "tuple"
        }
      ],
      "name": "mintHandle",
      "outputs": [],
      "stateMutability": "nonpayable",
      "type": "function"
    },
    {
      "inputs": [],
      "name": "name",
      "outputs": [
        {
          "internalType": "string",
          "name": "",
          "type": "string"
        }
      ],
      "stateMutability": "view",
      "type": "function"
    },
    {
      "inputs": [],
      "name": "owner",
      "outputs": [
        {
          "internalType": "address",
          "name": "",
          "type": "address"
        }
      ],
      "stateMutability": "view",
      "type": "function"
    },
    {
      "inputs": [
        {
          "internalType": "uint256",
          "name": "tokenId",
          "type": "uint256"
        }
      ],
      "name": "ownerOf",
      "outputs": [
        {
          "internalType": "address",
          "name": "",
          "type": "address"
        }
      ],
      "stateMutability": "view",
      "type": "function"
    },
    {
      "inputs": [],
      "name": "profileCreationProxyAddress",
      "outputs": [
        {
          "internalType": "address",
          "name": "",
          "type": "address"
        }
      ],
      "stateMutability": "view",
      "type": "function"
    },
    {
      "inputs": [],
      "name": "registry",
      "outputs": [
        {
          "internalType": "contract IERC6551Registry",
          "name": "",
          "type": "address"
        }
      ],
      "stateMutability": "view",
      "type": "function"
    },
    {
      "inputs": [],
      "name": "renounceOwnership",
      "outputs": [],
      "stateMutability": "nonpayable",
      "type": "function"
    },
    {
      "inputs": [
        {
          "internalType": "address",
          "name": "to",
          "type": "address"
        }
      ],
      "name": "safeMint",
      "outputs": [],
      "stateMutability": "nonpayable",
      "type": "function"
    },
    {
      "inputs": [
        {
          "internalType": "address",
          "name": "from",
          "type": "address"
        },
        {
          "internalType": "address",
          "name": "to",
          "type": "address"
        },
        {
          "internalType": "uint256",
          "name": "tokenId",
          "type": "uint256"
        }
      ],
      "name": "safeTransferFrom",
      "outputs": [],
      "stateMutability": "nonpayable",
      "type": "function"
    },
    {
      "inputs": [
        {
          "internalType": "address",
          "name": "from",
          "type": "address"
        },
        {
          "internalType": "address",
          "name": "to",
          "type": "address"
        },
        {
          "internalType": "uint256",
          "name": "tokenId",
          "type": "uint256"
        },
        {
          "internalType": "bytes",
          "name": "data",
          "type": "bytes"
        }
      ],
      "name": "safeTransferFrom",
      "outputs": [],
      "stateMutability": "nonpayable",
      "type": "function"
    },
    {
      "inputs": [
        {
          "internalType": "address",
          "name": "_accountImplementation",
          "type": "address"
        }
      ],
      "name": "setAccountImplementation",
      "outputs": [],
      "stateMutability": "nonpayable",
      "type": "function"
    },
    {
      "inputs": [
        {
          "internalType": "address",
          "name": "operator",
          "type": "address"
        },
        {
          "internalType": "bool",
          "name": "approved",
          "type": "bool"
        }
      ],
      "name": "setApprovalForAll",
      "outputs": [],
      "stateMutability": "nonpayable",
      "type": "function"
    },
    {
      "inputs": [
        {
          "internalType": "address",
          "name": "_lensHubAddress",
          "type": "address"
        }
      ],
      "name": "setLensHub",
      "outputs": [],
      "stateMutability": "nonpayable",
      "type": "function"
    },
    {
      "inputs": [
        {
          "internalType": "address",
          "name": "_profileCreationProxyAddress",
          "type": "address"
        }
      ],
      "name": "setProxy",
      "outputs": [],
      "stateMutability": "nonpayable",
      "type": "function"
    },
    {
      "inputs": [
        {
          "internalType": "address",
          "name": "_erc6551Registry",
          "type": "address"
        }
      ],
      "name": "setRegistry",
      "outputs": [],
      "stateMutability": "nonpayable",
      "type": "function"
    },
    {
      "inputs": [
        {
          "internalType": "bytes4",
          "name": "interfaceId",
          "type": "bytes4"
        }
      ],
      "name": "supportsInterface",
      "outputs": [
        {
          "internalType": "bool",
          "name": "",
          "type": "bool"
        }
      ],
      "stateMutability": "view",
      "type": "function"
    },
    {
      "inputs": [],
      "name": "symbol",
      "outputs": [
        {
          "internalType": "string",
          "name": "",
          "type": "string"
        }
      ],
      "stateMutability": "view",
      "type": "function"
    },
    {
      "inputs": [
        {
          "internalType": "uint256",
          "name": "tokenId",
          "type": "uint256"
        }
      ],
      "name": "tokenURI",
      "outputs": [
        {
          "internalType": "string",
          "name": "",
          "type": "string"
        }
      ],
      "stateMutability": "view",
      "type": "function"
    },
    {
      "inputs": [
        {
          "internalType": "address",
          "name": "from",
          "type": "address"
        },
        {
          "internalType": "address",
          "name": "to",
          "type": "address"
        },
        {
          "internalType": "uint256",
          "name": "tokenId",
          "type": "uint256"
        }
      ],
      "name": "transferFrom",
      "outputs": [],
      "stateMutability": "nonpayable",
      "type": "function"
    },
    {
      "inputs": [
        {
          "internalType": "address",
          "name": "newOwner",
          "type": "address"
        }
      ],
      "name": "transferOwnership",
      "outputs": [],
      "stateMutability": "nonpayable",
      "type": "function"
    }
  ],
  "transactionHash": "0x2917d1335d57ae30cfeb7e64662420f3e245dba0bdd82a642ee575af33cf83b8",
  "args": [
    "0xaeC544536a6405A2422745b7D7EBA7655844554B",
    "0xDD5E2e8aC4408D133167DbBA80a3BED6990182BC",
    "0x420f0257D43145bb002E69B14FF2Eb9630Fc4736",
    "0x60Ae865ee4C725cd04353b5AAb364553f56ceF82"
  ],
  "numDeployments": 5,
  "solcInputHash": "10ce7967ba905905324623c780d24c28",
  "bytecode": "0x60806040526000600b553480156200001657600080fd5b5060405162003baf38038062003baf83398181016040528101906200003c9190620003f2565b6040518060400160405280601781526020017f546f6b656e20626f756e64206163636f756e74204e46540000000000000000008152506040518060400160405280600681526020017f5442414e465400000000000000000000000000000000000000000000000000008152508160009080519060200190620000c0929190620002d8565b508060019080519060200190620000d9929190620002d8565b505050620000fc620000f06200020a60201b60201c565b6200021260201b60201c565b80600760006101000a81548173ffffffffffffffffffffffffffffffffffffffff021916908373ffffffffffffffffffffffffffffffffffffffff16021790555083600860006101000a81548173ffffffffffffffffffffffffffffffffffffffff021916908373ffffffffffffffffffffffffffffffffffffffff16021790555082600960006101000a81548173ffffffffffffffffffffffffffffffffffffffff021916908373ffffffffffffffffffffffffffffffffffffffff16021790555081600a60006101000a81548173ffffffffffffffffffffffffffffffffffffffff021916908373ffffffffffffffffffffffffffffffffffffffff16021790555050505050620004c8565b600033905090565b6000600660009054906101000a900473ffffffffffffffffffffffffffffffffffffffff16905081600660006101000a81548173ffffffffffffffffffffffffffffffffffffffff021916908373ffffffffffffffffffffffffffffffffffffffff1602179055508173ffffffffffffffffffffffffffffffffffffffff168173ffffffffffffffffffffffffffffffffffffffff167f8be0079c531659141344cd1fd0a4f28419497f9722a3daafe3b4186f6b6457e060405160405180910390a35050565b828054620002e69062000493565b90600052602060002090601f0160209004810192826200030a576000855562000356565b82601f106200032557805160ff191683800117855562000356565b8280016001018555821562000356579182015b828111156200035557825182559160200191906001019062000338565b5b50905062000365919062000369565b5090565b5b80821115620003845760008160009055506001016200036a565b5090565b600080fd5b600073ffffffffffffffffffffffffffffffffffffffff82169050919050565b6000620003ba826200038d565b9050919050565b620003cc81620003ad565b8114620003d857600080fd5b50565b600081519050620003ec81620003c1565b92915050565b600080600080608085870312156200040f576200040e62000388565b5b60006200041f87828801620003db565b94505060206200043287828801620003db565b93505060406200044587828801620003db565b92505060606200045887828801620003db565b91505092959194509250565b7f4e487b7100000000000000000000000000000000000000000000000000000000600052602260045260246000fd5b60006002820490506001821680620004ac57607f821691505b602082108103620004c257620004c162000464565b5b50919050565b6136d780620004d86000396000f3fe608060405234801561001057600080fd5b506004361061018e5760003560e01c8063715018a6116100de578063a91ee0dc11610097578063c87b56dd11610071578063c87b56dd14610447578063d9ef30bf14610477578063e985e9c514610493578063f2fde38b146104c35761018e565b8063a91ee0dc146103f1578063b02cfdc31461040d578063b88d4fde1461042b5761018e565b8063715018a6146103555780637b1039991461035f5780638da5cb5b1461037d57806395d89b411461039b57806397107d6d146103b9578063a22cb465146103d55761018e565b806319fe9c301161014b57806342842e0e1161012557806342842e0e146102bb57806354754ce6146102d75780636352211e146102f557806370a08231146103255761018e565b806319fe9c301461026757806323b872dd1461028357806340d097c31461029f5761018e565b806301ffc9a71461019357806306fdde03146101c3578063081812fc146101e1578063095ea7b31461021157806309766da21461022d57806311464fbe14610249575b600080fd5b6101ad60048036038101906101a891906121ec565b6104df565b6040516101ba9190612234565b60405180910390f35b6101cb6105c1565b6040516101d891906122e8565b60405180910390f35b6101fb60048036038101906101f69190612340565b610653565b60405161020891906123ae565b60405180910390f35b61022b600480360381019061022691906123f5565b610699565b005b61024760048036038101906102429190612435565b6107b0565b005b6102516107fc565b60405161025e91906123ae565b60405180910390f35b610281600480360381019061027c919061273e565b610822565b005b61029d6004803603810190610298919061279a565b610a7d565b005b6102b960048036038101906102b49190612435565b610add565b005b6102d560048036038101906102d0919061279a565b610bd4565b005b6102df610bf4565b6040516102ec91906123ae565b60405180910390f35b61030f600480360381019061030a9190612340565b610c1a565b60405161031c91906123ae565b60405180910390f35b61033f600480360381019061033a9190612435565b610ca0565b60405161034c91906127fc565b60405180910390f35b61035d610d57565b005b610367610d6b565b6040516103749190612876565b60405180910390f35b610385610d91565b60405161039291906123ae565b60405180910390f35b6103a3610dbb565b6040516103b091906122e8565b60405180910390f35b6103d360048036038101906103ce9190612435565b610e4d565b005b6103ef60048036038101906103ea91906128bd565b610e99565b005b61040b60048036038101906104069190612435565b610eaf565b005b610415610efb565b604051610422919061291e565b60405180910390f35b61044560048036038101906104409190612939565b610f21565b005b610461600480360381019061045c9190612340565b610f83565b60405161046e91906122e8565b60405180910390f35b610491600480360381019061048c9190612435565b610feb565b005b6104ad60048036038101906104a891906129bc565b611037565b6040516104ba9190612234565b60405180910390f35b6104dd60048036038101906104d89190612435565b6110cb565b005b60007f80ac58cd000000000000000000000000000000000000000000000000000000007bffffffffffffffffffffffffffffffffffffffffffffffffffffffff1916827bffffffffffffffffffffffffffffffffffffffffffffffffffffffff191614806105aa57507f5b5e139f000000000000000000000000000000000000000000000000000000007bffffffffffffffffffffffffffffffffffffffffffffffffffffffff1916827bffffffffffffffffffffffffffffffffffffffffffffffffffffffff1916145b806105ba57506105b98261114e565b5b9050919050565b6060600080546105d090612a2b565b80601f01602080910402602001604051908101604052809291908181526020018280546105fc90612a2b565b80156106495780601f1061061e57610100808354040283529160200191610649565b820191906000526020600020905b81548152906001019060200180831161062c57829003601f168201915b5050505050905090565b600061065e826111b8565b6004600083815260200190815260200160002060009054906101000a900473ffffffffffffffffffffffffffffffffffffffff169050919050565b60006106a482610c1a565b90508073ffffffffffffffffffffffffffffffffffffffff168373ffffffffffffffffffffffffffffffffffffffff1603610714576040517f08c379a000000000000000000000000000000000000000000000000000000000815260040161070b90612ace565b60405180910390fd5b8073ffffffffffffffffffffffffffffffffffffffff16610733611203565b73ffffffffffffffffffffffffffffffffffffffff16148061076257506107618161075c611203565b611037565b5b6107a1576040517f08c379a000000000000000000000000000000000000000000000000000000000815260040161079890612b60565b60405180910390fd5b6107ab838361120b565b505050565b6107b86112c4565b80600960006101000a81548173ffffffffffffffffffffffffffffffffffffffff021916908373ffffffffffffffffffffffffffffffffffffffff16021790555050565b600960009054906101000a900473ffffffffffffffffffffffffffffffffffffffff1681565b6000600b5490506108338382611342565b600b600081548092919061084690612baf565b91905055506000600860009054906101000a900473ffffffffffffffffffffffffffffffffffffffff1673ffffffffffffffffffffffffffffffffffffffff1663da7323b3600960009054906101000a900473ffffffffffffffffffffffffffffffffffffffff1646308660006040518663ffffffff1660e01b81526004016108d3959493929190612c69565b6020604051808303816000875af11580156108f2573d6000803e3d6000fd5b505050506040513d601f19601f820116820180604052508101906109169190612ce4565b905060006040518060c001604052808373ffffffffffffffffffffffffffffffffffffffff1681526020018560000151815260200185602001518152602001856040015173ffffffffffffffffffffffffffffffffffffffff1681526020018560600151815260200185608001518152509050600a60009054906101000a900473ffffffffffffffffffffffffffffffffffffffff1673ffffffffffffffffffffffffffffffffffffffff166307e5f948826040518263ffffffff1660e01b81526004016109e49190612e5d565b600060405180830381600087803b1580156109fe57600080fd5b505af1158015610a12573d6000803e3d6000fd5b505050507ff238fcd2133237bc5ae0e1f42086a193f4fddae976468b0797a9260c8f2922198286858760000151604051602001610a4f9190612f07565b604051602081830303815290604052604051610a6e9493929190612f29565b60405180910390a15050505050565b610a8e610a88611203565b82611360565b610acd576040517f08c379a0000000000000000000000000000000000000000000000000000000008152600401610ac490612fe7565b60405180910390fd5b610ad88383836113f5565b505050565b6000600b549050610aee8282611342565b600b6000815480929190610b0190612baf565b9190505550600860009054906101000a900473ffffffffffffffffffffffffffffffffffffffff1673ffffffffffffffffffffffffffffffffffffffff1663da7323b3600960009054906101000a900473ffffffffffffffffffffffffffffffffffffffff1646308560006040518663ffffffff1660e01b8152600401610b8c959493929190612c69565b6020604051808303816000875af1158015610bab573d6000803e3d6000fd5b505050506040513d601f19601f82011682018060405250810190610bcf9190612ce4565b505050565b610bef83838360405180602001604052806000815250610f21565b505050565b600a60009054906101000a900473ffffffffffffffffffffffffffffffffffffffff1681565b600080610c26836116ee565b9050600073ffffffffffffffffffffffffffffffffffffffff168173ffffffffffffffffffffffffffffffffffffffff1603610c97576040517f08c379a0000000000000000000000000000000000000000000000000000000008152600401610c8e90613053565b60405180910390fd5b80915050919050565b60008073ffffffffffffffffffffffffffffffffffffffff168273ffffffffffffffffffffffffffffffffffffffff1603610d10576040517f08c379a0000000000000000000000000000000000000000000000000000000008152600401610d07906130e5565b60405180910390fd5b600360008373ffffffffffffffffffffffffffffffffffffffff1673ffffffffffffffffffffffffffffffffffffffff168152602001908152602001600020549050919050565b610d5f6112c4565b610d69600061172b565b565b600860009054906101000a900473ffffffffffffffffffffffffffffffffffffffff1681565b6000600660009054906101000a900473ffffffffffffffffffffffffffffffffffffffff16905090565b606060018054610dca90612a2b565b80601f0160208091040260200160405190810160405280929190818152602001828054610df690612a2b565b8015610e435780601f10610e1857610100808354040283529160200191610e43565b820191906000526020600020905b815481529060010190602001808311610e2657829003601f168201915b5050505050905090565b610e556112c4565b80600a60006101000a81548173ffffffffffffffffffffffffffffffffffffffff021916908373ffffffffffffffffffffffffffffffffffffffff16021790555050565b610eab610ea4611203565b83836117f1565b5050565b610eb76112c4565b80600860006101000a81548173ffffffffffffffffffffffffffffffffffffffff021916908373ffffffffffffffffffffffffffffffffffffffff16021790555050565b600760009054906101000a900473ffffffffffffffffffffffffffffffffffffffff1681565b610f32610f2c611203565b83611360565b610f71576040517f08c379a0000000000000000000000000000000000000000000000000000000008152600401610f6890612fe7565b60405180910390fd5b610f7d8484848461195d565b50505050565b6060610f8e826111b8565b6000610f986119b9565b90506000815111610fb85760405180602001604052806000815250610fe3565b80610fc2846119d0565b604051602001610fd3929190613105565b6040516020818303038152906040525b915050919050565b610ff36112c4565b80600760006101000a81548173ffffffffffffffffffffffffffffffffffffffff021916908373ffffffffffffffffffffffffffffffffffffffff16021790555050565b6000600560008473ffffffffffffffffffffffffffffffffffffffff1673ffffffffffffffffffffffffffffffffffffffff16815260200190815260200160002060008373ffffffffffffffffffffffffffffffffffffffff1673ffffffffffffffffffffffffffffffffffffffff16815260200190815260200160002060009054906101000a900460ff16905092915050565b6110d36112c4565b600073ffffffffffffffffffffffffffffffffffffffff168173ffffffffffffffffffffffffffffffffffffffff1603611142576040517f08c379a00000000000000000000000000000000000000000000000000000000081526004016111399061319b565b60405180910390fd5b61114b8161172b565b50565b60007f01ffc9a7000000000000000000000000000000000000000000000000000000007bffffffffffffffffffffffffffffffffffffffffffffffffffffffff1916827bffffffffffffffffffffffffffffffffffffffffffffffffffffffff1916149050919050565b6111c181611a9e565b611200576040517f08c379a00000000000000000000000000000000000000000000000000000000081526004016111f790613053565b60405180910390fd5b50565b600033905090565b816004600083815260200190815260200160002060006101000a81548173ffffffffffffffffffffffffffffffffffffffff021916908373ffffffffffffffffffffffffffffffffffffffff160217905550808273ffffffffffffffffffffffffffffffffffffffff1661127e83610c1a565b73ffffffffffffffffffffffffffffffffffffffff167f8c5be1e5ebec7d5bd14f71427d1e84f3dd0314c0f7b2291e5b200ac8c7c3b92560405160405180910390a45050565b6112cc611203565b73ffffffffffffffffffffffffffffffffffffffff166112ea610d91565b73ffffffffffffffffffffffffffffffffffffffff1614611340576040517f08c379a000000000000000000000000000000000000000000000000000000000815260040161133790613207565b60405180910390fd5b565b61135c828260405180602001604052806000815250611adf565b5050565b60008061136c83610c1a565b90508073ffffffffffffffffffffffffffffffffffffffff168473ffffffffffffffffffffffffffffffffffffffff1614806113ae57506113ad8185611037565b5b806113ec57508373ffffffffffffffffffffffffffffffffffffffff166113d484610653565b73ffffffffffffffffffffffffffffffffffffffff16145b91505092915050565b8273ffffffffffffffffffffffffffffffffffffffff1661141582610c1a565b73ffffffffffffffffffffffffffffffffffffffff161461146b576040517f08c379a000000000000000000000000000000000000000000000000000000000815260040161146290613299565b60405180910390fd5b600073ffffffffffffffffffffffffffffffffffffffff168273ffffffffffffffffffffffffffffffffffffffff16036114da576040517f08c379a00000000000000000000000000000000000000000000000000000000081526004016114d19061332b565b60405180910390fd5b6114e78383836001611b3a565b8273ffffffffffffffffffffffffffffffffffffffff1661150782610c1a565b73ffffffffffffffffffffffffffffffffffffffff161461155d576040517f08c379a000000000000000000000000000000000000000000000000000000000815260040161155490613299565b60405180910390fd5b6004600082815260200190815260200160002060006101000a81549073ffffffffffffffffffffffffffffffffffffffff02191690556001600360008573ffffffffffffffffffffffffffffffffffffffff1673ffffffffffffffffffffffffffffffffffffffff168152602001908152602001600020600082825403925050819055506001600360008473ffffffffffffffffffffffffffffffffffffffff1673ffffffffffffffffffffffffffffffffffffffff16815260200190815260200160002060008282540192505081905550816002600083815260200190815260200160002060006101000a81548173ffffffffffffffffffffffffffffffffffffffff021916908373ffffffffffffffffffffffffffffffffffffffff160217905550808273ffffffffffffffffffffffffffffffffffffffff168473ffffffffffffffffffffffffffffffffffffffff167fddf252ad1be2c89b69c2b068fc378daa952ba7f163c4a11628f55a4df523b3ef60405160405180910390a46116e98383836001611c60565b505050565b60006002600083815260200190815260200160002060009054906101000a900473ffffffffffffffffffffffffffffffffffffffff169050919050565b6000600660009054906101000a900473ffffffffffffffffffffffffffffffffffffffff16905081600660006101000a81548173ffffffffffffffffffffffffffffffffffffffff021916908373ffffffffffffffffffffffffffffffffffffffff1602179055508173ffffffffffffffffffffffffffffffffffffffff168173ffffffffffffffffffffffffffffffffffffffff167f8be0079c531659141344cd1fd0a4f28419497f9722a3daafe3b4186f6b6457e060405160405180910390a35050565b8173ffffffffffffffffffffffffffffffffffffffff168373ffffffffffffffffffffffffffffffffffffffff160361185f576040517f08c379a000000000000000000000000000000000000000000000000000000000815260040161185690613397565b60405180910390fd5b80600560008573ffffffffffffffffffffffffffffffffffffffff1673ffffffffffffffffffffffffffffffffffffffff16815260200190815260200160002060008473ffffffffffffffffffffffffffffffffffffffff1673ffffffffffffffffffffffffffffffffffffffff16815260200190815260200160002060006101000a81548160ff0219169083151502179055508173ffffffffffffffffffffffffffffffffffffffff168373ffffffffffffffffffffffffffffffffffffffff167f17307eab39ab6107e8899845ad3d59bd9653f200f220920489ca2b5937696c31836040516119509190612234565b60405180910390a3505050565b6119688484846113f5565b61197484848484611c66565b6119b3576040517f08c379a00000000000000000000000000000000000000000000000000000000081526004016119aa90613429565b60405180910390fd5b50505050565b606060405180602001604052806000815250905090565b6060600060016119df84611ded565b01905060008167ffffffffffffffff8111156119fe576119fd612467565b5b6040519080825280601f01601f191660200182016040528015611a305781602001600182028036833780820191505090505b509050600082602001820190505b600115611a93578080600190039150507f3031323334353637383961626364656600000000000000000000000000000000600a86061a8153600a8581611a8757611a86613449565b5b04945060008503611a3e575b819350505050919050565b60008073ffffffffffffffffffffffffffffffffffffffff16611ac0836116ee565b73ffffffffffffffffffffffffffffffffffffffff1614159050919050565b611ae98383611f40565b611af66000848484611c66565b611b35576040517f08c379a0000000000000000000000000000000000000000000000000000000008152600401611b2c90613429565b60405180910390fd5b505050565b6001811115611c5a57600073ffffffffffffffffffffffffffffffffffffffff168473ffffffffffffffffffffffffffffffffffffffff1614611bce5780600360008673ffffffffffffffffffffffffffffffffffffffff1673ffffffffffffffffffffffffffffffffffffffff1681526020019081526020016000206000828254611bc69190613478565b925050819055505b600073ffffffffffffffffffffffffffffffffffffffff168373ffffffffffffffffffffffffffffffffffffffff1614611c595780600360008573ffffffffffffffffffffffffffffffffffffffff1673ffffffffffffffffffffffffffffffffffffffff1681526020019081526020016000206000828254611c5191906134ac565b925050819055505b5b50505050565b50505050565b6000611c878473ffffffffffffffffffffffffffffffffffffffff1661215d565b15611de0578373ffffffffffffffffffffffffffffffffffffffff1663150b7a02611cb0611203565b8786866040518563ffffffff1660e01b8152600401611cd2949392919061353b565b6020604051808303816000875af1925050508015611d0e57506040513d601f19601f82011682018060405250810190611d0b919061359c565b60015b611d90573d8060008114611d3e576040519150601f19603f3d011682016040523d82523d6000602084013e611d43565b606091505b506000815103611d88576040517f08c379a0000000000000000000000000000000000000000000000000000000008152600401611d7f90613429565b60405180910390fd5b805181602001fd5b63150b7a0260e01b7bffffffffffffffffffffffffffffffffffffffffffffffffffffffff1916817bffffffffffffffffffffffffffffffffffffffffffffffffffffffff191614915050611de5565b600190505b949350505050565b600080600090507a184f03e93ff9f4daa797ed6e38ed64bf6a1f0100000000000000008310611e4b577a184f03e93ff9f4daa797ed6e38ed64bf6a1f0100000000000000008381611e4157611e40613449565b5b0492506040810190505b6d04ee2d6d415b85acef81000000008310611e88576d04ee2d6d415b85acef81000000008381611e7e57611e7d613449565b5b0492506020810190505b662386f26fc100008310611eb757662386f26fc100008381611ead57611eac613449565b5b0492506010810190505b6305f5e1008310611ee0576305f5e1008381611ed657611ed5613449565b5b0492506008810190505b6127108310611f05576127108381611efb57611efa613449565b5b0492506004810190505b60648310611f285760648381611f1e57611f1d613449565b5b0492506002810190505b600a8310611f37576001810190505b80915050919050565b600073ffffffffffffffffffffffffffffffffffffffff168273ffffffffffffffffffffffffffffffffffffffff1603611faf576040517f08c379a0000000000000000000000000000000000000000000000000000000008152600401611fa690613615565b60405180910390fd5b611fb881611a9e565b15611ff8576040517f08c379a0000000000000000000000000000000000000000000000000000000008152600401611fef90613681565b60405180910390fd5b612006600083836001611b3a565b61200f81611a9e565b1561204f576040517f08c379a000000000000000000000000000000000000000000000000000000000815260040161204690613681565b60405180910390fd5b6001600360008473ffffffffffffffffffffffffffffffffffffffff1673ffffffffffffffffffffffffffffffffffffffff16815260200190815260200160002060008282540192505081905550816002600083815260200190815260200160002060006101000a81548173ffffffffffffffffffffffffffffffffffffffff021916908373ffffffffffffffffffffffffffffffffffffffff160217905550808273ffffffffffffffffffffffffffffffffffffffff16600073ffffffffffffffffffffffffffffffffffffffff167fddf252ad1be2c89b69c2b068fc378daa952ba7f163c4a11628f55a4df523b3ef60405160405180910390a4612159600083836001611c60565b5050565b6000808273ffffffffffffffffffffffffffffffffffffffff163b119050919050565b6000604051905090565b600080fd5b600080fd5b60007fffffffff0000000000000000000000000000000000000000000000000000000082169050919050565b6121c981612194565b81146121d457600080fd5b50565b6000813590506121e6816121c0565b92915050565b6000602082840312156122025761220161218a565b5b6000612210848285016121d7565b91505092915050565b60008115159050919050565b61222e81612219565b82525050565b60006020820190506122496000830184612225565b92915050565b600081519050919050565b600082825260208201905092915050565b60005b8381101561228957808201518184015260208101905061226e565b83811115612298576000848401525b50505050565b6000601f19601f8301169050919050565b60006122ba8261224f565b6122c4818561225a565b93506122d481856020860161226b565b6122dd8161229e565b840191505092915050565b6000602082019050818103600083015261230281846122af565b905092915050565b6000819050919050565b61231d8161230a565b811461232857600080fd5b50565b60008135905061233a81612314565b92915050565b6000602082840312156123565761235561218a565b5b60006123648482850161232b565b91505092915050565b600073ffffffffffffffffffffffffffffffffffffffff82169050919050565b60006123988261236d565b9050919050565b6123a88161238d565b82525050565b60006020820190506123c3600083018461239f565b92915050565b6123d28161238d565b81146123dd57600080fd5b50565b6000813590506123ef816123c9565b92915050565b6000806040838503121561240c5761240b61218a565b5b600061241a858286016123e0565b925050602061242b8582860161232b565b9150509250929050565b60006020828403121561244b5761244a61218a565b5b6000612459848285016123e0565b91505092915050565b600080fd5b7f4e487b7100000000000000000000000000000000000000000000000000000000600052604160045260246000fd5b61249f8261229e565b810181811067ffffffffffffffff821117156124be576124bd612467565b5b80604052505050565b60006124d1612180565b90506124dd8282612496565b919050565b600080fd5b600080fd5b600080fd5b600067ffffffffffffffff82111561250c5761250b612467565b5b6125158261229e565b9050602081019050919050565b82818337600083830152505050565b600061254461253f846124f1565b6124c7565b9050828152602081018484840111156125605761255f6124ec565b5b61256b848285612522565b509392505050565b600082601f830112612588576125876124e7565b5b8135612598848260208601612531565b91505092915050565b600067ffffffffffffffff8211156125bc576125bb612467565b5b6125c58261229e565b9050602081019050919050565b60006125e56125e0846125a1565b6124c7565b905082815260208101848484011115612601576126006124ec565b5b61260c848285612522565b509392505050565b600082601f830112612629576126286124e7565b5b81356126398482602086016125d2565b91505092915050565b600060a0828403121561265857612657612462565b5b61266260a06124c7565b9050600082013567ffffffffffffffff811115612682576126816124e2565b5b61268e84828501612573565b600083015250602082013567ffffffffffffffff8111156126b2576126b16124e2565b5b6126be84828501612573565b60208301525060406126d2848285016123e0565b604083015250606082013567ffffffffffffffff8111156126f6576126f56124e2565b5b61270284828501612614565b606083015250608082013567ffffffffffffffff811115612726576127256124e2565b5b61273284828501612573565b60808301525092915050565b600080604083850312156127555761275461218a565b5b6000612763858286016123e0565b925050602083013567ffffffffffffffff8111156127845761278361218f565b5b61279085828601612642565b9150509250929050565b6000806000606084860312156127b3576127b261218a565b5b60006127c1868287016123e0565b93505060206127d2868287016123e0565b92505060406127e38682870161232b565b9150509250925092565b6127f68161230a565b82525050565b600060208201905061281160008301846127ed565b92915050565b6000819050919050565b600061283c6128376128328461236d565b612817565b61236d565b9050919050565b600061284e82612821565b9050919050565b600061286082612843565b9050919050565b61287081612855565b82525050565b600060208201905061288b6000830184612867565b92915050565b61289a81612219565b81146128a557600080fd5b50565b6000813590506128b781612891565b92915050565b600080604083850312156128d4576128d361218a565b5b60006128e2858286016123e0565b92505060206128f3858286016128a8565b9150509250929050565b600061290882612843565b9050919050565b612918816128fd565b82525050565b6000602082019050612933600083018461290f565b92915050565b600080600080608085870312156129535761295261218a565b5b6000612961878288016123e0565b9450506020612972878288016123e0565b93505060406129838782880161232b565b925050606085013567ffffffffffffffff8111156129a4576129a361218f565b5b6129b087828801612614565b91505092959194509250565b600080604083850312156129d3576129d261218a565b5b60006129e1858286016123e0565b92505060206129f2858286016123e0565b9150509250929050565b7f4e487b7100000000000000000000000000000000000000000000000000000000600052602260045260246000fd5b60006002820490506001821680612a4357607f821691505b602082108103612a5657612a556129fc565b5b50919050565b7f4552433732313a20617070726f76616c20746f2063757272656e74206f776e6560008201527f7200000000000000000000000000000000000000000000000000000000000000602082015250565b6000612ab860218361225a565b9150612ac382612a5c565b604082019050919050565b60006020820190508181036000830152612ae781612aab565b9050919050565b7f4552433732313a20617070726f76652063616c6c6572206973206e6f7420746f60008201527f6b656e206f776e6572206f7220617070726f76656420666f7220616c6c000000602082015250565b6000612b4a603d8361225a565b9150612b5582612aee565b604082019050919050565b60006020820190508181036000830152612b7981612b3d565b9050919050565b7f4e487b7100000000000000000000000000000000000000000000000000000000600052601160045260246000fd5b6000612bba8261230a565b91507fffffffffffffffffffffffffffffffffffffffffffffffffffffffffffffffff8203612bec57612beb612b80565b5b600182019050919050565b6000819050919050565b6000612c1c612c17612c1284612bf7565b612817565b61230a565b9050919050565b612c2c81612c01565b82525050565b600082825260208201905092915050565b50565b6000612c53600083612c32565b9150612c5e82612c43565b600082019050919050565b600060c082019050612c7e600083018861239f565b612c8b60208301876127ed565b612c98604083018661239f565b612ca560608301856127ed565b612cb26080830184612c23565b81810360a0830152612cc381612c46565b90509695505050505050565b600081519050612cde816123c9565b92915050565b600060208284031215612cfa57612cf961218a565b5b6000612d0884828501612ccf565b91505092915050565b612d1a8161238d565b82525050565b600082825260208201905092915050565b6000612d3c8261224f565b612d468185612d20565b9350612d5681856020860161226b565b612d5f8161229e565b840191505092915050565b600081519050919050565b600082825260208201905092915050565b6000612d9182612d6a565b612d9b8185612d75565b9350612dab81856020860161226b565b612db48161229e565b840191505092915050565b600060c083016000830151612dd76000860182612d11565b5060208301518482036020860152612def8282612d31565b91505060408301518482036040860152612e098282612d31565b9150506060830151612e1e6060860182612d11565b5060808301518482036080860152612e368282612d86565b91505060a083015184820360a0860152612e508282612d31565b9150508091505092915050565b60006020820190508181036000830152612e778184612dbf565b905092915050565b600081905092915050565b6000612e958261224f565b612e9f8185612e7f565b9350612eaf81856020860161226b565b80840191505092915050565b7f2e74657374000000000000000000000000000000000000000000000000000000600082015250565b6000612ef1600583612e7f565b9150612efc82612ebb565b600582019050919050565b6000612f138284612e8a565b9150612f1e82612ee4565b915081905092915050565b6000608082019050612f3e600083018761239f565b612f4b602083018661239f565b612f5860408301856127ed565b8181036060830152612f6a81846122af565b905095945050505050565b7f4552433732313a2063616c6c6572206973206e6f7420746f6b656e206f776e6560008201527f72206f7220617070726f76656400000000000000000000000000000000000000602082015250565b6000612fd1602d8361225a565b9150612fdc82612f75565b604082019050919050565b6000602082019050818103600083015261300081612fc4565b9050919050565b7f4552433732313a20696e76616c696420746f6b656e2049440000000000000000600082015250565b600061303d60188361225a565b915061304882613007565b602082019050919050565b6000602082019050818103600083015261306c81613030565b9050919050565b7f4552433732313a2061646472657373207a65726f206973206e6f74206120766160008201527f6c6964206f776e65720000000000000000000000000000000000000000000000602082015250565b60006130cf60298361225a565b91506130da82613073565b604082019050919050565b600060208201905081810360008301526130fe816130c2565b9050919050565b60006131118285612e8a565b915061311d8284612e8a565b91508190509392505050565b7f4f776e61626c653a206e6577206f776e657220697320746865207a65726f206160008201527f6464726573730000000000000000000000000000000000000000000000000000602082015250565b600061318560268361225a565b915061319082613129565b604082019050919050565b600060208201905081810360008301526131b481613178565b9050919050565b7f4f776e61626c653a2063616c6c6572206973206e6f7420746865206f776e6572600082015250565b60006131f160208361225a565b91506131fc826131bb565b602082019050919050565b60006020820190508181036000830152613220816131e4565b9050919050565b7f4552433732313a207472616e736665722066726f6d20696e636f72726563742060008201527f6f776e6572000000000000000000000000000000000000000000000000000000602082015250565b600061328360258361225a565b915061328e82613227565b604082019050919050565b600060208201905081810360008301526132b281613276565b9050919050565b7f4552433732313a207472616e7366657220746f20746865207a65726f2061646460008201527f7265737300000000000000000000000000000000000000000000000000000000602082015250565b600061331560248361225a565b9150613320826132b9565b604082019050919050565b6000602082019050818103600083015261334481613308565b9050919050565b7f4552433732313a20617070726f766520746f2063616c6c657200000000000000600082015250565b600061338160198361225a565b915061338c8261334b565b602082019050919050565b600060208201905081810360008301526133b081613374565b9050919050565b7f4552433732313a207472616e7366657220746f206e6f6e20455243373231526560008201527f63656976657220696d706c656d656e7465720000000000000000000000000000602082015250565b600061341360328361225a565b915061341e826133b7565b604082019050919050565b6000602082019050818103600083015261344281613406565b9050919050565b7f4e487b7100000000000000000000000000000000000000000000000000000000600052601260045260246000fd5b60006134838261230a565b915061348e8361230a565b9250828210156134a1576134a0612b80565b5b828203905092915050565b60006134b78261230a565b91506134c28361230a565b9250827fffffffffffffffffffffffffffffffffffffffffffffffffffffffffffffffff038211156134f7576134f6612b80565b5b828201905092915050565b600061350d82612d6a565b6135178185612c32565b935061352781856020860161226b565b6135308161229e565b840191505092915050565b6000608082019050613550600083018761239f565b61355d602083018661239f565b61356a60408301856127ed565b818103606083015261357c8184613502565b905095945050505050565b600081519050613596816121c0565b92915050565b6000602082840312156135b2576135b161218a565b5b60006135c084828501613587565b91505092915050565b7f4552433732313a206d696e7420746f20746865207a65726f2061646472657373600082015250565b60006135ff60208361225a565b915061360a826135c9565b602082019050919050565b6000602082019050818103600083015261362e816135f2565b9050919050565b7f4552433732313a20746f6b656e20616c7265616479206d696e74656400000000600082015250565b600061366b601c8361225a565b915061367682613635565b602082019050919050565b6000602082019050818103600083015261369a8161365e565b905091905056fea264697066735822122075e688522f95f9622808ca6ca3ec4cb3c3c1c8cd403ae62671b2074813f40b5264736f6c634300080d0033",
  "devdoc": {
    "kind": "dev",
    "methods": {
      "approve(address,uint256)": {
        "details": "See {IERC721-approve}."
      },
      "balanceOf(address)": {
        "details": "See {IERC721-balanceOf}."
      },
      "getApproved(uint256)": {
        "details": "See {IERC721-getApproved}."
      },
      "isApprovedForAll(address,address)": {
        "details": "See {IERC721-isApprovedForAll}."
      },
      "name()": {
        "details": "See {IERC721Metadata-name}."
      },
      "owner()": {
        "details": "Returns the address of the current owner."
      },
      "ownerOf(uint256)": {
        "details": "See {IERC721-ownerOf}."
      },
      "renounceOwnership()": {
        "details": "Leaves the contract without owner. It will not be possible to call `onlyOwner` functions anymore. Can only be called by the current owner. NOTE: Renouncing ownership will leave the contract without an owner, thereby removing any functionality that is only available to the owner."
      },
      "safeTransferFrom(address,address,uint256)": {
        "details": "See {IERC721-safeTransferFrom}."
      },
      "safeTransferFrom(address,address,uint256,bytes)": {
        "details": "See {IERC721-safeTransferFrom}."
      },
      "setApprovalForAll(address,bool)": {
        "details": "See {IERC721-setApprovalForAll}."
      },
      "supportsInterface(bytes4)": {
        "details": "See {IERC165-supportsInterface}."
      },
      "symbol()": {
        "details": "See {IERC721Metadata-symbol}."
      },
      "tokenURI(uint256)": {
        "details": "See {IERC721Metadata-tokenURI}."
      },
      "transferFrom(address,address,uint256)": {
        "details": "See {IERC721-transferFrom}."
      },
      "transferOwnership(address)": {
        "details": "Transfers ownership of the contract to a new account (`newOwner`). Can only be called by the current owner."
      }
    },
    "version": 1
  },
  "userdoc": {
    "kind": "user",
    "methods": {},
    "version": 1
  },
  "storageLayout": {
    "storage": [
      {
        "astId": 533,
        "contract": "contracts/TBANFT.sol:TBANFT",
        "label": "_name",
        "offset": 0,
        "slot": "0",
        "type": "t_string_storage"
      },
      {
        "astId": 535,
        "contract": "contracts/TBANFT.sol:TBANFT",
        "label": "_symbol",
        "offset": 0,
        "slot": "1",
        "type": "t_string_storage"
      },
      {
        "astId": 539,
        "contract": "contracts/TBANFT.sol:TBANFT",
        "label": "_owners",
        "offset": 0,
        "slot": "2",
        "type": "t_mapping(t_uint256,t_address)"
      },
      {
        "astId": 543,
        "contract": "contracts/TBANFT.sol:TBANFT",
        "label": "_balances",
        "offset": 0,
        "slot": "3",
        "type": "t_mapping(t_address,t_uint256)"
      },
      {
        "astId": 547,
        "contract": "contracts/TBANFT.sol:TBANFT",
        "label": "_tokenApprovals",
        "offset": 0,
        "slot": "4",
        "type": "t_mapping(t_uint256,t_address)"
      },
      {
        "astId": 553,
        "contract": "contracts/TBANFT.sol:TBANFT",
        "label": "_operatorApprovals",
        "offset": 0,
        "slot": "5",
        "type": "t_mapping(t_address,t_mapping(t_address,t_bool))"
      },
      {
        "astId": 7,
        "contract": "contracts/TBANFT.sol:TBANFT",
        "label": "_owner",
        "offset": 0,
        "slot": "6",
        "type": "t_address"
      },
      {
        "astId": 3232,
        "contract": "contracts/TBANFT.sol:TBANFT",
        "label": "lensHub",
        "offset": 0,
        "slot": "7",
        "type": "t_contract(ILensHub)4445"
      },
      {
        "astId": 3235,
        "contract": "contracts/TBANFT.sol:TBANFT",
        "label": "registry",
        "offset": 0,
        "slot": "8",
        "type": "t_contract(IERC6551Registry)3694"
      },
      {
        "astId": 3237,
        "contract": "contracts/TBANFT.sol:TBANFT",
        "label": "accountImplementation",
        "offset": 0,
        "slot": "9",
        "type": "t_address"
      },
      {
        "astId": 3239,
        "contract": "contracts/TBANFT.sol:TBANFT",
        "label": "profileCreationProxyAddress",
        "offset": 0,
        "slot": "10",
        "type": "t_address"
      },
      {
        "astId": 3242,
        "contract": "contracts/TBANFT.sol:TBANFT",
        "label": "tokenCount",
        "offset": 0,
        "slot": "11",
        "type": "t_uint256"
      }
    ],
    "types": {
      "t_address": {
        "encoding": "inplace",
        "label": "address",
        "numberOfBytes": "20"
      },
      "t_bool": {
        "encoding": "inplace",
        "label": "bool",
        "numberOfBytes": "1"
      },
      "t_contract(IERC6551Registry)3694": {
        "encoding": "inplace",
        "label": "contract IERC6551Registry",
        "numberOfBytes": "20"
      },
      "t_contract(ILensHub)4445": {
        "encoding": "inplace",
        "label": "contract ILensHub",
        "numberOfBytes": "20"
      },
      "t_mapping(t_address,t_bool)": {
        "encoding": "mapping",
        "key": "t_address",
        "label": "mapping(address => bool)",
        "numberOfBytes": "32",
        "value": "t_bool"
      },
      "t_mapping(t_address,t_mapping(t_address,t_bool))": {
        "encoding": "mapping",
        "key": "t_address",
        "label": "mapping(address => mapping(address => bool))",
        "numberOfBytes": "32",
        "value": "t_mapping(t_address,t_bool)"
      },
      "t_mapping(t_address,t_uint256)": {
        "encoding": "mapping",
        "key": "t_address",
        "label": "mapping(address => uint256)",
        "numberOfBytes": "32",
        "value": "t_uint256"
      },
      "t_mapping(t_uint256,t_address)": {
        "encoding": "mapping",
        "key": "t_uint256",
        "label": "mapping(uint256 => address)",
        "numberOfBytes": "32",
        "value": "t_address"
      },
      "t_string_storage": {
        "encoding": "bytes",
        "label": "string",
        "numberOfBytes": "32"
      },
      "t_uint256": {
        "encoding": "inplace",
        "label": "uint256",
        "numberOfBytes": "32"
      }
    }
  }
}